{
  "contracts/Farming.sol": {
    "ShoefyFarm": {
      "abi": [
        {
          "inputs": [
            {
              "internalType": "address",
              "name": "shoefyContract_",
              "type": "address"
            },
            {
              "internalType": "address",
              "name": "nftContract_",
              "type": "address"
            },
            {
              "internalType": "string[]",
              "name": "categories_",
              "type": "string[]"
            },
            {
              "internalType": "uint256[]",
              "name": "totalGeneralNFTs",
              "type": "uint256[]"
            },
            {
              "internalType": "uint256[]",
              "name": "totalRapidNFTs",
              "type": "uint256[]"
            },
            {
              "internalType": "uint256[]",
              "name": "generalFarmTimes_",
              "type": "uint256[]"
            },
            {
              "internalType": "uint256[]",
              "name": "rapidFarmtimes_",
              "type": "uint256[]"
            },
            {
              "internalType": "uint256[]",
              "name": "generalTokensRequired_",
              "type": "uint256[]"
            },
            {
              "internalType": "uint256[]",
              "name": "rapidTokensRequired_",
              "type": "uint256[]"
            },
            {
              "internalType": "address",
              "name": "_signerAddress",
              "type": "address"
            }
          ],
          "stateMutability": "nonpayable",
          "type": "constructor"
        },
        {
          "anonymous": false,
          "inputs": [
            {
              "indexed": false,
              "internalType": "address",
              "name": "userAddress",
              "type": "address"
            },
            {
              "indexed": false,
              "internalType": "bytes32",
              "name": "category",
              "type": "bytes32"
            },
            {
              "indexed": false,
              "internalType": "uint256",
              "name": "farmId",
              "type": "uint256"
            }
          ],
          "name": "GeneralNFTFarmed",
          "type": "event"
        },
        {
          "anonymous": false,
          "inputs": [
            {
              "indexed": false,
              "internalType": "address",
              "name": "userAddress",
              "type": "address"
            },
            {
              "indexed": false,
              "internalType": "bytes32",
              "name": "category",
              "type": "bytes32"
            },
            {
              "indexed": false,
              "internalType": "uint256",
              "name": "farmId",
              "type": "uint256"
            }
          ],
          "name": "GeneralNFTMinted",
          "type": "event"
        },
        {
          "anonymous": false,
          "inputs": [
            {
              "indexed": true,
              "internalType": "address",
              "name": "previousOwner",
              "type": "address"
            },
            {
              "indexed": true,
              "internalType": "address",
              "name": "newOwner",
              "type": "address"
            }
          ],
          "name": "OwnershipTransferred",
          "type": "event"
        },
        {
          "anonymous": false,
          "inputs": [
            {
              "indexed": false,
              "internalType": "address",
              "name": "userAddress",
              "type": "address"
            },
            {
              "indexed": false,
              "internalType": "bytes32",
              "name": "category",
              "type": "bytes32"
            },
            {
              "indexed": false,
              "internalType": "uint256",
              "name": "farmId",
              "type": "uint256"
            }
          ],
          "name": "RapidNFTFarmed",
          "type": "event"
        },
        {
          "anonymous": false,
          "inputs": [
            {
              "indexed": false,
              "internalType": "address",
              "name": "userAddress",
              "type": "address"
            },
            {
              "indexed": false,
              "internalType": "bytes32",
              "name": "category",
              "type": "bytes32"
            },
            {
              "indexed": false,
              "internalType": "uint256",
              "name": "farmId",
              "type": "uint256"
            }
          ],
          "name": "RapidNFTMinted",
          "type": "event"
        },
        {
          "inputs": [
            {
              "internalType": "uint256",
              "name": "",
              "type": "uint256"
            }
          ],
          "name": "farmCategory",
          "outputs": [
            {
              "internalType": "bytes32",
              "name": "",
              "type": "bytes32"
            }
          ],
          "stateMutability": "view",
          "type": "function"
        },
        {
          "inputs": [
            {
              "internalType": "uint256",
              "name": "",
              "type": "uint256"
            }
          ],
          "name": "farmHarvested",
          "outputs": [
            {
              "internalType": "bool",
              "name": "",
              "type": "bool"
            }
          ],
          "stateMutability": "view",
          "type": "function"
        },
        {
          "inputs": [],
          "name": "farmId",
          "outputs": [
            {
              "internalType": "uint256",
              "name": "",
              "type": "uint256"
            }
          ],
          "stateMutability": "view",
          "type": "function"
        },
        {
          "inputs": [
            {
              "internalType": "bytes32",
              "name": "category_",
              "type": "bytes32"
            },
            {
              "internalType": "uint256",
              "name": "farmAmount_",
              "type": "uint256"
            },
            {
              "internalType": "bool",
              "name": "generalFarm_",
              "type": "bool"
            }
          ],
          "name": "farmNFT",
          "outputs": [],
          "stateMutability": "nonpayable",
          "type": "function"
        },
        {
          "inputs": [
            {
              "internalType": "uint256",
              "name": "",
              "type": "uint256"
            }
          ],
          "name": "farmOwner",
          "outputs": [
            {
              "internalType": "address",
              "name": "",
              "type": "address"
            }
          ],
          "stateMutability": "view",
          "type": "function"
        },
        {
          "inputs": [
            {
              "internalType": "uint256",
              "name": "",
              "type": "uint256"
            }
          ],
          "name": "farmTimestamp",
          "outputs": [
            {
              "internalType": "uint256",
              "name": "",
              "type": "uint256"
            }
          ],
          "stateMutability": "view",
          "type": "function"
        },
        {
          "inputs": [
            {
              "internalType": "uint256",
              "name": "",
              "type": "uint256"
            }
          ],
          "name": "farmType",
          "outputs": [
            {
              "internalType": "bytes32",
              "name": "",
              "type": "bytes32"
            }
          ],
          "stateMutability": "view",
          "type": "function"
        },
        {
          "inputs": [],
          "name": "generalFarm",
          "outputs": [
            {
              "internalType": "bytes32",
              "name": "",
              "type": "bytes32"
            }
          ],
          "stateMutability": "view",
          "type": "function"
        },
        {
          "inputs": [
            {
              "internalType": "bytes32",
              "name": "",
              "type": "bytes32"
            }
          ],
          "name": "generalFarmTime",
          "outputs": [
            {
              "internalType": "uint256",
              "name": "",
              "type": "uint256"
            }
          ],
          "stateMutability": "view",
          "type": "function"
        },
        {
          "inputs": [
            {
              "internalType": "bytes32",
              "name": "",
              "type": "bytes32"
            }
          ],
          "name": "generalFarmsLeft",
          "outputs": [
            {
              "internalType": "uint256",
              "name": "",
              "type": "uint256"
            }
          ],
          "stateMutability": "view",
          "type": "function"
        },
        {
          "inputs": [
            {
              "internalType": "bytes32",
              "name": "",
              "type": "bytes32"
            }
          ],
          "name": "generalTokensRequired",
          "outputs": [
            {
              "internalType": "uint256",
              "name": "",
              "type": "uint256"
            }
          ],
          "stateMutability": "view",
          "type": "function"
        },
        {
          "inputs": [
            {
              "internalType": "uint256[]",
              "name": "farmIds_",
              "type": "uint256[]"
            },
            {
              "internalType": "string[]",
              "name": "tokenURIs_",
              "type": "string[]"
            },
            {
              "internalType": "bytes[]",
              "name": "signatures_",
              "type": "bytes[]"
            },
            {
              "internalType": "bool",
              "name": "generalFarm_",
              "type": "bool"
            }
          ],
          "name": "harvestNFT",
          "outputs": [],
          "stateMutability": "nonpayable",
          "type": "function"
        },
        {
          "inputs": [],
          "name": "owner",
          "outputs": [
            {
              "internalType": "address",
              "name": "",
              "type": "address"
            }
          ],
          "stateMutability": "view",
          "type": "function"
        },
        {
          "inputs": [],
          "name": "rapidFarm",
          "outputs": [
            {
              "internalType": "bytes32",
              "name": "",
              "type": "bytes32"
            }
          ],
          "stateMutability": "view",
          "type": "function"
        },
        {
          "inputs": [
            {
              "internalType": "bytes32",
              "name": "",
              "type": "bytes32"
            }
          ],
          "name": "rapidFarmTime",
          "outputs": [
            {
              "internalType": "uint256",
              "name": "",
              "type": "uint256"
            }
          ],
          "stateMutability": "view",
          "type": "function"
        },
        {
          "inputs": [
            {
              "internalType": "bytes32",
              "name": "",
              "type": "bytes32"
            }
          ],
          "name": "rapidFarmsLeft",
          "outputs": [
            {
              "internalType": "uint256",
              "name": "",
              "type": "uint256"
            }
          ],
          "stateMutability": "view",
          "type": "function"
        },
        {
          "inputs": [
            {
              "internalType": "bytes32",
              "name": "",
              "type": "bytes32"
            }
          ],
          "name": "rapidTokensRequired",
          "outputs": [
            {
              "internalType": "uint256",
              "name": "",
              "type": "uint256"
            }
          ],
          "stateMutability": "view",
          "type": "function"
        },
        {
          "inputs": [],
          "name": "signerAddress",
          "outputs": [
            {
              "internalType": "address",
              "name": "",
              "type": "address"
            }
          ],
          "stateMutability": "view",
          "type": "function"
        },
        {
          "inputs": [
            {
              "internalType": "bytes32",
              "name": "",
              "type": "bytes32"
            }
          ],
          "name": "totalLayers",
          "outputs": [
            {
              "internalType": "uint256",
              "name": "",
              "type": "uint256"
            }
          ],
          "stateMutability": "view",
          "type": "function"
        },
        {
          "inputs": [
            {
              "internalType": "address",
              "name": "newOwner",
              "type": "address"
            }
          ],
          "name": "transferOwnership",
          "outputs": [],
          "stateMutability": "nonpayable",
          "type": "function"
        },
        {
          "inputs": [
            {
              "internalType": "string[]",
              "name": "categories_",
              "type": "string[]"
            },
            {
              "internalType": "uint256[]",
              "name": "totalGeneralNFTs",
              "type": "uint256[]"
            },
            {
              "internalType": "uint256[]",
              "name": "totalRapidNFTs",
              "type": "uint256[]"
            },
            {
              "internalType": "uint256[]",
              "name": "generalFarmTimes_",
              "type": "uint256[]"
            },
            {
              "internalType": "uint256[]",
              "name": "rapidFarmtimes_",
              "type": "uint256[]"
            },
            {
              "internalType": "uint256[]",
              "name": "generalTokensRequired_",
              "type": "uint256[]"
            },
            {
              "internalType": "uint256[]",
              "name": "rapidTokensRequired_",
              "type": "uint256[]"
            }
          ],
          "name": "updateFarmConfig",
          "outputs": [],
          "stateMutability": "nonpayable",
          "type": "function"
        },
        {
          "inputs": [
            {
              "internalType": "address",
              "name": "_signerAddress",
              "type": "address"
            }
          ],
          "name": "updateSignerAddress",
          "outputs": [],
          "stateMutability": "nonpayable",
          "type": "function"
        },
        {
          "inputs": [],
          "name": "userFarmLimit",
          "outputs": [
            {
              "internalType": "uint256",
              "name": "",
              "type": "uint256"
            }
          ],
          "stateMutability": "view",
          "type": "function"
        }
      ],
      "evm": {
        "bytecode": {
          "linkReferences": {},
          "object": "60806040523480156200001157600080fd5b50604051620039603803806200396083398181016040528101906200003791906200061e565b600062000049620003ed60201b60201c565b9050806000806101000a81548173ffffffffffffffffffffffffffffffffffffffff021916908373ffffffffffffffffffffffffffffffffffffffff1602179055508073ffffffffffffffffffffffffffffffffffffffff16600073ffffffffffffffffffffffffffffffffffffffff167f8be0079c531659141344cd1fd0a4f28419497f9722a3daafe3b4186f6b6457e060405160405180910390a350600073ffffffffffffffffffffffffffffffffffffffff168173ffffffffffffffffffffffffffffffffffffffff1614156200015a576040517f08c379a0000000000000000000000000000000000000000000000000000000008152600401620001519062000864565b60405180910390fd5b600a600181905550600160028190555089601160006101000a81548173ffffffffffffffffffffffffffffffffffffffff021916908373ffffffffffffffffffffffffffffffffffffffff16021790555088601260006101000a81548173ffffffffffffffffffffffffffffffffffffffff021916908373ffffffffffffffffffffffffffffffffffffffff16021790555080601060006101000a81548173ffffffffffffffffffffffffffffffffffffffff021916908373ffffffffffffffffffffffffffffffffffffffff160217905550600080600090505b8951811015620003db5789818151811062000255576200025462000a91565b5b60200260200101516040516020016200026f91906200084b565b6040516020818303038152906040528051906020012091508881815181106200029d576200029c62000a91565b5b60200260200101516003600084815260200190815260200160002081905550878181518110620002d257620002d162000a91565b5b6020026020010151600460008481526020019081526020016000208190555086818151811062000307576200030662000a91565b5b602002602001015160086000848152602001908152602001600020819055508581815181106200033c576200033b62000a91565b5b6020026020010151600960008481526020019081526020016000208190555084818151811062000371576200037062000a91565b5b60200260200101516006600084815260200190815260200160002081905550838181518110620003a657620003a562000a91565b5b602002602001015160076000848152602001908152602001600020819055508080620003d29062000a14565b91505062000235565b50505050505050505050505062000b9c565b600033905090565b60006200040c6200040684620008af565b62000886565b9050808382526020820190508285602086028201111562000432576200043162000af4565b5b60005b858110156200048757815167ffffffffffffffff8111156200045c576200045b62000aef565b5b8086016200046b8982620005d4565b8552602085019450602084019350505060018101905062000435565b5050509392505050565b6000620004a8620004a284620008de565b62000886565b90508083825260208201905082856020860282011115620004ce57620004cd62000af4565b5b60005b85811015620005025781620004e7888262000607565b845260208401935060208301925050600181019050620004d1565b5050509392505050565b6000620005236200051d846200090d565b62000886565b90508281526020810184848401111562000542576200054162000af9565b5b6200054f848285620009a8565b509392505050565b600081519050620005688162000b68565b92915050565b600082601f83011262000586576200058562000aef565b5b815162000598848260208601620003f5565b91505092915050565b600082601f830112620005b957620005b862000aef565b5b8151620005cb84826020860162000491565b91505092915050565b600082601f830112620005ec57620005eb62000aef565b5b8151620005fe8482602086016200050c565b91505092915050565b600081519050620006188162000b82565b92915050565b6000806000806000806000806000806101408b8d03121562000645576200064462000b03565b5b6000620006558d828e0162000557565b9a50506020620006688d828e0162000557565b99505060408b015167ffffffffffffffff8111156200068c576200068b62000afe565b5b6200069a8d828e016200056e565b98505060608b015167ffffffffffffffff811115620006be57620006bd62000afe565b5b620006cc8d828e01620005a1565b97505060808b015167ffffffffffffffff811115620006f057620006ef62000afe565b5b620006fe8d828e01620005a1565b96505060a08b015167ffffffffffffffff81111562000722576200072162000afe565b5b620007308d828e01620005a1565b95505060c08b015167ffffffffffffffff81111562000754576200075362000afe565b5b620007628d828e01620005a1565b94505060e08b015167ffffffffffffffff81111562000786576200078562000afe565b5b620007948d828e01620005a1565b9350506101008b015167ffffffffffffffff811115620007b957620007b862000afe565b5b620007c78d828e01620005a1565b925050610120620007db8d828e0162000557565b9150509295989b9194979a5092959850565b6000620007fa8262000943565b6200080681856200095f565b935062000818818560208601620009a8565b80840191505092915050565b6000620008336021836200094e565b9150620008408262000b19565b604082019050919050565b6000620008598284620007ed565b915081905092915050565b600060208201905081810360008301526200087f8162000824565b9050919050565b600062000892620008a5565b9050620008a08282620009de565b919050565b6000604051905090565b600067ffffffffffffffff821115620008cd57620008cc62000ac0565b5b602082029050602081019050919050565b600067ffffffffffffffff821115620008fc57620008fb62000ac0565b5b602082029050602081019050919050565b600067ffffffffffffffff8211156200092b576200092a62000ac0565b5b620009368262000b08565b9050602081019050919050565b600081519050919050565b600082825260208201905092915050565b600081905092915050565b600062000977826200097e565b9050919050565b600073ffffffffffffffffffffffffffffffffffffffff82169050919050565b6000819050919050565b60005b83811015620009c8578082015181840152602081019050620009ab565b83811115620009d8576000848401525b50505050565b620009e98262000b08565b810181811067ffffffffffffffff8211171562000a0b5762000a0a62000ac0565b5b80604052505050565b600062000a21826200099e565b91507fffffffffffffffffffffffffffffffffffffffffffffffffffffffffffffffff82141562000a575762000a5662000a62565b5b600182019050919050565b7f4e487b7100000000000000000000000000000000000000000000000000000000600052601160045260246000fd5b7f4e487b7100000000000000000000000000000000000000000000000000000000600052603260045260246000fd5b7f4e487b7100000000000000000000000000000000000000000000000000000000600052604160045260246000fd5b600080fd5b600080fd5b600080fd5b600080fd5b600080fd5b6000601f19601f8301169050919050565b7f5369676e6572204164647265737320636f756c64206e6f7420626520656d707460008201527f7900000000000000000000000000000000000000000000000000000000000000602082015250565b62000b73816200096a565b811462000b7f57600080fd5b50565b62000b8d816200099e565b811462000b9957600080fd5b50565b612db48062000bac6000396000f3fe608060405234801561001057600080fd5b506004361061014d5760003560e01c80637aa2ddc0116100c3578063ca7a37f81161007c578063ca7a37f8146103d8578063e0b0b92d14610408578063e8cfde5f14610438578063eee5beaa14610468578063f261619a14610486578063f2fde38b146104b65761014d565b80637aa2ddc0146102f05780637dde70d11461030e5780638da5cb5b1461033e5780638fa2a9f01461035c5780639f8ded4114610378578063b7db778c146103a85761014d565b80634bb7b136116101155780634bb7b1361461020a57806350e232a31461023a578063533d953d1461026a57806353abe232146102865780635b7633d0146102b65780636a0d35d6146102d45761014d565b806302ef512c1461015257806311b0cee714610182578063226fd904146101b2578063278de000146101d05780634b06e803146101ee575b600080fd5b61016c60048036038101906101679190611dac565b6104d2565b6040516101799190612558565b60405180910390f35b61019c60048036038101906101979190611e2c565b6104ea565b6040516101a99190612358565b60405180910390f35b6101ba610502565b6040516101c79190612558565b60405180910390f35b6101d8610508565b6040516101e59190612558565b60405180910390f35b61020860048036038101906102039190611cc4565b61050e565b005b610224600480360381019061021f9190611dac565b61086d565b6040516102319190612558565b60405180910390f35b610254600480360381019061024f9190611e2c565b610885565b6040516102619190612358565b60405180910390f35b610284600480360381019061027f9190611b5e565b61089d565b005b6102a0600480360381019061029b9190611e2c565b610ab7565b6040516102ad9190612558565b60405180910390f35b6102be610acf565b6040516102cb9190612284565b60405180910390f35b6102ee60048036038101906102e99190611dd9565b610af5565b005b6102f8610dcc565b6040516103059190612358565b60405180910390f35b61032860048036038101906103239190611dac565b610df0565b6040516103359190612558565b60405180910390f35b610346610e08565b6040516103539190612284565b60405180910390f35b61037660048036038101906103719190611b31565b610e31565b005b610392600480360381019061038d9190611dac565b610f61565b60405161039f9190612558565b60405180910390f35b6103c260048036038101906103bd9190611e2c565b610f79565b6040516103cf919061233d565b60405180910390f35b6103f260048036038101906103ed9190611e2c565b610f99565b6040516103ff9190612284565b60405180910390f35b610422600480360381019061041d9190611dac565b610fcc565b60405161042f9190612558565b60405180910390f35b610452600480360381019061044d9190611dac565b610fe4565b60405161045f9190612558565b60405180910390f35b610470610ffc565b60405161047d9190612358565b60405180910390f35b6104a0600480360381019061049b9190611dac565b611020565b6040516104ad9190612558565b60405180910390f35b6104d060048036038101906104cb9190611b31565b611038565b005b60076020528060005260406000206000915090505481565b600c6020528060005260406000206000915090505481565b60015481565b60025481565b82518451148015610520575081518351145b61055f576040517f08c379a0000000000000000000000000000000000000000000000000000000008152600401610556906123b8565b60405180910390fd5b60008161058f577fbe2ccfe29593baf3c1f9dd7eff5442e53b447007014b036622cab0f830ebfeec9050806105b4565b7f85f6017c7f3635f3e21f932bfcec61f314ced22845f0e0e3813bdc644b86d4159050805b5060005b85518110156107d65761061c338783815181106105d8576105d761296b565b5b6020026020010151848885815181106105f4576105f361296b565b5b602002602001015188868151811061060f5761060e61296b565b5b60200260200101516111e1565b6001600e60008884815181106106355761063461296b565b5b6020026020010151815260200190815260200160002060006101000a81548160ff0219169083151502179055506001600f8583815181106106795761067861296b565b5b602002602001015160405161068e9190612230565b908152602001604051809103902060006101000a81548160ff0219169083151502179055508215610740577f91edb6a80ed361634644a0fb53fdab770f8cc92ff141c42cd3bed1b4cb1fa83933600c60008985815181106106f2576106f161296b565b5b602002602001015181526020019081526020016000205488848151811061071c5761071b61296b565b5b602002602001015160405161073393929190612306565b60405180910390a16107c3565b7ff450fde163b563062eb7a92e0560f32610721e68970d97a1338b45821042553f33600c60008985815181106107795761077861296b565b5b60200260200101518152602001908152602001600020548884815181106107a3576107a261296b565b5b60200260200101516040516107ba93929190612306565b60405180910390a15b80806107ce906128bb565b9150506105b8565b50601260009054906101000a900473ffffffffffffffffffffffffffffffffffffffff1673ffffffffffffffffffffffffffffffffffffffff1663ed0e31de33866040518363ffffffff1660e01b81526004016108349291906122d6565b600060405180830381600087803b15801561084e57600080fd5b505af1158015610862573d6000803e3d6000fd5b505050505050505050565b60096020528060005260406000206000915090505481565b600d6020528060005260406000206000915090505481565b6108a56114aa565b73ffffffffffffffffffffffffffffffffffffffff166108c3610e08565b73ffffffffffffffffffffffffffffffffffffffff1614610919576040517f08c379a0000000000000000000000000000000000000000000000000000000008152600401610910906124d8565b60405180910390fd5b600080600090505b8851811015610aac5788818151811061093d5761093c61296b565b5b60200260200101516040516020016109559190612247565b6040516020818303038152906040528051906020012091508781815181106109805761097f61296b565b5b602002602001015160036000848152602001908152602001600020819055508681815181106109b2576109b161296b565b5b602002602001015160046000848152602001908152602001600020819055508581815181106109e4576109e361296b565b5b60200260200101516008600084815260200190815260200160002081905550848181518110610a1657610a1561296b565b5b60200260200101516009600084815260200190815260200160002081905550838181518110610a4857610a4761296b565b5b60200260200101516006600084815260200190815260200160002081905550828181518110610a7a57610a7961296b565b5b602002602001015160076000848152602001908152602001600020819055508080610aa4906128bb565b915050610921565b505050505050505050565b600b6020528060005260406000206000915090505481565b601060009054906101000a900473ffffffffffffffffffffffffffffffffffffffff1681565b610b008383836114b2565b600081610b30577fbe2ccfe29593baf3c1f9dd7eff5442e53b447007014b036622cab0f830ebfeec905080610b55565b7f85f6017c7f3635f3e21f932bfcec61f314ced22845f0e0e3813bdc644b86d4159050805b5060005b83811015610cb7576000610b6b6115b4565b905042600b60008381526020019081526020016000208190555033600a600083815260200190815260200160002060006101000a81548173ffffffffffffffffffffffffffffffffffffffff021916908373ffffffffffffffffffffffffffffffffffffffff16021790555085600c60008381526020019081526020016000208190555082600d600083815260200190815260200160002081905550610c0f6115be565b8315610c5e57610c1e866115da565b7f7c28f056e92cc6cfdc4ad70fdb5aed119371f9d8dae92615d30188fa3662b70a338783604051610c5193929190612306565b60405180910390a1610ca3565b610c6786611608565b7f95b55de57397263725854bdbeda07824086698230d85f38dc061160e34512085338783604051610c9a93929190612306565b60405180910390a15b508080610caf906128bb565b915050610b59565b50601160009054906101000a900473ffffffffffffffffffffffffffffffffffffffff1673ffffffffffffffffffffffffffffffffffffffff166323b872dd3330600660008981526020019081526020016000205487610d17919061275b565b6040518463ffffffff1660e01b8152600401610d359392919061229f565b602060405180830381600087803b158015610d4f57600080fd5b505af1158015610d63573d6000803e3d6000fd5b505050506040513d601f19601f82011682018060405250810190610d879190611d7f565b610dc6576040517f08c379a0000000000000000000000000000000000000000000000000000000008152600401610dbd90612498565b60405180910390fd5b50505050565b7f85f6017c7f3635f3e21f932bfcec61f314ced22845f0e0e3813bdc644b86d41581565b60046020528060005260406000206000915090505481565b60008060009054906101000a900473ffffffffffffffffffffffffffffffffffffffff16905090565b610e396114aa565b73ffffffffffffffffffffffffffffffffffffffff16610e57610e08565b73ffffffffffffffffffffffffffffffffffffffff1614610ead576040517f08c379a0000000000000000000000000000000000000000000000000000000008152600401610ea4906124d8565b60405180910390fd5b600073ffffffffffffffffffffffffffffffffffffffff168173ffffffffffffffffffffffffffffffffffffffff161415610f1d576040517f08c379a0000000000000000000000000000000000000000000000000000000008152600401610f14906124f8565b60405180910390fd5b80601060006101000a81548173ffffffffffffffffffffffffffffffffffffffff021916908373ffffffffffffffffffffffffffffffffffffffff16021790555050565b60036020528060005260406000206000915090505481565b600e6020528060005260406000206000915054906101000a900460ff1681565b600a6020528060005260406000206000915054906101000a900473ffffffffffffffffffffffffffffffffffffffff1681565b60056020528060005260406000206000915090505481565b60086020528060005260406000206000915090505481565b7fbe2ccfe29593baf3c1f9dd7eff5442e53b447007014b036622cab0f830ebfeec81565b60066020528060005260406000206000915090505481565b6110406114aa565b73ffffffffffffffffffffffffffffffffffffffff1661105e610e08565b73ffffffffffffffffffffffffffffffffffffffff16146110b4576040517f08c379a00000000000000000000000000000000000000000000000000000000081526004016110ab906124d8565b60405180910390fd5b600073ffffffffffffffffffffffffffffffffffffffff168173ffffffffffffffffffffffffffffffffffffffff161415611124576040517f08c379a000000000000000000000000000000000000000000000000000000000815260040161111b90612418565b60405180910390fd5b8073ffffffffffffffffffffffffffffffffffffffff1660008054906101000a900473ffffffffffffffffffffffffffffffffffffffff1673ffffffffffffffffffffffffffffffffffffffff167f8be0079c531659141344cd1fd0a4f28419497f9722a3daafe3b4186f6b6457e060405160405180910390a3806000806101000a81548173ffffffffffffffffffffffffffffffffffffffff021916908373ffffffffffffffffffffffffffffffffffffffff16021790555050565b8473ffffffffffffffffffffffffffffffffffffffff16600a600086815260200190815260200160002060009054906101000a900473ffffffffffffffffffffffffffffffffffffffff1673ffffffffffffffffffffffffffffffffffffffff1614611282576040517f08c379a000000000000000000000000000000000000000000000000000000000815260040161127990612538565b60405180910390fd5b82600d600086815260200190815260200160002054146112d7576040517f08c379a00000000000000000000000000000000000000000000000000000000081526004016112ce906124b8565b60405180910390fd5b600f816040516112e79190612230565b908152602001604051809103902060009054906101000a900460ff1615611343576040517f08c379a000000000000000000000000000000000000000000000000000000000815260040161133a90612438565b60405180910390fd5b6000600b6000868152602001908152602001600020544261136491906127b5565b90506000600c60008781526020019081526020016000205490507f85f6017c7f3635f3e21f932bfcec61f314ced22845f0e0e3813bdc644b86d41585141561140057600860008281526020019081526020016000205482116113fb576040517f08c379a00000000000000000000000000000000000000000000000000000000081526004016113f2906123f8565b60405180910390fd5b611456565b60096000828152602001908152602001600020548211611455576040517f08c379a000000000000000000000000000000000000000000000000000000000815260040161144c906123f8565b60405180910390fd5b5b61146287878686611636565b6114a1576040517f08c379a000000000000000000000000000000000000000000000000000000000815260040161149890612458565b60405180910390fd5b50505050505050565b600033905090565b6001548211156114f7576040517f08c379a00000000000000000000000000000000000000000000000000000000081526004016114ee90612518565b60405180910390fd5b8015611558576000600360008581526020019081526020016000205411611553576040517f08c379a000000000000000000000000000000000000000000000000000000000815260040161154a90612478565b60405180910390fd5b6115af565b60006004600085815260200190815260200160002054116115ae576040517f08c379a00000000000000000000000000000000000000000000000000000000081526004016115a5906123d8565b60405180910390fd5b5b505050565b6000600254905090565b6001600260008282546115d19190612705565b92505081905550565b60016003600083815260200190815260200160002060008282546115fe91906127b5565b9250508190555050565b600160046000838152602001908152602001600020600082825461162c91906127b5565b9250508190555050565b60008061166d868686604051602001611651939291906121f7565b60405160208183030381529060405280519060200120846116de565b9050601060009054906101000a900473ffffffffffffffffffffffffffffffffffffffff1673ffffffffffffffffffffffffffffffffffffffff168173ffffffffffffffffffffffffffffffffffffffff16146116ce5760009150816116d4565b60019150815b5050949350505050565b60006116e98361175f565b925060008060006116f98561178f565b809350819450829550505050600186848484604051600081526020016040526040516117289493929190612373565b6020604051602081039080840390855afa15801561174a573d6000803e3d6000fd5b50505060206040510351935050505092915050565b600081604051602001611772919061225e565b604051602081830303815290604052805190602001209050919050565b600080600060418451146117a257600080fd5b60008060006020870151925060408701519150606087015160001a90508083839550955095505050509193909250565b60006117e56117e084612598565b612573565b90508083825260208201905082856020860282011115611808576118076129ce565b5b60005b8581101561185657813567ffffffffffffffff81111561182e5761182d6129c9565b5b80860161183b8982611ac0565b8552602085019450602084019350505060018101905061180b565b5050509392505050565b600061187361186e846125c4565b612573565b90508083825260208201905082856020860282011115611896576118956129ce565b5b60005b858110156118e457813567ffffffffffffffff8111156118bc576118bb6129c9565b5b8086016118c98982611aee565b85526020850194506020840193505050600181019050611899565b5050509392505050565b60006119016118fc846125f0565b612573565b90508083825260208201905082856020860282011115611924576119236129ce565b5b60005b85811015611954578161193a8882611b1c565b845260208401935060208301925050600181019050611927565b5050509392505050565b600061197161196c8461261c565b612573565b90508281526020810184848401111561198d5761198c6129d3565b5b611998848285612848565b509392505050565b60006119b36119ae8461264d565b612573565b9050828152602081018484840111156119cf576119ce6129d3565b5b6119da848285612848565b509392505050565b6000813590506119f181612d22565b92915050565b600082601f830112611a0c57611a0b6129c9565b5b8135611a1c8482602086016117d2565b91505092915050565b600082601f830112611a3a57611a396129c9565b5b8135611a4a848260208601611860565b91505092915050565b600082601f830112611a6857611a676129c9565b5b8135611a788482602086016118ee565b91505092915050565b600081359050611a9081612d39565b92915050565b600081519050611aa581612d39565b92915050565b600081359050611aba81612d50565b92915050565b600082601f830112611ad557611ad46129c9565b5b8135611ae584826020860161195e565b91505092915050565b600082601f830112611b0357611b026129c9565b5b8135611b138482602086016119a0565b91505092915050565b600081359050611b2b81612d67565b92915050565b600060208284031215611b4757611b466129dd565b5b6000611b55848285016119e2565b91505092915050565b600080600080600080600060e0888a031215611b7d57611b7c6129dd565b5b600088013567ffffffffffffffff811115611b9b57611b9a6129d8565b5b611ba78a828b01611a25565b975050602088013567ffffffffffffffff811115611bc857611bc76129d8565b5b611bd48a828b01611a53565b965050604088013567ffffffffffffffff811115611bf557611bf46129d8565b5b611c018a828b01611a53565b955050606088013567ffffffffffffffff811115611c2257611c216129d8565b5b611c2e8a828b01611a53565b945050608088013567ffffffffffffffff811115611c4f57611c4e6129d8565b5b611c5b8a828b01611a53565b93505060a088013567ffffffffffffffff811115611c7c57611c7b6129d8565b5b611c888a828b01611a53565b92505060c088013567ffffffffffffffff811115611ca957611ca86129d8565b5b611cb58a828b01611a53565b91505092959891949750929550565b60008060008060808587031215611cde57611cdd6129dd565b5b600085013567ffffffffffffffff811115611cfc57611cfb6129d8565b5b611d0887828801611a53565b945050602085013567ffffffffffffffff811115611d2957611d286129d8565b5b611d3587828801611a25565b935050604085013567ffffffffffffffff811115611d5657611d556129d8565b5b611d62878288016119f7565b9250506060611d7387828801611a81565b91505092959194509250565b600060208284031215611d9557611d946129dd565b5b6000611da384828501611a96565b91505092915050565b600060208284031215611dc257611dc16129dd565b5b6000611dd084828501611aab565b91505092915050565b600080600060608486031215611df257611df16129dd565b5b6000611e0086828701611aab565b9350506020611e1186828701611b1c565b9250506040611e2286828701611a81565b9150509250925092565b600060208284031215611e4257611e416129dd565b5b6000611e5084828501611b1c565b91505092915050565b6000611e658383611f6e565b905092915050565b611e76816127e9565b82525050565b611e8d611e88826127e9565b612904565b82525050565b6000611e9e8261268e565b611ea881856126bc565b935083602082028501611eba8561267e565b8060005b85811015611ef65784840389528151611ed78582611e59565b9450611ee2836126af565b925060208a01995050600181019050611ebe565b50829750879550505050505092915050565b611f11816127fb565b82525050565b611f2081612807565b82525050565b611f37611f3282612807565b612916565b82525050565b6000611f4882612699565b611f5281856126cd565b9350611f62818560208601612857565b80840191505092915050565b6000611f79826126a4565b611f8381856126d8565b9350611f93818560208601612857565b611f9c816129e2565b840191505092915050565b6000611fb2826126a4565b611fbc81856126fa565b9350611fcc818560208601612857565b80840191505092915050565b6000611fe56014836126e9565b9150611ff082612a00565b602082019050919050565b6000612008602e836126e9565b915061201382612a29565b604082019050919050565b600061202b601c836126fa565b915061203682612a78565b601c82019050919050565b600061204e6025836126e9565b915061205982612aa1565b604082019050919050565b60006120716026836126e9565b915061207c82612af0565b604082019050919050565b60006120946016836126e9565b915061209f82612b3f565b602082019050919050565b60006120b76011836126e9565b91506120c282612b68565b602082019050919050565b60006120da6030836126e9565b91506120e582612b91565b604082019050919050565b60006120fd6015836126e9565b915061210882612be0565b602082019050919050565b60006121206011836126e9565b915061212b82612c09565b602082019050919050565b60006121436020836126e9565b915061214e82612c32565b602082019050919050565b60006121666021836126e9565b915061217182612c5b565b604082019050919050565b60006121896029836126e9565b915061219482612caa565b604082019050919050565b60006121ac601f836126e9565b91506121b782612cf9565b602082019050919050565b6121cb81612831565b82525050565b6121e26121dd82612831565b612932565b82525050565b6121f18161283b565b82525050565b60006122038286611e7c565b60148201915061221382856121d1565b6020820191506122238284611fa7565b9150819050949350505050565b600061223c8284611f3d565b915081905092915050565b60006122538284611fa7565b915081905092915050565b60006122698261201e565b91506122758284611f26565b60208201915081905092915050565b60006020820190506122996000830184611e6d565b92915050565b60006060820190506122b46000830186611e6d565b6122c16020830185611e6d565b6122ce60408301846121c2565b949350505050565b60006040820190506122eb6000830185611e6d565b81810360208301526122fd8184611e93565b90509392505050565b600060608201905061231b6000830186611e6d565b6123286020830185611f17565b61233560408301846121c2565b949350505050565b60006020820190506123526000830184611f08565b92915050565b600060208201905061236d6000830184611f17565b92915050565b60006080820190506123886000830187611f17565b61239560208301866121e8565b6123a26040830185611f17565b6123af6060830184611f17565b95945050505050565b600060208201905081810360008301526123d181611fd8565b9050919050565b600060208201905081810360008301526123f181611ffb565b9050919050565b6000602082019050818103600083015261241181612041565b9050919050565b6000602082019050818103600083015261243181612064565b9050919050565b6000602082019050818103600083015261245181612087565b9050919050565b60006020820190508181036000830152612471816120aa565b9050919050565b60006020820190508181036000830152612491816120cd565b9050919050565b600060208201905081810360008301526124b1816120f0565b9050919050565b600060208201905081810360008301526124d181612113565b9050919050565b600060208201905081810360008301526124f181612136565b9050919050565b6000602082019050818103600083015261251181612159565b9050919050565b600060208201905081810360008301526125318161217c565b9050919050565b600060208201905081810360008301526125518161219f565b9050919050565b600060208201905061256d60008301846121c2565b92915050565b600061257d61258e565b9050612589828261288a565b919050565b6000604051905090565b600067ffffffffffffffff8211156125b3576125b261299a565b5b602082029050602081019050919050565b600067ffffffffffffffff8211156125df576125de61299a565b5b602082029050602081019050919050565b600067ffffffffffffffff82111561260b5761260a61299a565b5b602082029050602081019050919050565b600067ffffffffffffffff8211156126375761263661299a565b5b612640826129e2565b9050602081019050919050565b600067ffffffffffffffff8211156126685761266761299a565b5b612671826129e2565b9050602081019050919050565b6000819050602082019050919050565b600081519050919050565b600081519050919050565b600081519050919050565b6000602082019050919050565b600082825260208201905092915050565b600081905092915050565b600082825260208201905092915050565b600082825260208201905092915050565b600081905092915050565b600061271082612831565b915061271b83612831565b9250827fffffffffffffffffffffffffffffffffffffffffffffffffffffffffffffffff038211156127505761274f61293c565b5b828201905092915050565b600061276682612831565b915061277183612831565b9250817fffffffffffffffffffffffffffffffffffffffffffffffffffffffffffffffff04831182151516156127aa576127a961293c565b5b828202905092915050565b60006127c082612831565b91506127cb83612831565b9250828210156127de576127dd61293c565b5b828203905092915050565b60006127f482612811565b9050919050565b60008115159050919050565b6000819050919050565b600073ffffffffffffffffffffffffffffffffffffffff82169050919050565b6000819050919050565b600060ff82169050919050565b82818337600083830152505050565b60005b8381101561287557808201518184015260208101905061285a565b83811115612884576000848401525b50505050565b612893826129e2565b810181811067ffffffffffffffff821117156128b2576128b161299a565b5b80604052505050565b60006128c682612831565b91507fffffffffffffffffffffffffffffffffffffffffffffffffffffffffffffffff8214156128f9576128f861293c565b5b600182019050919050565b600061290f82612920565b9050919050565b6000819050919050565b600061292b826129f3565b9050919050565b6000819050919050565b7f4e487b7100000000000000000000000000000000000000000000000000000000600052601160045260246000fd5b7f4e487b7100000000000000000000000000000000000000000000000000000000600052603260045260246000fd5b7f4e487b7100000000000000000000000000000000000000000000000000000000600052604160045260246000fd5b600080fd5b600080fd5b600080fd5b600080fd5b600080fd5b6000601f19601f8301169050919050565b60008160601b9050919050565b7f496e76616c6964206172726179206c656e677468000000000000000000000000600082015250565b7f5261706964204661726d206c696d6974207265616368656420666f722070726f60008201527f76696465642063617465676f7279000000000000000000000000000000000000602082015250565b7f19457468657265756d205369676e6564204d6573736167653a0a333200000000600082015250565b7f43616e206e6f74206861727665737420647572696e67206661726d696e67207060008201527f6572696f64000000000000000000000000000000000000000000000000000000602082015250565b7f4f776e61626c653a206e6577206f776e657220697320746865207a65726f206160008201527f6464726573730000000000000000000000000000000000000000000000000000602082015250565b7f5369676e617475726520616c7265616479207573656400000000000000000000600082015250565b7f496e76616c6964207369676e6174757265000000000000000000000000000000600082015250565b7f47656e6572616c204661726d206c696d6974207265616368656420666f72207060008201527f726f76696465642063617465676f727900000000000000000000000000000000602082015250565b7f546f6b656e207472616e73666572206661696c65640000000000000000000000600082015250565b7f496e76616c6964206661726d2074797065000000000000000000000000000000600082015250565b7f4f776e61626c653a2063616c6c6572206973206e6f7420746865206f776e6572600082015250565b7f5369676e6572204164647265737320636f756c64206e6f7420626520656d707460008201527f7900000000000000000000000000000000000000000000000000000000000000602082015250565b7f43616e206e6f74204661726d206d6f7265207468616e2075736572204661726d60008201527f696e67204c696d69740000000000000000000000000000000000000000000000602082015250565b7f4f6e6c79206f776e65722063616e206861727665737420746865206661726d00600082015250565b612d2b816127e9565b8114612d3657600080fd5b50565b612d42816127fb565b8114612d4d57600080fd5b50565b612d5981612807565b8114612d6457600080fd5b50565b612d7081612831565b8114612d7b57600080fd5b5056fea2646970667358221220bf1e5aac76e13f1039db39b44a5977a6d93d27f2f1a233f945efe38a9a4e225d64736f6c63430008070033",
          "opcodes": "PUSH1 0x80 PUSH1 0x40 MSTORE CALLVALUE DUP1 ISZERO PUSH3 0x11 JUMPI PUSH1 0x0 DUP1 REVERT JUMPDEST POP PUSH1 0x40 MLOAD PUSH3 0x3960 CODESIZE SUB DUP1 PUSH3 0x3960 DUP4 CODECOPY DUP2 DUP2 ADD PUSH1 0x40 MSTORE DUP2 ADD SWAP1 PUSH3 0x37 SWAP2 SWAP1 PUSH3 0x61E JUMP JUMPDEST PUSH1 0x0 PUSH3 0x49 PUSH3 0x3ED PUSH1 0x20 SHL PUSH1 0x20 SHR JUMP JUMPDEST SWAP1 POP DUP1 PUSH1 0x0 DUP1 PUSH2 0x100 EXP DUP2 SLOAD DUP2 PUSH20 0xFFFFFFFFFFFFFFFFFFFFFFFFFFFFFFFFFFFFFFFF MUL NOT AND SWAP1 DUP4 PUSH20 0xFFFFFFFFFFFFFFFFFFFFFFFFFFFFFFFFFFFFFFFF AND MUL OR SWAP1 SSTORE POP DUP1 PUSH20 0xFFFFFFFFFFFFFFFFFFFFFFFFFFFFFFFFFFFFFFFF AND PUSH1 0x0 PUSH20 0xFFFFFFFFFFFFFFFFFFFFFFFFFFFFFFFFFFFFFFFF AND PUSH32 0x8BE0079C531659141344CD1FD0A4F28419497F9722A3DAAFE3B4186F6B6457E0 PUSH1 0x40 MLOAD PUSH1 0x40 MLOAD DUP1 SWAP2 SUB SWAP1 LOG3 POP PUSH1 0x0 PUSH20 0xFFFFFFFFFFFFFFFFFFFFFFFFFFFFFFFFFFFFFFFF AND DUP2 PUSH20 0xFFFFFFFFFFFFFFFFFFFFFFFFFFFFFFFFFFFFFFFF AND EQ ISZERO PUSH3 0x15A JUMPI PUSH1 0x40 MLOAD PUSH32 0x8C379A000000000000000000000000000000000000000000000000000000000 DUP2 MSTORE PUSH1 0x4 ADD PUSH3 0x151 SWAP1 PUSH3 0x864 JUMP JUMPDEST PUSH1 0x40 MLOAD DUP1 SWAP2 SUB SWAP1 REVERT JUMPDEST PUSH1 0xA PUSH1 0x1 DUP2 SWAP1 SSTORE POP PUSH1 0x1 PUSH1 0x2 DUP2 SWAP1 SSTORE POP DUP10 PUSH1 0x11 PUSH1 0x0 PUSH2 0x100 EXP DUP2 SLOAD DUP2 PUSH20 0xFFFFFFFFFFFFFFFFFFFFFFFFFFFFFFFFFFFFFFFF MUL NOT AND SWAP1 DUP4 PUSH20 0xFFFFFFFFFFFFFFFFFFFFFFFFFFFFFFFFFFFFFFFF AND MUL OR SWAP1 SSTORE POP DUP9 PUSH1 0x12 PUSH1 0x0 PUSH2 0x100 EXP DUP2 SLOAD DUP2 PUSH20 0xFFFFFFFFFFFFFFFFFFFFFFFFFFFFFFFFFFFFFFFF MUL NOT AND SWAP1 DUP4 PUSH20 0xFFFFFFFFFFFFFFFFFFFFFFFFFFFFFFFFFFFFFFFF AND MUL OR SWAP1 SSTORE POP DUP1 PUSH1 0x10 PUSH1 0x0 PUSH2 0x100 EXP DUP2 SLOAD DUP2 PUSH20 0xFFFFFFFFFFFFFFFFFFFFFFFFFFFFFFFFFFFFFFFF MUL NOT AND SWAP1 DUP4 PUSH20 0xFFFFFFFFFFFFFFFFFFFFFFFFFFFFFFFFFFFFFFFF AND MUL OR SWAP1 SSTORE POP PUSH1 0x0 DUP1 PUSH1 0x0 SWAP1 POP JUMPDEST DUP10 MLOAD DUP2 LT ISZERO PUSH3 0x3DB JUMPI DUP10 DUP2 DUP2 MLOAD DUP2 LT PUSH3 0x255 JUMPI PUSH3 0x254 PUSH3 0xA91 JUMP JUMPDEST JUMPDEST PUSH1 0x20 MUL PUSH1 0x20 ADD ADD MLOAD PUSH1 0x40 MLOAD PUSH1 0x20 ADD PUSH3 0x26F SWAP2 SWAP1 PUSH3 0x84B JUMP JUMPDEST PUSH1 0x40 MLOAD PUSH1 0x20 DUP2 DUP4 SUB SUB DUP2 MSTORE SWAP1 PUSH1 0x40 MSTORE DUP1 MLOAD SWAP1 PUSH1 0x20 ADD KECCAK256 SWAP2 POP DUP9 DUP2 DUP2 MLOAD DUP2 LT PUSH3 0x29D JUMPI PUSH3 0x29C PUSH3 0xA91 JUMP JUMPDEST JUMPDEST PUSH1 0x20 MUL PUSH1 0x20 ADD ADD MLOAD PUSH1 0x3 PUSH1 0x0 DUP5 DUP2 MSTORE PUSH1 0x20 ADD SWAP1 DUP2 MSTORE PUSH1 0x20 ADD PUSH1 0x0 KECCAK256 DUP2 SWAP1 SSTORE POP DUP8 DUP2 DUP2 MLOAD DUP2 LT PUSH3 0x2D2 JUMPI PUSH3 0x2D1 PUSH3 0xA91 JUMP JUMPDEST JUMPDEST PUSH1 0x20 MUL PUSH1 0x20 ADD ADD MLOAD PUSH1 0x4 PUSH1 0x0 DUP5 DUP2 MSTORE PUSH1 0x20 ADD SWAP1 DUP2 MSTORE PUSH1 0x20 ADD PUSH1 0x0 KECCAK256 DUP2 SWAP1 SSTORE POP DUP7 DUP2 DUP2 MLOAD DUP2 LT PUSH3 0x307 JUMPI PUSH3 0x306 PUSH3 0xA91 JUMP JUMPDEST JUMPDEST PUSH1 0x20 MUL PUSH1 0x20 ADD ADD MLOAD PUSH1 0x8 PUSH1 0x0 DUP5 DUP2 MSTORE PUSH1 0x20 ADD SWAP1 DUP2 MSTORE PUSH1 0x20 ADD PUSH1 0x0 KECCAK256 DUP2 SWAP1 SSTORE POP DUP6 DUP2 DUP2 MLOAD DUP2 LT PUSH3 0x33C JUMPI PUSH3 0x33B PUSH3 0xA91 JUMP JUMPDEST JUMPDEST PUSH1 0x20 MUL PUSH1 0x20 ADD ADD MLOAD PUSH1 0x9 PUSH1 0x0 DUP5 DUP2 MSTORE PUSH1 0x20 ADD SWAP1 DUP2 MSTORE PUSH1 0x20 ADD PUSH1 0x0 KECCAK256 DUP2 SWAP1 SSTORE POP DUP5 DUP2 DUP2 MLOAD DUP2 LT PUSH3 0x371 JUMPI PUSH3 0x370 PUSH3 0xA91 JUMP JUMPDEST JUMPDEST PUSH1 0x20 MUL PUSH1 0x20 ADD ADD MLOAD PUSH1 0x6 PUSH1 0x0 DUP5 DUP2 MSTORE PUSH1 0x20 ADD SWAP1 DUP2 MSTORE PUSH1 0x20 ADD PUSH1 0x0 KECCAK256 DUP2 SWAP1 SSTORE POP DUP4 DUP2 DUP2 MLOAD DUP2 LT PUSH3 0x3A6 JUMPI PUSH3 0x3A5 PUSH3 0xA91 JUMP JUMPDEST JUMPDEST PUSH1 0x20 MUL PUSH1 0x20 ADD ADD MLOAD PUSH1 0x7 PUSH1 0x0 DUP5 DUP2 MSTORE PUSH1 0x20 ADD SWAP1 DUP2 MSTORE PUSH1 0x20 ADD PUSH1 0x0 KECCAK256 DUP2 SWAP1 SSTORE POP DUP1 DUP1 PUSH3 0x3D2 SWAP1 PUSH3 0xA14 JUMP JUMPDEST SWAP2 POP POP PUSH3 0x235 JUMP JUMPDEST POP POP POP POP POP POP POP POP POP POP POP POP PUSH3 0xB9C JUMP JUMPDEST PUSH1 0x0 CALLER SWAP1 POP SWAP1 JUMP JUMPDEST PUSH1 0x0 PUSH3 0x40C PUSH3 0x406 DUP5 PUSH3 0x8AF JUMP JUMPDEST PUSH3 0x886 JUMP JUMPDEST SWAP1 POP DUP1 DUP4 DUP3 MSTORE PUSH1 0x20 DUP3 ADD SWAP1 POP DUP3 DUP6 PUSH1 0x20 DUP7 MUL DUP3 ADD GT ISZERO PUSH3 0x432 JUMPI PUSH3 0x431 PUSH3 0xAF4 JUMP JUMPDEST JUMPDEST PUSH1 0x0 JUMPDEST DUP6 DUP2 LT ISZERO PUSH3 0x487 JUMPI DUP2 MLOAD PUSH8 0xFFFFFFFFFFFFFFFF DUP2 GT ISZERO PUSH3 0x45C JUMPI PUSH3 0x45B PUSH3 0xAEF JUMP JUMPDEST JUMPDEST DUP1 DUP7 ADD PUSH3 0x46B DUP10 DUP3 PUSH3 0x5D4 JUMP JUMPDEST DUP6 MSTORE PUSH1 0x20 DUP6 ADD SWAP5 POP PUSH1 0x20 DUP5 ADD SWAP4 POP POP POP PUSH1 0x1 DUP2 ADD SWAP1 POP PUSH3 0x435 JUMP JUMPDEST POP POP POP SWAP4 SWAP3 POP POP POP JUMP JUMPDEST PUSH1 0x0 PUSH3 0x4A8 PUSH3 0x4A2 DUP5 PUSH3 0x8DE JUMP JUMPDEST PUSH3 0x886 JUMP JUMPDEST SWAP1 POP DUP1 DUP4 DUP3 MSTORE PUSH1 0x20 DUP3 ADD SWAP1 POP DUP3 DUP6 PUSH1 0x20 DUP7 MUL DUP3 ADD GT ISZERO PUSH3 0x4CE JUMPI PUSH3 0x4CD PUSH3 0xAF4 JUMP JUMPDEST JUMPDEST PUSH1 0x0 JUMPDEST DUP6 DUP2 LT ISZERO PUSH3 0x502 JUMPI DUP2 PUSH3 0x4E7 DUP9 DUP3 PUSH3 0x607 JUMP JUMPDEST DUP5 MSTORE PUSH1 0x20 DUP5 ADD SWAP4 POP PUSH1 0x20 DUP4 ADD SWAP3 POP POP PUSH1 0x1 DUP2 ADD SWAP1 POP PUSH3 0x4D1 JUMP JUMPDEST POP POP POP SWAP4 SWAP3 POP POP POP JUMP JUMPDEST PUSH1 0x0 PUSH3 0x523 PUSH3 0x51D DUP5 PUSH3 0x90D JUMP JUMPDEST PUSH3 0x886 JUMP JUMPDEST SWAP1 POP DUP3 DUP2 MSTORE PUSH1 0x20 DUP2 ADD DUP5 DUP5 DUP5 ADD GT ISZERO PUSH3 0x542 JUMPI PUSH3 0x541 PUSH3 0xAF9 JUMP JUMPDEST JUMPDEST PUSH3 0x54F DUP5 DUP3 DUP6 PUSH3 0x9A8 JUMP JUMPDEST POP SWAP4 SWAP3 POP POP POP JUMP JUMPDEST PUSH1 0x0 DUP2 MLOAD SWAP1 POP PUSH3 0x568 DUP2 PUSH3 0xB68 JUMP JUMPDEST SWAP3 SWAP2 POP POP JUMP JUMPDEST PUSH1 0x0 DUP3 PUSH1 0x1F DUP4 ADD SLT PUSH3 0x586 JUMPI PUSH3 0x585 PUSH3 0xAEF JUMP JUMPDEST JUMPDEST DUP2 MLOAD PUSH3 0x598 DUP5 DUP3 PUSH1 0x20 DUP7 ADD PUSH3 0x3F5 JUMP JUMPDEST SWAP2 POP POP SWAP3 SWAP2 POP POP JUMP JUMPDEST PUSH1 0x0 DUP3 PUSH1 0x1F DUP4 ADD SLT PUSH3 0x5B9 JUMPI PUSH3 0x5B8 PUSH3 0xAEF JUMP JUMPDEST JUMPDEST DUP2 MLOAD PUSH3 0x5CB DUP5 DUP3 PUSH1 0x20 DUP7 ADD PUSH3 0x491 JUMP JUMPDEST SWAP2 POP POP SWAP3 SWAP2 POP POP JUMP JUMPDEST PUSH1 0x0 DUP3 PUSH1 0x1F DUP4 ADD SLT PUSH3 0x5EC JUMPI PUSH3 0x5EB PUSH3 0xAEF JUMP JUMPDEST JUMPDEST DUP2 MLOAD PUSH3 0x5FE DUP5 DUP3 PUSH1 0x20 DUP7 ADD PUSH3 0x50C JUMP JUMPDEST SWAP2 POP POP SWAP3 SWAP2 POP POP JUMP JUMPDEST PUSH1 0x0 DUP2 MLOAD SWAP1 POP PUSH3 0x618 DUP2 PUSH3 0xB82 JUMP JUMPDEST SWAP3 SWAP2 POP POP JUMP JUMPDEST PUSH1 0x0 DUP1 PUSH1 0x0 DUP1 PUSH1 0x0 DUP1 PUSH1 0x0 DUP1 PUSH1 0x0 DUP1 PUSH2 0x140 DUP12 DUP14 SUB SLT ISZERO PUSH3 0x645 JUMPI PUSH3 0x644 PUSH3 0xB03 JUMP JUMPDEST JUMPDEST PUSH1 0x0 PUSH3 0x655 DUP14 DUP3 DUP15 ADD PUSH3 0x557 JUMP JUMPDEST SWAP11 POP POP PUSH1 0x20 PUSH3 0x668 DUP14 DUP3 DUP15 ADD PUSH3 0x557 JUMP JUMPDEST SWAP10 POP POP PUSH1 0x40 DUP12 ADD MLOAD PUSH8 0xFFFFFFFFFFFFFFFF DUP2 GT ISZERO PUSH3 0x68C JUMPI PUSH3 0x68B PUSH3 0xAFE JUMP JUMPDEST JUMPDEST PUSH3 0x69A DUP14 DUP3 DUP15 ADD PUSH3 0x56E JUMP JUMPDEST SWAP9 POP POP PUSH1 0x60 DUP12 ADD MLOAD PUSH8 0xFFFFFFFFFFFFFFFF DUP2 GT ISZERO PUSH3 0x6BE JUMPI PUSH3 0x6BD PUSH3 0xAFE JUMP JUMPDEST JUMPDEST PUSH3 0x6CC DUP14 DUP3 DUP15 ADD PUSH3 0x5A1 JUMP JUMPDEST SWAP8 POP POP PUSH1 0x80 DUP12 ADD MLOAD PUSH8 0xFFFFFFFFFFFFFFFF DUP2 GT ISZERO PUSH3 0x6F0 JUMPI PUSH3 0x6EF PUSH3 0xAFE JUMP JUMPDEST JUMPDEST PUSH3 0x6FE DUP14 DUP3 DUP15 ADD PUSH3 0x5A1 JUMP JUMPDEST SWAP7 POP POP PUSH1 0xA0 DUP12 ADD MLOAD PUSH8 0xFFFFFFFFFFFFFFFF DUP2 GT ISZERO PUSH3 0x722 JUMPI PUSH3 0x721 PUSH3 0xAFE JUMP JUMPDEST JUMPDEST PUSH3 0x730 DUP14 DUP3 DUP15 ADD PUSH3 0x5A1 JUMP JUMPDEST SWAP6 POP POP PUSH1 0xC0 DUP12 ADD MLOAD PUSH8 0xFFFFFFFFFFFFFFFF DUP2 GT ISZERO PUSH3 0x754 JUMPI PUSH3 0x753 PUSH3 0xAFE JUMP JUMPDEST JUMPDEST PUSH3 0x762 DUP14 DUP3 DUP15 ADD PUSH3 0x5A1 JUMP JUMPDEST SWAP5 POP POP PUSH1 0xE0 DUP12 ADD MLOAD PUSH8 0xFFFFFFFFFFFFFFFF DUP2 GT ISZERO PUSH3 0x786 JUMPI PUSH3 0x785 PUSH3 0xAFE JUMP JUMPDEST JUMPDEST PUSH3 0x794 DUP14 DUP3 DUP15 ADD PUSH3 0x5A1 JUMP JUMPDEST SWAP4 POP POP PUSH2 0x100 DUP12 ADD MLOAD PUSH8 0xFFFFFFFFFFFFFFFF DUP2 GT ISZERO PUSH3 0x7B9 JUMPI PUSH3 0x7B8 PUSH3 0xAFE JUMP JUMPDEST JUMPDEST PUSH3 0x7C7 DUP14 DUP3 DUP15 ADD PUSH3 0x5A1 JUMP JUMPDEST SWAP3 POP POP PUSH2 0x120 PUSH3 0x7DB DUP14 DUP3 DUP15 ADD PUSH3 0x557 JUMP JUMPDEST SWAP2 POP POP SWAP3 SWAP6 SWAP9 SWAP12 SWAP2 SWAP5 SWAP8 SWAP11 POP SWAP3 SWAP6 SWAP9 POP JUMP JUMPDEST PUSH1 0x0 PUSH3 0x7FA DUP3 PUSH3 0x943 JUMP JUMPDEST PUSH3 0x806 DUP2 DUP6 PUSH3 0x95F JUMP JUMPDEST SWAP4 POP PUSH3 0x818 DUP2 DUP6 PUSH1 0x20 DUP7 ADD PUSH3 0x9A8 JUMP JUMPDEST DUP1 DUP5 ADD SWAP2 POP POP SWAP3 SWAP2 POP POP JUMP JUMPDEST PUSH1 0x0 PUSH3 0x833 PUSH1 0x21 DUP4 PUSH3 0x94E JUMP JUMPDEST SWAP2 POP PUSH3 0x840 DUP3 PUSH3 0xB19 JUMP JUMPDEST PUSH1 0x40 DUP3 ADD SWAP1 POP SWAP2 SWAP1 POP JUMP JUMPDEST PUSH1 0x0 PUSH3 0x859 DUP3 DUP5 PUSH3 0x7ED JUMP JUMPDEST SWAP2 POP DUP2 SWAP1 POP SWAP3 SWAP2 POP POP JUMP JUMPDEST PUSH1 0x0 PUSH1 0x20 DUP3 ADD SWAP1 POP DUP2 DUP2 SUB PUSH1 0x0 DUP4 ADD MSTORE PUSH3 0x87F DUP2 PUSH3 0x824 JUMP JUMPDEST SWAP1 POP SWAP2 SWAP1 POP JUMP JUMPDEST PUSH1 0x0 PUSH3 0x892 PUSH3 0x8A5 JUMP JUMPDEST SWAP1 POP PUSH3 0x8A0 DUP3 DUP3 PUSH3 0x9DE JUMP JUMPDEST SWAP2 SWAP1 POP JUMP JUMPDEST PUSH1 0x0 PUSH1 0x40 MLOAD SWAP1 POP SWAP1 JUMP JUMPDEST PUSH1 0x0 PUSH8 0xFFFFFFFFFFFFFFFF DUP3 GT ISZERO PUSH3 0x8CD JUMPI PUSH3 0x8CC PUSH3 0xAC0 JUMP JUMPDEST JUMPDEST PUSH1 0x20 DUP3 MUL SWAP1 POP PUSH1 0x20 DUP2 ADD SWAP1 POP SWAP2 SWAP1 POP JUMP JUMPDEST PUSH1 0x0 PUSH8 0xFFFFFFFFFFFFFFFF DUP3 GT ISZERO PUSH3 0x8FC JUMPI PUSH3 0x8FB PUSH3 0xAC0 JUMP JUMPDEST JUMPDEST PUSH1 0x20 DUP3 MUL SWAP1 POP PUSH1 0x20 DUP2 ADD SWAP1 POP SWAP2 SWAP1 POP JUMP JUMPDEST PUSH1 0x0 PUSH8 0xFFFFFFFFFFFFFFFF DUP3 GT ISZERO PUSH3 0x92B JUMPI PUSH3 0x92A PUSH3 0xAC0 JUMP JUMPDEST JUMPDEST PUSH3 0x936 DUP3 PUSH3 0xB08 JUMP JUMPDEST SWAP1 POP PUSH1 0x20 DUP2 ADD SWAP1 POP SWAP2 SWAP1 POP JUMP JUMPDEST PUSH1 0x0 DUP2 MLOAD SWAP1 POP SWAP2 SWAP1 POP JUMP JUMPDEST PUSH1 0x0 DUP3 DUP3 MSTORE PUSH1 0x20 DUP3 ADD SWAP1 POP SWAP3 SWAP2 POP POP JUMP JUMPDEST PUSH1 0x0 DUP2 SWAP1 POP SWAP3 SWAP2 POP POP JUMP JUMPDEST PUSH1 0x0 PUSH3 0x977 DUP3 PUSH3 0x97E JUMP JUMPDEST SWAP1 POP SWAP2 SWAP1 POP JUMP JUMPDEST PUSH1 0x0 PUSH20 0xFFFFFFFFFFFFFFFFFFFFFFFFFFFFFFFFFFFFFFFF DUP3 AND SWAP1 POP SWAP2 SWAP1 POP JUMP JUMPDEST PUSH1 0x0 DUP2 SWAP1 POP SWAP2 SWAP1 POP JUMP JUMPDEST PUSH1 0x0 JUMPDEST DUP4 DUP2 LT ISZERO PUSH3 0x9C8 JUMPI DUP1 DUP3 ADD MLOAD DUP2 DUP5 ADD MSTORE PUSH1 0x20 DUP2 ADD SWAP1 POP PUSH3 0x9AB JUMP JUMPDEST DUP4 DUP2 GT ISZERO PUSH3 0x9D8 JUMPI PUSH1 0x0 DUP5 DUP5 ADD MSTORE JUMPDEST POP POP POP POP JUMP JUMPDEST PUSH3 0x9E9 DUP3 PUSH3 0xB08 JUMP JUMPDEST DUP2 ADD DUP2 DUP2 LT PUSH8 0xFFFFFFFFFFFFFFFF DUP3 GT OR ISZERO PUSH3 0xA0B JUMPI PUSH3 0xA0A PUSH3 0xAC0 JUMP JUMPDEST JUMPDEST DUP1 PUSH1 0x40 MSTORE POP POP POP JUMP JUMPDEST PUSH1 0x0 PUSH3 0xA21 DUP3 PUSH3 0x99E JUMP JUMPDEST SWAP2 POP PUSH32 0xFFFFFFFFFFFFFFFFFFFFFFFFFFFFFFFFFFFFFFFFFFFFFFFFFFFFFFFFFFFFFFFF DUP3 EQ ISZERO PUSH3 0xA57 JUMPI PUSH3 0xA56 PUSH3 0xA62 JUMP JUMPDEST JUMPDEST PUSH1 0x1 DUP3 ADD SWAP1 POP SWAP2 SWAP1 POP JUMP JUMPDEST PUSH32 0x4E487B7100000000000000000000000000000000000000000000000000000000 PUSH1 0x0 MSTORE PUSH1 0x11 PUSH1 0x4 MSTORE PUSH1 0x24 PUSH1 0x0 REVERT JUMPDEST PUSH32 0x4E487B7100000000000000000000000000000000000000000000000000000000 PUSH1 0x0 MSTORE PUSH1 0x32 PUSH1 0x4 MSTORE PUSH1 0x24 PUSH1 0x0 REVERT JUMPDEST PUSH32 0x4E487B7100000000000000000000000000000000000000000000000000000000 PUSH1 0x0 MSTORE PUSH1 0x41 PUSH1 0x4 MSTORE PUSH1 0x24 PUSH1 0x0 REVERT JUMPDEST PUSH1 0x0 DUP1 REVERT JUMPDEST PUSH1 0x0 DUP1 REVERT JUMPDEST PUSH1 0x0 DUP1 REVERT JUMPDEST PUSH1 0x0 DUP1 REVERT JUMPDEST PUSH1 0x0 DUP1 REVERT JUMPDEST PUSH1 0x0 PUSH1 0x1F NOT PUSH1 0x1F DUP4 ADD AND SWAP1 POP SWAP2 SWAP1 POP JUMP JUMPDEST PUSH32 0x5369676E6572204164647265737320636F756C64206E6F7420626520656D7074 PUSH1 0x0 DUP3 ADD MSTORE PUSH32 0x7900000000000000000000000000000000000000000000000000000000000000 PUSH1 0x20 DUP3 ADD MSTORE POP JUMP JUMPDEST PUSH3 0xB73 DUP2 PUSH3 0x96A JUMP JUMPDEST DUP2 EQ PUSH3 0xB7F JUMPI PUSH1 0x0 DUP1 REVERT JUMPDEST POP JUMP JUMPDEST PUSH3 0xB8D DUP2 PUSH3 0x99E JUMP JUMPDEST DUP2 EQ PUSH3 0xB99 JUMPI PUSH1 0x0 DUP1 REVERT JUMPDEST POP JUMP JUMPDEST PUSH2 0x2DB4 DUP1 PUSH3 0xBAC PUSH1 0x0 CODECOPY PUSH1 0x0 RETURN INVALID PUSH1 0x80 PUSH1 0x40 MSTORE CALLVALUE DUP1 ISZERO PUSH2 0x10 JUMPI PUSH1 0x0 DUP1 REVERT JUMPDEST POP PUSH1 0x4 CALLDATASIZE LT PUSH2 0x14D JUMPI PUSH1 0x0 CALLDATALOAD PUSH1 0xE0 SHR DUP1 PUSH4 0x7AA2DDC0 GT PUSH2 0xC3 JUMPI DUP1 PUSH4 0xCA7A37F8 GT PUSH2 0x7C JUMPI DUP1 PUSH4 0xCA7A37F8 EQ PUSH2 0x3D8 JUMPI DUP1 PUSH4 0xE0B0B92D EQ PUSH2 0x408 JUMPI DUP1 PUSH4 0xE8CFDE5F EQ PUSH2 0x438 JUMPI DUP1 PUSH4 0xEEE5BEAA EQ PUSH2 0x468 JUMPI DUP1 PUSH4 0xF261619A EQ PUSH2 0x486 JUMPI DUP1 PUSH4 0xF2FDE38B EQ PUSH2 0x4B6 JUMPI PUSH2 0x14D JUMP JUMPDEST DUP1 PUSH4 0x7AA2DDC0 EQ PUSH2 0x2F0 JUMPI DUP1 PUSH4 0x7DDE70D1 EQ PUSH2 0x30E JUMPI DUP1 PUSH4 0x8DA5CB5B EQ PUSH2 0x33E JUMPI DUP1 PUSH4 0x8FA2A9F0 EQ PUSH2 0x35C JUMPI DUP1 PUSH4 0x9F8DED41 EQ PUSH2 0x378 JUMPI DUP1 PUSH4 0xB7DB778C EQ PUSH2 0x3A8 JUMPI PUSH2 0x14D JUMP JUMPDEST DUP1 PUSH4 0x4BB7B136 GT PUSH2 0x115 JUMPI DUP1 PUSH4 0x4BB7B136 EQ PUSH2 0x20A JUMPI DUP1 PUSH4 0x50E232A3 EQ PUSH2 0x23A JUMPI DUP1 PUSH4 0x533D953D EQ PUSH2 0x26A JUMPI DUP1 PUSH4 0x53ABE232 EQ PUSH2 0x286 JUMPI DUP1 PUSH4 0x5B7633D0 EQ PUSH2 0x2B6 JUMPI DUP1 PUSH4 0x6A0D35D6 EQ PUSH2 0x2D4 JUMPI PUSH2 0x14D JUMP JUMPDEST DUP1 PUSH4 0x2EF512C EQ PUSH2 0x152 JUMPI DUP1 PUSH4 0x11B0CEE7 EQ PUSH2 0x182 JUMPI DUP1 PUSH4 0x226FD904 EQ PUSH2 0x1B2 JUMPI DUP1 PUSH4 0x278DE000 EQ PUSH2 0x1D0 JUMPI DUP1 PUSH4 0x4B06E803 EQ PUSH2 0x1EE JUMPI JUMPDEST PUSH1 0x0 DUP1 REVERT JUMPDEST PUSH2 0x16C PUSH1 0x4 DUP1 CALLDATASIZE SUB DUP2 ADD SWAP1 PUSH2 0x167 SWAP2 SWAP1 PUSH2 0x1DAC JUMP JUMPDEST PUSH2 0x4D2 JUMP JUMPDEST PUSH1 0x40 MLOAD PUSH2 0x179 SWAP2 SWAP1 PUSH2 0x2558 JUMP JUMPDEST PUSH1 0x40 MLOAD DUP1 SWAP2 SUB SWAP1 RETURN JUMPDEST PUSH2 0x19C PUSH1 0x4 DUP1 CALLDATASIZE SUB DUP2 ADD SWAP1 PUSH2 0x197 SWAP2 SWAP1 PUSH2 0x1E2C JUMP JUMPDEST PUSH2 0x4EA JUMP JUMPDEST PUSH1 0x40 MLOAD PUSH2 0x1A9 SWAP2 SWAP1 PUSH2 0x2358 JUMP JUMPDEST PUSH1 0x40 MLOAD DUP1 SWAP2 SUB SWAP1 RETURN JUMPDEST PUSH2 0x1BA PUSH2 0x502 JUMP JUMPDEST PUSH1 0x40 MLOAD PUSH2 0x1C7 SWAP2 SWAP1 PUSH2 0x2558 JUMP JUMPDEST PUSH1 0x40 MLOAD DUP1 SWAP2 SUB SWAP1 RETURN JUMPDEST PUSH2 0x1D8 PUSH2 0x508 JUMP JUMPDEST PUSH1 0x40 MLOAD PUSH2 0x1E5 SWAP2 SWAP1 PUSH2 0x2558 JUMP JUMPDEST PUSH1 0x40 MLOAD DUP1 SWAP2 SUB SWAP1 RETURN JUMPDEST PUSH2 0x208 PUSH1 0x4 DUP1 CALLDATASIZE SUB DUP2 ADD SWAP1 PUSH2 0x203 SWAP2 SWAP1 PUSH2 0x1CC4 JUMP JUMPDEST PUSH2 0x50E JUMP JUMPDEST STOP JUMPDEST PUSH2 0x224 PUSH1 0x4 DUP1 CALLDATASIZE SUB DUP2 ADD SWAP1 PUSH2 0x21F SWAP2 SWAP1 PUSH2 0x1DAC JUMP JUMPDEST PUSH2 0x86D JUMP JUMPDEST PUSH1 0x40 MLOAD PUSH2 0x231 SWAP2 SWAP1 PUSH2 0x2558 JUMP JUMPDEST PUSH1 0x40 MLOAD DUP1 SWAP2 SUB SWAP1 RETURN JUMPDEST PUSH2 0x254 PUSH1 0x4 DUP1 CALLDATASIZE SUB DUP2 ADD SWAP1 PUSH2 0x24F SWAP2 SWAP1 PUSH2 0x1E2C JUMP JUMPDEST PUSH2 0x885 JUMP JUMPDEST PUSH1 0x40 MLOAD PUSH2 0x261 SWAP2 SWAP1 PUSH2 0x2358 JUMP JUMPDEST PUSH1 0x40 MLOAD DUP1 SWAP2 SUB SWAP1 RETURN JUMPDEST PUSH2 0x284 PUSH1 0x4 DUP1 CALLDATASIZE SUB DUP2 ADD SWAP1 PUSH2 0x27F SWAP2 SWAP1 PUSH2 0x1B5E JUMP JUMPDEST PUSH2 0x89D JUMP JUMPDEST STOP JUMPDEST PUSH2 0x2A0 PUSH1 0x4 DUP1 CALLDATASIZE SUB DUP2 ADD SWAP1 PUSH2 0x29B SWAP2 SWAP1 PUSH2 0x1E2C JUMP JUMPDEST PUSH2 0xAB7 JUMP JUMPDEST PUSH1 0x40 MLOAD PUSH2 0x2AD SWAP2 SWAP1 PUSH2 0x2558 JUMP JUMPDEST PUSH1 0x40 MLOAD DUP1 SWAP2 SUB SWAP1 RETURN JUMPDEST PUSH2 0x2BE PUSH2 0xACF JUMP JUMPDEST PUSH1 0x40 MLOAD PUSH2 0x2CB SWAP2 SWAP1 PUSH2 0x2284 JUMP JUMPDEST PUSH1 0x40 MLOAD DUP1 SWAP2 SUB SWAP1 RETURN JUMPDEST PUSH2 0x2EE PUSH1 0x4 DUP1 CALLDATASIZE SUB DUP2 ADD SWAP1 PUSH2 0x2E9 SWAP2 SWAP1 PUSH2 0x1DD9 JUMP JUMPDEST PUSH2 0xAF5 JUMP JUMPDEST STOP JUMPDEST PUSH2 0x2F8 PUSH2 0xDCC JUMP JUMPDEST PUSH1 0x40 MLOAD PUSH2 0x305 SWAP2 SWAP1 PUSH2 0x2358 JUMP JUMPDEST PUSH1 0x40 MLOAD DUP1 SWAP2 SUB SWAP1 RETURN JUMPDEST PUSH2 0x328 PUSH1 0x4 DUP1 CALLDATASIZE SUB DUP2 ADD SWAP1 PUSH2 0x323 SWAP2 SWAP1 PUSH2 0x1DAC JUMP JUMPDEST PUSH2 0xDF0 JUMP JUMPDEST PUSH1 0x40 MLOAD PUSH2 0x335 SWAP2 SWAP1 PUSH2 0x2558 JUMP JUMPDEST PUSH1 0x40 MLOAD DUP1 SWAP2 SUB SWAP1 RETURN JUMPDEST PUSH2 0x346 PUSH2 0xE08 JUMP JUMPDEST PUSH1 0x40 MLOAD PUSH2 0x353 SWAP2 SWAP1 PUSH2 0x2284 JUMP JUMPDEST PUSH1 0x40 MLOAD DUP1 SWAP2 SUB SWAP1 RETURN JUMPDEST PUSH2 0x376 PUSH1 0x4 DUP1 CALLDATASIZE SUB DUP2 ADD SWAP1 PUSH2 0x371 SWAP2 SWAP1 PUSH2 0x1B31 JUMP JUMPDEST PUSH2 0xE31 JUMP JUMPDEST STOP JUMPDEST PUSH2 0x392 PUSH1 0x4 DUP1 CALLDATASIZE SUB DUP2 ADD SWAP1 PUSH2 0x38D SWAP2 SWAP1 PUSH2 0x1DAC JUMP JUMPDEST PUSH2 0xF61 JUMP JUMPDEST PUSH1 0x40 MLOAD PUSH2 0x39F SWAP2 SWAP1 PUSH2 0x2558 JUMP JUMPDEST PUSH1 0x40 MLOAD DUP1 SWAP2 SUB SWAP1 RETURN JUMPDEST PUSH2 0x3C2 PUSH1 0x4 DUP1 CALLDATASIZE SUB DUP2 ADD SWAP1 PUSH2 0x3BD SWAP2 SWAP1 PUSH2 0x1E2C JUMP JUMPDEST PUSH2 0xF79 JUMP JUMPDEST PUSH1 0x40 MLOAD PUSH2 0x3CF SWAP2 SWAP1 PUSH2 0x233D JUMP JUMPDEST PUSH1 0x40 MLOAD DUP1 SWAP2 SUB SWAP1 RETURN JUMPDEST PUSH2 0x3F2 PUSH1 0x4 DUP1 CALLDATASIZE SUB DUP2 ADD SWAP1 PUSH2 0x3ED SWAP2 SWAP1 PUSH2 0x1E2C JUMP JUMPDEST PUSH2 0xF99 JUMP JUMPDEST PUSH1 0x40 MLOAD PUSH2 0x3FF SWAP2 SWAP1 PUSH2 0x2284 JUMP JUMPDEST PUSH1 0x40 MLOAD DUP1 SWAP2 SUB SWAP1 RETURN JUMPDEST PUSH2 0x422 PUSH1 0x4 DUP1 CALLDATASIZE SUB DUP2 ADD SWAP1 PUSH2 0x41D SWAP2 SWAP1 PUSH2 0x1DAC JUMP JUMPDEST PUSH2 0xFCC JUMP JUMPDEST PUSH1 0x40 MLOAD PUSH2 0x42F SWAP2 SWAP1 PUSH2 0x2558 JUMP JUMPDEST PUSH1 0x40 MLOAD DUP1 SWAP2 SUB SWAP1 RETURN JUMPDEST PUSH2 0x452 PUSH1 0x4 DUP1 CALLDATASIZE SUB DUP2 ADD SWAP1 PUSH2 0x44D SWAP2 SWAP1 PUSH2 0x1DAC JUMP JUMPDEST PUSH2 0xFE4 JUMP JUMPDEST PUSH1 0x40 MLOAD PUSH2 0x45F SWAP2 SWAP1 PUSH2 0x2558 JUMP JUMPDEST PUSH1 0x40 MLOAD DUP1 SWAP2 SUB SWAP1 RETURN JUMPDEST PUSH2 0x470 PUSH2 0xFFC JUMP JUMPDEST PUSH1 0x40 MLOAD PUSH2 0x47D SWAP2 SWAP1 PUSH2 0x2358 JUMP JUMPDEST PUSH1 0x40 MLOAD DUP1 SWAP2 SUB SWAP1 RETURN JUMPDEST PUSH2 0x4A0 PUSH1 0x4 DUP1 CALLDATASIZE SUB DUP2 ADD SWAP1 PUSH2 0x49B SWAP2 SWAP1 PUSH2 0x1DAC JUMP JUMPDEST PUSH2 0x1020 JUMP JUMPDEST PUSH1 0x40 MLOAD PUSH2 0x4AD SWAP2 SWAP1 PUSH2 0x2558 JUMP JUMPDEST PUSH1 0x40 MLOAD DUP1 SWAP2 SUB SWAP1 RETURN JUMPDEST PUSH2 0x4D0 PUSH1 0x4 DUP1 CALLDATASIZE SUB DUP2 ADD SWAP1 PUSH2 0x4CB SWAP2 SWAP1 PUSH2 0x1B31 JUMP JUMPDEST PUSH2 0x1038 JUMP JUMPDEST STOP JUMPDEST PUSH1 0x7 PUSH1 0x20 MSTORE DUP1 PUSH1 0x0 MSTORE PUSH1 0x40 PUSH1 0x0 KECCAK256 PUSH1 0x0 SWAP2 POP SWAP1 POP SLOAD DUP2 JUMP JUMPDEST PUSH1 0xC PUSH1 0x20 MSTORE DUP1 PUSH1 0x0 MSTORE PUSH1 0x40 PUSH1 0x0 KECCAK256 PUSH1 0x0 SWAP2 POP SWAP1 POP SLOAD DUP2 JUMP JUMPDEST PUSH1 0x1 SLOAD DUP2 JUMP JUMPDEST PUSH1 0x2 SLOAD DUP2 JUMP JUMPDEST DUP3 MLOAD DUP5 MLOAD EQ DUP1 ISZERO PUSH2 0x520 JUMPI POP DUP2 MLOAD DUP4 MLOAD EQ JUMPDEST PUSH2 0x55F JUMPI PUSH1 0x40 MLOAD PUSH32 0x8C379A000000000000000000000000000000000000000000000000000000000 DUP2 MSTORE PUSH1 0x4 ADD PUSH2 0x556 SWAP1 PUSH2 0x23B8 JUMP JUMPDEST PUSH1 0x40 MLOAD DUP1 SWAP2 SUB SWAP1 REVERT JUMPDEST PUSH1 0x0 DUP2 PUSH2 0x58F JUMPI PUSH32 0xBE2CCFE29593BAF3C1F9DD7EFF5442E53B447007014B036622CAB0F830EBFEEC SWAP1 POP DUP1 PUSH2 0x5B4 JUMP JUMPDEST PUSH32 0x85F6017C7F3635F3E21F932BFCEC61F314CED22845F0E0E3813BDC644B86D415 SWAP1 POP DUP1 JUMPDEST POP PUSH1 0x0 JUMPDEST DUP6 MLOAD DUP2 LT ISZERO PUSH2 0x7D6 JUMPI PUSH2 0x61C CALLER DUP8 DUP4 DUP2 MLOAD DUP2 LT PUSH2 0x5D8 JUMPI PUSH2 0x5D7 PUSH2 0x296B JUMP JUMPDEST JUMPDEST PUSH1 0x20 MUL PUSH1 0x20 ADD ADD MLOAD DUP5 DUP9 DUP6 DUP2 MLOAD DUP2 LT PUSH2 0x5F4 JUMPI PUSH2 0x5F3 PUSH2 0x296B JUMP JUMPDEST JUMPDEST PUSH1 0x20 MUL PUSH1 0x20 ADD ADD MLOAD DUP9 DUP7 DUP2 MLOAD DUP2 LT PUSH2 0x60F JUMPI PUSH2 0x60E PUSH2 0x296B JUMP JUMPDEST JUMPDEST PUSH1 0x20 MUL PUSH1 0x20 ADD ADD MLOAD PUSH2 0x11E1 JUMP JUMPDEST PUSH1 0x1 PUSH1 0xE PUSH1 0x0 DUP9 DUP5 DUP2 MLOAD DUP2 LT PUSH2 0x635 JUMPI PUSH2 0x634 PUSH2 0x296B JUMP JUMPDEST JUMPDEST PUSH1 0x20 MUL PUSH1 0x20 ADD ADD MLOAD DUP2 MSTORE PUSH1 0x20 ADD SWAP1 DUP2 MSTORE PUSH1 0x20 ADD PUSH1 0x0 KECCAK256 PUSH1 0x0 PUSH2 0x100 EXP DUP2 SLOAD DUP2 PUSH1 0xFF MUL NOT AND SWAP1 DUP4 ISZERO ISZERO MUL OR SWAP1 SSTORE POP PUSH1 0x1 PUSH1 0xF DUP6 DUP4 DUP2 MLOAD DUP2 LT PUSH2 0x679 JUMPI PUSH2 0x678 PUSH2 0x296B JUMP JUMPDEST JUMPDEST PUSH1 0x20 MUL PUSH1 0x20 ADD ADD MLOAD PUSH1 0x40 MLOAD PUSH2 0x68E SWAP2 SWAP1 PUSH2 0x2230 JUMP JUMPDEST SWAP1 DUP2 MSTORE PUSH1 0x20 ADD PUSH1 0x40 MLOAD DUP1 SWAP2 SUB SWAP1 KECCAK256 PUSH1 0x0 PUSH2 0x100 EXP DUP2 SLOAD DUP2 PUSH1 0xFF MUL NOT AND SWAP1 DUP4 ISZERO ISZERO MUL OR SWAP1 SSTORE POP DUP3 ISZERO PUSH2 0x740 JUMPI PUSH32 0x91EDB6A80ED361634644A0FB53FDAB770F8CC92FF141C42CD3BED1B4CB1FA839 CALLER PUSH1 0xC PUSH1 0x0 DUP10 DUP6 DUP2 MLOAD DUP2 LT PUSH2 0x6F2 JUMPI PUSH2 0x6F1 PUSH2 0x296B JUMP JUMPDEST JUMPDEST PUSH1 0x20 MUL PUSH1 0x20 ADD ADD MLOAD DUP2 MSTORE PUSH1 0x20 ADD SWAP1 DUP2 MSTORE PUSH1 0x20 ADD PUSH1 0x0 KECCAK256 SLOAD DUP9 DUP5 DUP2 MLOAD DUP2 LT PUSH2 0x71C JUMPI PUSH2 0x71B PUSH2 0x296B JUMP JUMPDEST JUMPDEST PUSH1 0x20 MUL PUSH1 0x20 ADD ADD MLOAD PUSH1 0x40 MLOAD PUSH2 0x733 SWAP4 SWAP3 SWAP2 SWAP1 PUSH2 0x2306 JUMP JUMPDEST PUSH1 0x40 MLOAD DUP1 SWAP2 SUB SWAP1 LOG1 PUSH2 0x7C3 JUMP JUMPDEST PUSH32 0xF450FDE163B563062EB7A92E0560F32610721E68970D97A1338B45821042553F CALLER PUSH1 0xC PUSH1 0x0 DUP10 DUP6 DUP2 MLOAD DUP2 LT PUSH2 0x779 JUMPI PUSH2 0x778 PUSH2 0x296B JUMP JUMPDEST JUMPDEST PUSH1 0x20 MUL PUSH1 0x20 ADD ADD MLOAD DUP2 MSTORE PUSH1 0x20 ADD SWAP1 DUP2 MSTORE PUSH1 0x20 ADD PUSH1 0x0 KECCAK256 SLOAD DUP9 DUP5 DUP2 MLOAD DUP2 LT PUSH2 0x7A3 JUMPI PUSH2 0x7A2 PUSH2 0x296B JUMP JUMPDEST JUMPDEST PUSH1 0x20 MUL PUSH1 0x20 ADD ADD MLOAD PUSH1 0x40 MLOAD PUSH2 0x7BA SWAP4 SWAP3 SWAP2 SWAP1 PUSH2 0x2306 JUMP JUMPDEST PUSH1 0x40 MLOAD DUP1 SWAP2 SUB SWAP1 LOG1 JUMPDEST DUP1 DUP1 PUSH2 0x7CE SWAP1 PUSH2 0x28BB JUMP JUMPDEST SWAP2 POP POP PUSH2 0x5B8 JUMP JUMPDEST POP PUSH1 0x12 PUSH1 0x0 SWAP1 SLOAD SWAP1 PUSH2 0x100 EXP SWAP1 DIV PUSH20 0xFFFFFFFFFFFFFFFFFFFFFFFFFFFFFFFFFFFFFFFF AND PUSH20 0xFFFFFFFFFFFFFFFFFFFFFFFFFFFFFFFFFFFFFFFF AND PUSH4 0xED0E31DE CALLER DUP7 PUSH1 0x40 MLOAD DUP4 PUSH4 0xFFFFFFFF AND PUSH1 0xE0 SHL DUP2 MSTORE PUSH1 0x4 ADD PUSH2 0x834 SWAP3 SWAP2 SWAP1 PUSH2 0x22D6 JUMP JUMPDEST PUSH1 0x0 PUSH1 0x40 MLOAD DUP1 DUP4 SUB DUP2 PUSH1 0x0 DUP8 DUP1 EXTCODESIZE ISZERO DUP1 ISZERO PUSH2 0x84E JUMPI PUSH1 0x0 DUP1 REVERT JUMPDEST POP GAS CALL ISZERO DUP1 ISZERO PUSH2 0x862 JUMPI RETURNDATASIZE PUSH1 0x0 DUP1 RETURNDATACOPY RETURNDATASIZE PUSH1 0x0 REVERT JUMPDEST POP POP POP POP POP POP POP POP POP JUMP JUMPDEST PUSH1 0x9 PUSH1 0x20 MSTORE DUP1 PUSH1 0x0 MSTORE PUSH1 0x40 PUSH1 0x0 KECCAK256 PUSH1 0x0 SWAP2 POP SWAP1 POP SLOAD DUP2 JUMP JUMPDEST PUSH1 0xD PUSH1 0x20 MSTORE DUP1 PUSH1 0x0 MSTORE PUSH1 0x40 PUSH1 0x0 KECCAK256 PUSH1 0x0 SWAP2 POP SWAP1 POP SLOAD DUP2 JUMP JUMPDEST PUSH2 0x8A5 PUSH2 0x14AA JUMP JUMPDEST PUSH20 0xFFFFFFFFFFFFFFFFFFFFFFFFFFFFFFFFFFFFFFFF AND PUSH2 0x8C3 PUSH2 0xE08 JUMP JUMPDEST PUSH20 0xFFFFFFFFFFFFFFFFFFFFFFFFFFFFFFFFFFFFFFFF AND EQ PUSH2 0x919 JUMPI PUSH1 0x40 MLOAD PUSH32 0x8C379A000000000000000000000000000000000000000000000000000000000 DUP2 MSTORE PUSH1 0x4 ADD PUSH2 0x910 SWAP1 PUSH2 0x24D8 JUMP JUMPDEST PUSH1 0x40 MLOAD DUP1 SWAP2 SUB SWAP1 REVERT JUMPDEST PUSH1 0x0 DUP1 PUSH1 0x0 SWAP1 POP JUMPDEST DUP9 MLOAD DUP2 LT ISZERO PUSH2 0xAAC JUMPI DUP9 DUP2 DUP2 MLOAD DUP2 LT PUSH2 0x93D JUMPI PUSH2 0x93C PUSH2 0x296B JUMP JUMPDEST JUMPDEST PUSH1 0x20 MUL PUSH1 0x20 ADD ADD MLOAD PUSH1 0x40 MLOAD PUSH1 0x20 ADD PUSH2 0x955 SWAP2 SWAP1 PUSH2 0x2247 JUMP JUMPDEST PUSH1 0x40 MLOAD PUSH1 0x20 DUP2 DUP4 SUB SUB DUP2 MSTORE SWAP1 PUSH1 0x40 MSTORE DUP1 MLOAD SWAP1 PUSH1 0x20 ADD KECCAK256 SWAP2 POP DUP8 DUP2 DUP2 MLOAD DUP2 LT PUSH2 0x980 JUMPI PUSH2 0x97F PUSH2 0x296B JUMP JUMPDEST JUMPDEST PUSH1 0x20 MUL PUSH1 0x20 ADD ADD MLOAD PUSH1 0x3 PUSH1 0x0 DUP5 DUP2 MSTORE PUSH1 0x20 ADD SWAP1 DUP2 MSTORE PUSH1 0x20 ADD PUSH1 0x0 KECCAK256 DUP2 SWAP1 SSTORE POP DUP7 DUP2 DUP2 MLOAD DUP2 LT PUSH2 0x9B2 JUMPI PUSH2 0x9B1 PUSH2 0x296B JUMP JUMPDEST JUMPDEST PUSH1 0x20 MUL PUSH1 0x20 ADD ADD MLOAD PUSH1 0x4 PUSH1 0x0 DUP5 DUP2 MSTORE PUSH1 0x20 ADD SWAP1 DUP2 MSTORE PUSH1 0x20 ADD PUSH1 0x0 KECCAK256 DUP2 SWAP1 SSTORE POP DUP6 DUP2 DUP2 MLOAD DUP2 LT PUSH2 0x9E4 JUMPI PUSH2 0x9E3 PUSH2 0x296B JUMP JUMPDEST JUMPDEST PUSH1 0x20 MUL PUSH1 0x20 ADD ADD MLOAD PUSH1 0x8 PUSH1 0x0 DUP5 DUP2 MSTORE PUSH1 0x20 ADD SWAP1 DUP2 MSTORE PUSH1 0x20 ADD PUSH1 0x0 KECCAK256 DUP2 SWAP1 SSTORE POP DUP5 DUP2 DUP2 MLOAD DUP2 LT PUSH2 0xA16 JUMPI PUSH2 0xA15 PUSH2 0x296B JUMP JUMPDEST JUMPDEST PUSH1 0x20 MUL PUSH1 0x20 ADD ADD MLOAD PUSH1 0x9 PUSH1 0x0 DUP5 DUP2 MSTORE PUSH1 0x20 ADD SWAP1 DUP2 MSTORE PUSH1 0x20 ADD PUSH1 0x0 KECCAK256 DUP2 SWAP1 SSTORE POP DUP4 DUP2 DUP2 MLOAD DUP2 LT PUSH2 0xA48 JUMPI PUSH2 0xA47 PUSH2 0x296B JUMP JUMPDEST JUMPDEST PUSH1 0x20 MUL PUSH1 0x20 ADD ADD MLOAD PUSH1 0x6 PUSH1 0x0 DUP5 DUP2 MSTORE PUSH1 0x20 ADD SWAP1 DUP2 MSTORE PUSH1 0x20 ADD PUSH1 0x0 KECCAK256 DUP2 SWAP1 SSTORE POP DUP3 DUP2 DUP2 MLOAD DUP2 LT PUSH2 0xA7A JUMPI PUSH2 0xA79 PUSH2 0x296B JUMP JUMPDEST JUMPDEST PUSH1 0x20 MUL PUSH1 0x20 ADD ADD MLOAD PUSH1 0x7 PUSH1 0x0 DUP5 DUP2 MSTORE PUSH1 0x20 ADD SWAP1 DUP2 MSTORE PUSH1 0x20 ADD PUSH1 0x0 KECCAK256 DUP2 SWAP1 SSTORE POP DUP1 DUP1 PUSH2 0xAA4 SWAP1 PUSH2 0x28BB JUMP JUMPDEST SWAP2 POP POP PUSH2 0x921 JUMP JUMPDEST POP POP POP POP POP POP POP POP POP JUMP JUMPDEST PUSH1 0xB PUSH1 0x20 MSTORE DUP1 PUSH1 0x0 MSTORE PUSH1 0x40 PUSH1 0x0 KECCAK256 PUSH1 0x0 SWAP2 POP SWAP1 POP SLOAD DUP2 JUMP JUMPDEST PUSH1 0x10 PUSH1 0x0 SWAP1 SLOAD SWAP1 PUSH2 0x100 EXP SWAP1 DIV PUSH20 0xFFFFFFFFFFFFFFFFFFFFFFFFFFFFFFFFFFFFFFFF AND DUP2 JUMP JUMPDEST PUSH2 0xB00 DUP4 DUP4 DUP4 PUSH2 0x14B2 JUMP JUMPDEST PUSH1 0x0 DUP2 PUSH2 0xB30 JUMPI PUSH32 0xBE2CCFE29593BAF3C1F9DD7EFF5442E53B447007014B036622CAB0F830EBFEEC SWAP1 POP DUP1 PUSH2 0xB55 JUMP JUMPDEST PUSH32 0x85F6017C7F3635F3E21F932BFCEC61F314CED22845F0E0E3813BDC644B86D415 SWAP1 POP DUP1 JUMPDEST POP PUSH1 0x0 JUMPDEST DUP4 DUP2 LT ISZERO PUSH2 0xCB7 JUMPI PUSH1 0x0 PUSH2 0xB6B PUSH2 0x15B4 JUMP JUMPDEST SWAP1 POP TIMESTAMP PUSH1 0xB PUSH1 0x0 DUP4 DUP2 MSTORE PUSH1 0x20 ADD SWAP1 DUP2 MSTORE PUSH1 0x20 ADD PUSH1 0x0 KECCAK256 DUP2 SWAP1 SSTORE POP CALLER PUSH1 0xA PUSH1 0x0 DUP4 DUP2 MSTORE PUSH1 0x20 ADD SWAP1 DUP2 MSTORE PUSH1 0x20 ADD PUSH1 0x0 KECCAK256 PUSH1 0x0 PUSH2 0x100 EXP DUP2 SLOAD DUP2 PUSH20 0xFFFFFFFFFFFFFFFFFFFFFFFFFFFFFFFFFFFFFFFF MUL NOT AND SWAP1 DUP4 PUSH20 0xFFFFFFFFFFFFFFFFFFFFFFFFFFFFFFFFFFFFFFFF AND MUL OR SWAP1 SSTORE POP DUP6 PUSH1 0xC PUSH1 0x0 DUP4 DUP2 MSTORE PUSH1 0x20 ADD SWAP1 DUP2 MSTORE PUSH1 0x20 ADD PUSH1 0x0 KECCAK256 DUP2 SWAP1 SSTORE POP DUP3 PUSH1 0xD PUSH1 0x0 DUP4 DUP2 MSTORE PUSH1 0x20 ADD SWAP1 DUP2 MSTORE PUSH1 0x20 ADD PUSH1 0x0 KECCAK256 DUP2 SWAP1 SSTORE POP PUSH2 0xC0F PUSH2 0x15BE JUMP JUMPDEST DUP4 ISZERO PUSH2 0xC5E JUMPI PUSH2 0xC1E DUP7 PUSH2 0x15DA JUMP JUMPDEST PUSH32 0x7C28F056E92CC6CFDC4AD70FDB5AED119371F9D8DAE92615D30188FA3662B70A CALLER DUP8 DUP4 PUSH1 0x40 MLOAD PUSH2 0xC51 SWAP4 SWAP3 SWAP2 SWAP1 PUSH2 0x2306 JUMP JUMPDEST PUSH1 0x40 MLOAD DUP1 SWAP2 SUB SWAP1 LOG1 PUSH2 0xCA3 JUMP JUMPDEST PUSH2 0xC67 DUP7 PUSH2 0x1608 JUMP JUMPDEST PUSH32 0x95B55DE57397263725854BDBEDA07824086698230D85F38DC061160E34512085 CALLER DUP8 DUP4 PUSH1 0x40 MLOAD PUSH2 0xC9A SWAP4 SWAP3 SWAP2 SWAP1 PUSH2 0x2306 JUMP JUMPDEST PUSH1 0x40 MLOAD DUP1 SWAP2 SUB SWAP1 LOG1 JUMPDEST POP DUP1 DUP1 PUSH2 0xCAF SWAP1 PUSH2 0x28BB JUMP JUMPDEST SWAP2 POP POP PUSH2 0xB59 JUMP JUMPDEST POP PUSH1 0x11 PUSH1 0x0 SWAP1 SLOAD SWAP1 PUSH2 0x100 EXP SWAP1 DIV PUSH20 0xFFFFFFFFFFFFFFFFFFFFFFFFFFFFFFFFFFFFFFFF AND PUSH20 0xFFFFFFFFFFFFFFFFFFFFFFFFFFFFFFFFFFFFFFFF AND PUSH4 0x23B872DD CALLER ADDRESS PUSH1 0x6 PUSH1 0x0 DUP10 DUP2 MSTORE PUSH1 0x20 ADD SWAP1 DUP2 MSTORE PUSH1 0x20 ADD PUSH1 0x0 KECCAK256 SLOAD DUP8 PUSH2 0xD17 SWAP2 SWAP1 PUSH2 0x275B JUMP JUMPDEST PUSH1 0x40 MLOAD DUP5 PUSH4 0xFFFFFFFF AND PUSH1 0xE0 SHL DUP2 MSTORE PUSH1 0x4 ADD PUSH2 0xD35 SWAP4 SWAP3 SWAP2 SWAP1 PUSH2 0x229F JUMP JUMPDEST PUSH1 0x20 PUSH1 0x40 MLOAD DUP1 DUP4 SUB DUP2 PUSH1 0x0 DUP8 DUP1 EXTCODESIZE ISZERO DUP1 ISZERO PUSH2 0xD4F JUMPI PUSH1 0x0 DUP1 REVERT JUMPDEST POP GAS CALL ISZERO DUP1 ISZERO PUSH2 0xD63 JUMPI RETURNDATASIZE PUSH1 0x0 DUP1 RETURNDATACOPY RETURNDATASIZE PUSH1 0x0 REVERT JUMPDEST POP POP POP POP PUSH1 0x40 MLOAD RETURNDATASIZE PUSH1 0x1F NOT PUSH1 0x1F DUP3 ADD AND DUP3 ADD DUP1 PUSH1 0x40 MSTORE POP DUP2 ADD SWAP1 PUSH2 0xD87 SWAP2 SWAP1 PUSH2 0x1D7F JUMP JUMPDEST PUSH2 0xDC6 JUMPI PUSH1 0x40 MLOAD PUSH32 0x8C379A000000000000000000000000000000000000000000000000000000000 DUP2 MSTORE PUSH1 0x4 ADD PUSH2 0xDBD SWAP1 PUSH2 0x2498 JUMP JUMPDEST PUSH1 0x40 MLOAD DUP1 SWAP2 SUB SWAP1 REVERT JUMPDEST POP POP POP POP JUMP JUMPDEST PUSH32 0x85F6017C7F3635F3E21F932BFCEC61F314CED22845F0E0E3813BDC644B86D415 DUP2 JUMP JUMPDEST PUSH1 0x4 PUSH1 0x20 MSTORE DUP1 PUSH1 0x0 MSTORE PUSH1 0x40 PUSH1 0x0 KECCAK256 PUSH1 0x0 SWAP2 POP SWAP1 POP SLOAD DUP2 JUMP JUMPDEST PUSH1 0x0 DUP1 PUSH1 0x0 SWAP1 SLOAD SWAP1 PUSH2 0x100 EXP SWAP1 DIV PUSH20 0xFFFFFFFFFFFFFFFFFFFFFFFFFFFFFFFFFFFFFFFF AND SWAP1 POP SWAP1 JUMP JUMPDEST PUSH2 0xE39 PUSH2 0x14AA JUMP JUMPDEST PUSH20 0xFFFFFFFFFFFFFFFFFFFFFFFFFFFFFFFFFFFFFFFF AND PUSH2 0xE57 PUSH2 0xE08 JUMP JUMPDEST PUSH20 0xFFFFFFFFFFFFFFFFFFFFFFFFFFFFFFFFFFFFFFFF AND EQ PUSH2 0xEAD JUMPI PUSH1 0x40 MLOAD PUSH32 0x8C379A000000000000000000000000000000000000000000000000000000000 DUP2 MSTORE PUSH1 0x4 ADD PUSH2 0xEA4 SWAP1 PUSH2 0x24D8 JUMP JUMPDEST PUSH1 0x40 MLOAD DUP1 SWAP2 SUB SWAP1 REVERT JUMPDEST PUSH1 0x0 PUSH20 0xFFFFFFFFFFFFFFFFFFFFFFFFFFFFFFFFFFFFFFFF AND DUP2 PUSH20 0xFFFFFFFFFFFFFFFFFFFFFFFFFFFFFFFFFFFFFFFF AND EQ ISZERO PUSH2 0xF1D JUMPI PUSH1 0x40 MLOAD PUSH32 0x8C379A000000000000000000000000000000000000000000000000000000000 DUP2 MSTORE PUSH1 0x4 ADD PUSH2 0xF14 SWAP1 PUSH2 0x24F8 JUMP JUMPDEST PUSH1 0x40 MLOAD DUP1 SWAP2 SUB SWAP1 REVERT JUMPDEST DUP1 PUSH1 0x10 PUSH1 0x0 PUSH2 0x100 EXP DUP2 SLOAD DUP2 PUSH20 0xFFFFFFFFFFFFFFFFFFFFFFFFFFFFFFFFFFFFFFFF MUL NOT AND SWAP1 DUP4 PUSH20 0xFFFFFFFFFFFFFFFFFFFFFFFFFFFFFFFFFFFFFFFF AND MUL OR SWAP1 SSTORE POP POP JUMP JUMPDEST PUSH1 0x3 PUSH1 0x20 MSTORE DUP1 PUSH1 0x0 MSTORE PUSH1 0x40 PUSH1 0x0 KECCAK256 PUSH1 0x0 SWAP2 POP SWAP1 POP SLOAD DUP2 JUMP JUMPDEST PUSH1 0xE PUSH1 0x20 MSTORE DUP1 PUSH1 0x0 MSTORE PUSH1 0x40 PUSH1 0x0 KECCAK256 PUSH1 0x0 SWAP2 POP SLOAD SWAP1 PUSH2 0x100 EXP SWAP1 DIV PUSH1 0xFF AND DUP2 JUMP JUMPDEST PUSH1 0xA PUSH1 0x20 MSTORE DUP1 PUSH1 0x0 MSTORE PUSH1 0x40 PUSH1 0x0 KECCAK256 PUSH1 0x0 SWAP2 POP SLOAD SWAP1 PUSH2 0x100 EXP SWAP1 DIV PUSH20 0xFFFFFFFFFFFFFFFFFFFFFFFFFFFFFFFFFFFFFFFF AND DUP2 JUMP JUMPDEST PUSH1 0x5 PUSH1 0x20 MSTORE DUP1 PUSH1 0x0 MSTORE PUSH1 0x40 PUSH1 0x0 KECCAK256 PUSH1 0x0 SWAP2 POP SWAP1 POP SLOAD DUP2 JUMP JUMPDEST PUSH1 0x8 PUSH1 0x20 MSTORE DUP1 PUSH1 0x0 MSTORE PUSH1 0x40 PUSH1 0x0 KECCAK256 PUSH1 0x0 SWAP2 POP SWAP1 POP SLOAD DUP2 JUMP JUMPDEST PUSH32 0xBE2CCFE29593BAF3C1F9DD7EFF5442E53B447007014B036622CAB0F830EBFEEC DUP2 JUMP JUMPDEST PUSH1 0x6 PUSH1 0x20 MSTORE DUP1 PUSH1 0x0 MSTORE PUSH1 0x40 PUSH1 0x0 KECCAK256 PUSH1 0x0 SWAP2 POP SWAP1 POP SLOAD DUP2 JUMP JUMPDEST PUSH2 0x1040 PUSH2 0x14AA JUMP JUMPDEST PUSH20 0xFFFFFFFFFFFFFFFFFFFFFFFFFFFFFFFFFFFFFFFF AND PUSH2 0x105E PUSH2 0xE08 JUMP JUMPDEST PUSH20 0xFFFFFFFFFFFFFFFFFFFFFFFFFFFFFFFFFFFFFFFF AND EQ PUSH2 0x10B4 JUMPI PUSH1 0x40 MLOAD PUSH32 0x8C379A000000000000000000000000000000000000000000000000000000000 DUP2 MSTORE PUSH1 0x4 ADD PUSH2 0x10AB SWAP1 PUSH2 0x24D8 JUMP JUMPDEST PUSH1 0x40 MLOAD DUP1 SWAP2 SUB SWAP1 REVERT JUMPDEST PUSH1 0x0 PUSH20 0xFFFFFFFFFFFFFFFFFFFFFFFFFFFFFFFFFFFFFFFF AND DUP2 PUSH20 0xFFFFFFFFFFFFFFFFFFFFFFFFFFFFFFFFFFFFFFFF AND EQ ISZERO PUSH2 0x1124 JUMPI PUSH1 0x40 MLOAD PUSH32 0x8C379A000000000000000000000000000000000000000000000000000000000 DUP2 MSTORE PUSH1 0x4 ADD PUSH2 0x111B SWAP1 PUSH2 0x2418 JUMP JUMPDEST PUSH1 0x40 MLOAD DUP1 SWAP2 SUB SWAP1 REVERT JUMPDEST DUP1 PUSH20 0xFFFFFFFFFFFFFFFFFFFFFFFFFFFFFFFFFFFFFFFF AND PUSH1 0x0 DUP1 SLOAD SWAP1 PUSH2 0x100 EXP SWAP1 DIV PUSH20 0xFFFFFFFFFFFFFFFFFFFFFFFFFFFFFFFFFFFFFFFF AND PUSH20 0xFFFFFFFFFFFFFFFFFFFFFFFFFFFFFFFFFFFFFFFF AND PUSH32 0x8BE0079C531659141344CD1FD0A4F28419497F9722A3DAAFE3B4186F6B6457E0 PUSH1 0x40 MLOAD PUSH1 0x40 MLOAD DUP1 SWAP2 SUB SWAP1 LOG3 DUP1 PUSH1 0x0 DUP1 PUSH2 0x100 EXP DUP2 SLOAD DUP2 PUSH20 0xFFFFFFFFFFFFFFFFFFFFFFFFFFFFFFFFFFFFFFFF MUL NOT AND SWAP1 DUP4 PUSH20 0xFFFFFFFFFFFFFFFFFFFFFFFFFFFFFFFFFFFFFFFF AND MUL OR SWAP1 SSTORE POP POP JUMP JUMPDEST DUP5 PUSH20 0xFFFFFFFFFFFFFFFFFFFFFFFFFFFFFFFFFFFFFFFF AND PUSH1 0xA PUSH1 0x0 DUP7 DUP2 MSTORE PUSH1 0x20 ADD SWAP1 DUP2 MSTORE PUSH1 0x20 ADD PUSH1 0x0 KECCAK256 PUSH1 0x0 SWAP1 SLOAD SWAP1 PUSH2 0x100 EXP SWAP1 DIV PUSH20 0xFFFFFFFFFFFFFFFFFFFFFFFFFFFFFFFFFFFFFFFF AND PUSH20 0xFFFFFFFFFFFFFFFFFFFFFFFFFFFFFFFFFFFFFFFF AND EQ PUSH2 0x1282 JUMPI PUSH1 0x40 MLOAD PUSH32 0x8C379A000000000000000000000000000000000000000000000000000000000 DUP2 MSTORE PUSH1 0x4 ADD PUSH2 0x1279 SWAP1 PUSH2 0x2538 JUMP JUMPDEST PUSH1 0x40 MLOAD DUP1 SWAP2 SUB SWAP1 REVERT JUMPDEST DUP3 PUSH1 0xD PUSH1 0x0 DUP7 DUP2 MSTORE PUSH1 0x20 ADD SWAP1 DUP2 MSTORE PUSH1 0x20 ADD PUSH1 0x0 KECCAK256 SLOAD EQ PUSH2 0x12D7 JUMPI PUSH1 0x40 MLOAD PUSH32 0x8C379A000000000000000000000000000000000000000000000000000000000 DUP2 MSTORE PUSH1 0x4 ADD PUSH2 0x12CE SWAP1 PUSH2 0x24B8 JUMP JUMPDEST PUSH1 0x40 MLOAD DUP1 SWAP2 SUB SWAP1 REVERT JUMPDEST PUSH1 0xF DUP2 PUSH1 0x40 MLOAD PUSH2 0x12E7 SWAP2 SWAP1 PUSH2 0x2230 JUMP JUMPDEST SWAP1 DUP2 MSTORE PUSH1 0x20 ADD PUSH1 0x40 MLOAD DUP1 SWAP2 SUB SWAP1 KECCAK256 PUSH1 0x0 SWAP1 SLOAD SWAP1 PUSH2 0x100 EXP SWAP1 DIV PUSH1 0xFF AND ISZERO PUSH2 0x1343 JUMPI PUSH1 0x40 MLOAD PUSH32 0x8C379A000000000000000000000000000000000000000000000000000000000 DUP2 MSTORE PUSH1 0x4 ADD PUSH2 0x133A SWAP1 PUSH2 0x2438 JUMP JUMPDEST PUSH1 0x40 MLOAD DUP1 SWAP2 SUB SWAP1 REVERT JUMPDEST PUSH1 0x0 PUSH1 0xB PUSH1 0x0 DUP7 DUP2 MSTORE PUSH1 0x20 ADD SWAP1 DUP2 MSTORE PUSH1 0x20 ADD PUSH1 0x0 KECCAK256 SLOAD TIMESTAMP PUSH2 0x1364 SWAP2 SWAP1 PUSH2 0x27B5 JUMP JUMPDEST SWAP1 POP PUSH1 0x0 PUSH1 0xC PUSH1 0x0 DUP8 DUP2 MSTORE PUSH1 0x20 ADD SWAP1 DUP2 MSTORE PUSH1 0x20 ADD PUSH1 0x0 KECCAK256 SLOAD SWAP1 POP PUSH32 0x85F6017C7F3635F3E21F932BFCEC61F314CED22845F0E0E3813BDC644B86D415 DUP6 EQ ISZERO PUSH2 0x1400 JUMPI PUSH1 0x8 PUSH1 0x0 DUP3 DUP2 MSTORE PUSH1 0x20 ADD SWAP1 DUP2 MSTORE PUSH1 0x20 ADD PUSH1 0x0 KECCAK256 SLOAD DUP3 GT PUSH2 0x13FB JUMPI PUSH1 0x40 MLOAD PUSH32 0x8C379A000000000000000000000000000000000000000000000000000000000 DUP2 MSTORE PUSH1 0x4 ADD PUSH2 0x13F2 SWAP1 PUSH2 0x23F8 JUMP JUMPDEST PUSH1 0x40 MLOAD DUP1 SWAP2 SUB SWAP1 REVERT JUMPDEST PUSH2 0x1456 JUMP JUMPDEST PUSH1 0x9 PUSH1 0x0 DUP3 DUP2 MSTORE PUSH1 0x20 ADD SWAP1 DUP2 MSTORE PUSH1 0x20 ADD PUSH1 0x0 KECCAK256 SLOAD DUP3 GT PUSH2 0x1455 JUMPI PUSH1 0x40 MLOAD PUSH32 0x8C379A000000000000000000000000000000000000000000000000000000000 DUP2 MSTORE PUSH1 0x4 ADD PUSH2 0x144C SWAP1 PUSH2 0x23F8 JUMP JUMPDEST PUSH1 0x40 MLOAD DUP1 SWAP2 SUB SWAP1 REVERT JUMPDEST JUMPDEST PUSH2 0x1462 DUP8 DUP8 DUP7 DUP7 PUSH2 0x1636 JUMP JUMPDEST PUSH2 0x14A1 JUMPI PUSH1 0x40 MLOAD PUSH32 0x8C379A000000000000000000000000000000000000000000000000000000000 DUP2 MSTORE PUSH1 0x4 ADD PUSH2 0x1498 SWAP1 PUSH2 0x2458 JUMP JUMPDEST PUSH1 0x40 MLOAD DUP1 SWAP2 SUB SWAP1 REVERT JUMPDEST POP POP POP POP POP POP POP JUMP JUMPDEST PUSH1 0x0 CALLER SWAP1 POP SWAP1 JUMP JUMPDEST PUSH1 0x1 SLOAD DUP3 GT ISZERO PUSH2 0x14F7 JUMPI PUSH1 0x40 MLOAD PUSH32 0x8C379A000000000000000000000000000000000000000000000000000000000 DUP2 MSTORE PUSH1 0x4 ADD PUSH2 0x14EE SWAP1 PUSH2 0x2518 JUMP JUMPDEST PUSH1 0x40 MLOAD DUP1 SWAP2 SUB SWAP1 REVERT JUMPDEST DUP1 ISZERO PUSH2 0x1558 JUMPI PUSH1 0x0 PUSH1 0x3 PUSH1 0x0 DUP6 DUP2 MSTORE PUSH1 0x20 ADD SWAP1 DUP2 MSTORE PUSH1 0x20 ADD PUSH1 0x0 KECCAK256 SLOAD GT PUSH2 0x1553 JUMPI PUSH1 0x40 MLOAD PUSH32 0x8C379A000000000000000000000000000000000000000000000000000000000 DUP2 MSTORE PUSH1 0x4 ADD PUSH2 0x154A SWAP1 PUSH2 0x2478 JUMP JUMPDEST PUSH1 0x40 MLOAD DUP1 SWAP2 SUB SWAP1 REVERT JUMPDEST PUSH2 0x15AF JUMP JUMPDEST PUSH1 0x0 PUSH1 0x4 PUSH1 0x0 DUP6 DUP2 MSTORE PUSH1 0x20 ADD SWAP1 DUP2 MSTORE PUSH1 0x20 ADD PUSH1 0x0 KECCAK256 SLOAD GT PUSH2 0x15AE JUMPI PUSH1 0x40 MLOAD PUSH32 0x8C379A000000000000000000000000000000000000000000000000000000000 DUP2 MSTORE PUSH1 0x4 ADD PUSH2 0x15A5 SWAP1 PUSH2 0x23D8 JUMP JUMPDEST PUSH1 0x40 MLOAD DUP1 SWAP2 SUB SWAP1 REVERT JUMPDEST JUMPDEST POP POP POP JUMP JUMPDEST PUSH1 0x0 PUSH1 0x2 SLOAD SWAP1 POP SWAP1 JUMP JUMPDEST PUSH1 0x1 PUSH1 0x2 PUSH1 0x0 DUP3 DUP3 SLOAD PUSH2 0x15D1 SWAP2 SWAP1 PUSH2 0x2705 JUMP JUMPDEST SWAP3 POP POP DUP2 SWAP1 SSTORE POP JUMP JUMPDEST PUSH1 0x1 PUSH1 0x3 PUSH1 0x0 DUP4 DUP2 MSTORE PUSH1 0x20 ADD SWAP1 DUP2 MSTORE PUSH1 0x20 ADD PUSH1 0x0 KECCAK256 PUSH1 0x0 DUP3 DUP3 SLOAD PUSH2 0x15FE SWAP2 SWAP1 PUSH2 0x27B5 JUMP JUMPDEST SWAP3 POP POP DUP2 SWAP1 SSTORE POP POP JUMP JUMPDEST PUSH1 0x1 PUSH1 0x4 PUSH1 0x0 DUP4 DUP2 MSTORE PUSH1 0x20 ADD SWAP1 DUP2 MSTORE PUSH1 0x20 ADD PUSH1 0x0 KECCAK256 PUSH1 0x0 DUP3 DUP3 SLOAD PUSH2 0x162C SWAP2 SWAP1 PUSH2 0x27B5 JUMP JUMPDEST SWAP3 POP POP DUP2 SWAP1 SSTORE POP POP JUMP JUMPDEST PUSH1 0x0 DUP1 PUSH2 0x166D DUP7 DUP7 DUP7 PUSH1 0x40 MLOAD PUSH1 0x20 ADD PUSH2 0x1651 SWAP4 SWAP3 SWAP2 SWAP1 PUSH2 0x21F7 JUMP JUMPDEST PUSH1 0x40 MLOAD PUSH1 0x20 DUP2 DUP4 SUB SUB DUP2 MSTORE SWAP1 PUSH1 0x40 MSTORE DUP1 MLOAD SWAP1 PUSH1 0x20 ADD KECCAK256 DUP5 PUSH2 0x16DE JUMP JUMPDEST SWAP1 POP PUSH1 0x10 PUSH1 0x0 SWAP1 SLOAD SWAP1 PUSH2 0x100 EXP SWAP1 DIV PUSH20 0xFFFFFFFFFFFFFFFFFFFFFFFFFFFFFFFFFFFFFFFF AND PUSH20 0xFFFFFFFFFFFFFFFFFFFFFFFFFFFFFFFFFFFFFFFF AND DUP2 PUSH20 0xFFFFFFFFFFFFFFFFFFFFFFFFFFFFFFFFFFFFFFFF AND EQ PUSH2 0x16CE JUMPI PUSH1 0x0 SWAP2 POP DUP2 PUSH2 0x16D4 JUMP JUMPDEST PUSH1 0x1 SWAP2 POP DUP2 JUMPDEST POP POP SWAP5 SWAP4 POP POP POP POP JUMP JUMPDEST PUSH1 0x0 PUSH2 0x16E9 DUP4 PUSH2 0x175F JUMP JUMPDEST SWAP3 POP PUSH1 0x0 DUP1 PUSH1 0x0 PUSH2 0x16F9 DUP6 PUSH2 0x178F JUMP JUMPDEST DUP1 SWAP4 POP DUP2 SWAP5 POP DUP3 SWAP6 POP POP POP POP PUSH1 0x1 DUP7 DUP5 DUP5 DUP5 PUSH1 0x40 MLOAD PUSH1 0x0 DUP2 MSTORE PUSH1 0x20 ADD PUSH1 0x40 MSTORE PUSH1 0x40 MLOAD PUSH2 0x1728 SWAP5 SWAP4 SWAP3 SWAP2 SWAP1 PUSH2 0x2373 JUMP JUMPDEST PUSH1 0x20 PUSH1 0x40 MLOAD PUSH1 0x20 DUP2 SUB SWAP1 DUP1 DUP5 SUB SWAP1 DUP6 GAS STATICCALL ISZERO DUP1 ISZERO PUSH2 0x174A JUMPI RETURNDATASIZE PUSH1 0x0 DUP1 RETURNDATACOPY RETURNDATASIZE PUSH1 0x0 REVERT JUMPDEST POP POP POP PUSH1 0x20 PUSH1 0x40 MLOAD SUB MLOAD SWAP4 POP POP POP POP SWAP3 SWAP2 POP POP JUMP JUMPDEST PUSH1 0x0 DUP2 PUSH1 0x40 MLOAD PUSH1 0x20 ADD PUSH2 0x1772 SWAP2 SWAP1 PUSH2 0x225E JUMP JUMPDEST PUSH1 0x40 MLOAD PUSH1 0x20 DUP2 DUP4 SUB SUB DUP2 MSTORE SWAP1 PUSH1 0x40 MSTORE DUP1 MLOAD SWAP1 PUSH1 0x20 ADD KECCAK256 SWAP1 POP SWAP2 SWAP1 POP JUMP JUMPDEST PUSH1 0x0 DUP1 PUSH1 0x0 PUSH1 0x41 DUP5 MLOAD EQ PUSH2 0x17A2 JUMPI PUSH1 0x0 DUP1 REVERT JUMPDEST PUSH1 0x0 DUP1 PUSH1 0x0 PUSH1 0x20 DUP8 ADD MLOAD SWAP3 POP PUSH1 0x40 DUP8 ADD MLOAD SWAP2 POP PUSH1 0x60 DUP8 ADD MLOAD PUSH1 0x0 BYTE SWAP1 POP DUP1 DUP4 DUP4 SWAP6 POP SWAP6 POP SWAP6 POP POP POP POP SWAP2 SWAP4 SWAP1 SWAP3 POP JUMP JUMPDEST PUSH1 0x0 PUSH2 0x17E5 PUSH2 0x17E0 DUP5 PUSH2 0x2598 JUMP JUMPDEST PUSH2 0x2573 JUMP JUMPDEST SWAP1 POP DUP1 DUP4 DUP3 MSTORE PUSH1 0x20 DUP3 ADD SWAP1 POP DUP3 DUP6 PUSH1 0x20 DUP7 MUL DUP3 ADD GT ISZERO PUSH2 0x1808 JUMPI PUSH2 0x1807 PUSH2 0x29CE JUMP JUMPDEST JUMPDEST PUSH1 0x0 JUMPDEST DUP6 DUP2 LT ISZERO PUSH2 0x1856 JUMPI DUP2 CALLDATALOAD PUSH8 0xFFFFFFFFFFFFFFFF DUP2 GT ISZERO PUSH2 0x182E JUMPI PUSH2 0x182D PUSH2 0x29C9 JUMP JUMPDEST JUMPDEST DUP1 DUP7 ADD PUSH2 0x183B DUP10 DUP3 PUSH2 0x1AC0 JUMP JUMPDEST DUP6 MSTORE PUSH1 0x20 DUP6 ADD SWAP5 POP PUSH1 0x20 DUP5 ADD SWAP4 POP POP POP PUSH1 0x1 DUP2 ADD SWAP1 POP PUSH2 0x180B JUMP JUMPDEST POP POP POP SWAP4 SWAP3 POP POP POP JUMP JUMPDEST PUSH1 0x0 PUSH2 0x1873 PUSH2 0x186E DUP5 PUSH2 0x25C4 JUMP JUMPDEST PUSH2 0x2573 JUMP JUMPDEST SWAP1 POP DUP1 DUP4 DUP3 MSTORE PUSH1 0x20 DUP3 ADD SWAP1 POP DUP3 DUP6 PUSH1 0x20 DUP7 MUL DUP3 ADD GT ISZERO PUSH2 0x1896 JUMPI PUSH2 0x1895 PUSH2 0x29CE JUMP JUMPDEST JUMPDEST PUSH1 0x0 JUMPDEST DUP6 DUP2 LT ISZERO PUSH2 0x18E4 JUMPI DUP2 CALLDATALOAD PUSH8 0xFFFFFFFFFFFFFFFF DUP2 GT ISZERO PUSH2 0x18BC JUMPI PUSH2 0x18BB PUSH2 0x29C9 JUMP JUMPDEST JUMPDEST DUP1 DUP7 ADD PUSH2 0x18C9 DUP10 DUP3 PUSH2 0x1AEE JUMP JUMPDEST DUP6 MSTORE PUSH1 0x20 DUP6 ADD SWAP5 POP PUSH1 0x20 DUP5 ADD SWAP4 POP POP POP PUSH1 0x1 DUP2 ADD SWAP1 POP PUSH2 0x1899 JUMP JUMPDEST POP POP POP SWAP4 SWAP3 POP POP POP JUMP JUMPDEST PUSH1 0x0 PUSH2 0x1901 PUSH2 0x18FC DUP5 PUSH2 0x25F0 JUMP JUMPDEST PUSH2 0x2573 JUMP JUMPDEST SWAP1 POP DUP1 DUP4 DUP3 MSTORE PUSH1 0x20 DUP3 ADD SWAP1 POP DUP3 DUP6 PUSH1 0x20 DUP7 MUL DUP3 ADD GT ISZERO PUSH2 0x1924 JUMPI PUSH2 0x1923 PUSH2 0x29CE JUMP JUMPDEST JUMPDEST PUSH1 0x0 JUMPDEST DUP6 DUP2 LT ISZERO PUSH2 0x1954 JUMPI DUP2 PUSH2 0x193A DUP9 DUP3 PUSH2 0x1B1C JUMP JUMPDEST DUP5 MSTORE PUSH1 0x20 DUP5 ADD SWAP4 POP PUSH1 0x20 DUP4 ADD SWAP3 POP POP PUSH1 0x1 DUP2 ADD SWAP1 POP PUSH2 0x1927 JUMP JUMPDEST POP POP POP SWAP4 SWAP3 POP POP POP JUMP JUMPDEST PUSH1 0x0 PUSH2 0x1971 PUSH2 0x196C DUP5 PUSH2 0x261C JUMP JUMPDEST PUSH2 0x2573 JUMP JUMPDEST SWAP1 POP DUP3 DUP2 MSTORE PUSH1 0x20 DUP2 ADD DUP5 DUP5 DUP5 ADD GT ISZERO PUSH2 0x198D JUMPI PUSH2 0x198C PUSH2 0x29D3 JUMP JUMPDEST JUMPDEST PUSH2 0x1998 DUP5 DUP3 DUP6 PUSH2 0x2848 JUMP JUMPDEST POP SWAP4 SWAP3 POP POP POP JUMP JUMPDEST PUSH1 0x0 PUSH2 0x19B3 PUSH2 0x19AE DUP5 PUSH2 0x264D JUMP JUMPDEST PUSH2 0x2573 JUMP JUMPDEST SWAP1 POP DUP3 DUP2 MSTORE PUSH1 0x20 DUP2 ADD DUP5 DUP5 DUP5 ADD GT ISZERO PUSH2 0x19CF JUMPI PUSH2 0x19CE PUSH2 0x29D3 JUMP JUMPDEST JUMPDEST PUSH2 0x19DA DUP5 DUP3 DUP6 PUSH2 0x2848 JUMP JUMPDEST POP SWAP4 SWAP3 POP POP POP JUMP JUMPDEST PUSH1 0x0 DUP2 CALLDATALOAD SWAP1 POP PUSH2 0x19F1 DUP2 PUSH2 0x2D22 JUMP JUMPDEST SWAP3 SWAP2 POP POP JUMP JUMPDEST PUSH1 0x0 DUP3 PUSH1 0x1F DUP4 ADD SLT PUSH2 0x1A0C JUMPI PUSH2 0x1A0B PUSH2 0x29C9 JUMP JUMPDEST JUMPDEST DUP2 CALLDATALOAD PUSH2 0x1A1C DUP5 DUP3 PUSH1 0x20 DUP7 ADD PUSH2 0x17D2 JUMP JUMPDEST SWAP2 POP POP SWAP3 SWAP2 POP POP JUMP JUMPDEST PUSH1 0x0 DUP3 PUSH1 0x1F DUP4 ADD SLT PUSH2 0x1A3A JUMPI PUSH2 0x1A39 PUSH2 0x29C9 JUMP JUMPDEST JUMPDEST DUP2 CALLDATALOAD PUSH2 0x1A4A DUP5 DUP3 PUSH1 0x20 DUP7 ADD PUSH2 0x1860 JUMP JUMPDEST SWAP2 POP POP SWAP3 SWAP2 POP POP JUMP JUMPDEST PUSH1 0x0 DUP3 PUSH1 0x1F DUP4 ADD SLT PUSH2 0x1A68 JUMPI PUSH2 0x1A67 PUSH2 0x29C9 JUMP JUMPDEST JUMPDEST DUP2 CALLDATALOAD PUSH2 0x1A78 DUP5 DUP3 PUSH1 0x20 DUP7 ADD PUSH2 0x18EE JUMP JUMPDEST SWAP2 POP POP SWAP3 SWAP2 POP POP JUMP JUMPDEST PUSH1 0x0 DUP2 CALLDATALOAD SWAP1 POP PUSH2 0x1A90 DUP2 PUSH2 0x2D39 JUMP JUMPDEST SWAP3 SWAP2 POP POP JUMP JUMPDEST PUSH1 0x0 DUP2 MLOAD SWAP1 POP PUSH2 0x1AA5 DUP2 PUSH2 0x2D39 JUMP JUMPDEST SWAP3 SWAP2 POP POP JUMP JUMPDEST PUSH1 0x0 DUP2 CALLDATALOAD SWAP1 POP PUSH2 0x1ABA DUP2 PUSH2 0x2D50 JUMP JUMPDEST SWAP3 SWAP2 POP POP JUMP JUMPDEST PUSH1 0x0 DUP3 PUSH1 0x1F DUP4 ADD SLT PUSH2 0x1AD5 JUMPI PUSH2 0x1AD4 PUSH2 0x29C9 JUMP JUMPDEST JUMPDEST DUP2 CALLDATALOAD PUSH2 0x1AE5 DUP5 DUP3 PUSH1 0x20 DUP7 ADD PUSH2 0x195E JUMP JUMPDEST SWAP2 POP POP SWAP3 SWAP2 POP POP JUMP JUMPDEST PUSH1 0x0 DUP3 PUSH1 0x1F DUP4 ADD SLT PUSH2 0x1B03 JUMPI PUSH2 0x1B02 PUSH2 0x29C9 JUMP JUMPDEST JUMPDEST DUP2 CALLDATALOAD PUSH2 0x1B13 DUP5 DUP3 PUSH1 0x20 DUP7 ADD PUSH2 0x19A0 JUMP JUMPDEST SWAP2 POP POP SWAP3 SWAP2 POP POP JUMP JUMPDEST PUSH1 0x0 DUP2 CALLDATALOAD SWAP1 POP PUSH2 0x1B2B DUP2 PUSH2 0x2D67 JUMP JUMPDEST SWAP3 SWAP2 POP POP JUMP JUMPDEST PUSH1 0x0 PUSH1 0x20 DUP3 DUP5 SUB SLT ISZERO PUSH2 0x1B47 JUMPI PUSH2 0x1B46 PUSH2 0x29DD JUMP JUMPDEST JUMPDEST PUSH1 0x0 PUSH2 0x1B55 DUP5 DUP3 DUP6 ADD PUSH2 0x19E2 JUMP JUMPDEST SWAP2 POP POP SWAP3 SWAP2 POP POP JUMP JUMPDEST PUSH1 0x0 DUP1 PUSH1 0x0 DUP1 PUSH1 0x0 DUP1 PUSH1 0x0 PUSH1 0xE0 DUP9 DUP11 SUB SLT ISZERO PUSH2 0x1B7D JUMPI PUSH2 0x1B7C PUSH2 0x29DD JUMP JUMPDEST JUMPDEST PUSH1 0x0 DUP9 ADD CALLDATALOAD PUSH8 0xFFFFFFFFFFFFFFFF DUP2 GT ISZERO PUSH2 0x1B9B JUMPI PUSH2 0x1B9A PUSH2 0x29D8 JUMP JUMPDEST JUMPDEST PUSH2 0x1BA7 DUP11 DUP3 DUP12 ADD PUSH2 0x1A25 JUMP JUMPDEST SWAP8 POP POP PUSH1 0x20 DUP9 ADD CALLDATALOAD PUSH8 0xFFFFFFFFFFFFFFFF DUP2 GT ISZERO PUSH2 0x1BC8 JUMPI PUSH2 0x1BC7 PUSH2 0x29D8 JUMP JUMPDEST JUMPDEST PUSH2 0x1BD4 DUP11 DUP3 DUP12 ADD PUSH2 0x1A53 JUMP JUMPDEST SWAP7 POP POP PUSH1 0x40 DUP9 ADD CALLDATALOAD PUSH8 0xFFFFFFFFFFFFFFFF DUP2 GT ISZERO PUSH2 0x1BF5 JUMPI PUSH2 0x1BF4 PUSH2 0x29D8 JUMP JUMPDEST JUMPDEST PUSH2 0x1C01 DUP11 DUP3 DUP12 ADD PUSH2 0x1A53 JUMP JUMPDEST SWAP6 POP POP PUSH1 0x60 DUP9 ADD CALLDATALOAD PUSH8 0xFFFFFFFFFFFFFFFF DUP2 GT ISZERO PUSH2 0x1C22 JUMPI PUSH2 0x1C21 PUSH2 0x29D8 JUMP JUMPDEST JUMPDEST PUSH2 0x1C2E DUP11 DUP3 DUP12 ADD PUSH2 0x1A53 JUMP JUMPDEST SWAP5 POP POP PUSH1 0x80 DUP9 ADD CALLDATALOAD PUSH8 0xFFFFFFFFFFFFFFFF DUP2 GT ISZERO PUSH2 0x1C4F JUMPI PUSH2 0x1C4E PUSH2 0x29D8 JUMP JUMPDEST JUMPDEST PUSH2 0x1C5B DUP11 DUP3 DUP12 ADD PUSH2 0x1A53 JUMP JUMPDEST SWAP4 POP POP PUSH1 0xA0 DUP9 ADD CALLDATALOAD PUSH8 0xFFFFFFFFFFFFFFFF DUP2 GT ISZERO PUSH2 0x1C7C JUMPI PUSH2 0x1C7B PUSH2 0x29D8 JUMP JUMPDEST JUMPDEST PUSH2 0x1C88 DUP11 DUP3 DUP12 ADD PUSH2 0x1A53 JUMP JUMPDEST SWAP3 POP POP PUSH1 0xC0 DUP9 ADD CALLDATALOAD PUSH8 0xFFFFFFFFFFFFFFFF DUP2 GT ISZERO PUSH2 0x1CA9 JUMPI PUSH2 0x1CA8 PUSH2 0x29D8 JUMP JUMPDEST JUMPDEST PUSH2 0x1CB5 DUP11 DUP3 DUP12 ADD PUSH2 0x1A53 JUMP JUMPDEST SWAP2 POP POP SWAP3 SWAP6 SWAP9 SWAP2 SWAP5 SWAP8 POP SWAP3 SWAP6 POP JUMP JUMPDEST PUSH1 0x0 DUP1 PUSH1 0x0 DUP1 PUSH1 0x80 DUP6 DUP8 SUB SLT ISZERO PUSH2 0x1CDE JUMPI PUSH2 0x1CDD PUSH2 0x29DD JUMP JUMPDEST JUMPDEST PUSH1 0x0 DUP6 ADD CALLDATALOAD PUSH8 0xFFFFFFFFFFFFFFFF DUP2 GT ISZERO PUSH2 0x1CFC JUMPI PUSH2 0x1CFB PUSH2 0x29D8 JUMP JUMPDEST JUMPDEST PUSH2 0x1D08 DUP8 DUP3 DUP9 ADD PUSH2 0x1A53 JUMP JUMPDEST SWAP5 POP POP PUSH1 0x20 DUP6 ADD CALLDATALOAD PUSH8 0xFFFFFFFFFFFFFFFF DUP2 GT ISZERO PUSH2 0x1D29 JUMPI PUSH2 0x1D28 PUSH2 0x29D8 JUMP JUMPDEST JUMPDEST PUSH2 0x1D35 DUP8 DUP3 DUP9 ADD PUSH2 0x1A25 JUMP JUMPDEST SWAP4 POP POP PUSH1 0x40 DUP6 ADD CALLDATALOAD PUSH8 0xFFFFFFFFFFFFFFFF DUP2 GT ISZERO PUSH2 0x1D56 JUMPI PUSH2 0x1D55 PUSH2 0x29D8 JUMP JUMPDEST JUMPDEST PUSH2 0x1D62 DUP8 DUP3 DUP9 ADD PUSH2 0x19F7 JUMP JUMPDEST SWAP3 POP POP PUSH1 0x60 PUSH2 0x1D73 DUP8 DUP3 DUP9 ADD PUSH2 0x1A81 JUMP JUMPDEST SWAP2 POP POP SWAP3 SWAP6 SWAP2 SWAP5 POP SWAP3 POP JUMP JUMPDEST PUSH1 0x0 PUSH1 0x20 DUP3 DUP5 SUB SLT ISZERO PUSH2 0x1D95 JUMPI PUSH2 0x1D94 PUSH2 0x29DD JUMP JUMPDEST JUMPDEST PUSH1 0x0 PUSH2 0x1DA3 DUP5 DUP3 DUP6 ADD PUSH2 0x1A96 JUMP JUMPDEST SWAP2 POP POP SWAP3 SWAP2 POP POP JUMP JUMPDEST PUSH1 0x0 PUSH1 0x20 DUP3 DUP5 SUB SLT ISZERO PUSH2 0x1DC2 JUMPI PUSH2 0x1DC1 PUSH2 0x29DD JUMP JUMPDEST JUMPDEST PUSH1 0x0 PUSH2 0x1DD0 DUP5 DUP3 DUP6 ADD PUSH2 0x1AAB JUMP JUMPDEST SWAP2 POP POP SWAP3 SWAP2 POP POP JUMP JUMPDEST PUSH1 0x0 DUP1 PUSH1 0x0 PUSH1 0x60 DUP5 DUP7 SUB SLT ISZERO PUSH2 0x1DF2 JUMPI PUSH2 0x1DF1 PUSH2 0x29DD JUMP JUMPDEST JUMPDEST PUSH1 0x0 PUSH2 0x1E00 DUP7 DUP3 DUP8 ADD PUSH2 0x1AAB JUMP JUMPDEST SWAP4 POP POP PUSH1 0x20 PUSH2 0x1E11 DUP7 DUP3 DUP8 ADD PUSH2 0x1B1C JUMP JUMPDEST SWAP3 POP POP PUSH1 0x40 PUSH2 0x1E22 DUP7 DUP3 DUP8 ADD PUSH2 0x1A81 JUMP JUMPDEST SWAP2 POP POP SWAP3 POP SWAP3 POP SWAP3 JUMP JUMPDEST PUSH1 0x0 PUSH1 0x20 DUP3 DUP5 SUB SLT ISZERO PUSH2 0x1E42 JUMPI PUSH2 0x1E41 PUSH2 0x29DD JUMP JUMPDEST JUMPDEST PUSH1 0x0 PUSH2 0x1E50 DUP5 DUP3 DUP6 ADD PUSH2 0x1B1C JUMP JUMPDEST SWAP2 POP POP SWAP3 SWAP2 POP POP JUMP JUMPDEST PUSH1 0x0 PUSH2 0x1E65 DUP4 DUP4 PUSH2 0x1F6E JUMP JUMPDEST SWAP1 POP SWAP3 SWAP2 POP POP JUMP JUMPDEST PUSH2 0x1E76 DUP2 PUSH2 0x27E9 JUMP JUMPDEST DUP3 MSTORE POP POP JUMP JUMPDEST PUSH2 0x1E8D PUSH2 0x1E88 DUP3 PUSH2 0x27E9 JUMP JUMPDEST PUSH2 0x2904 JUMP JUMPDEST DUP3 MSTORE POP POP JUMP JUMPDEST PUSH1 0x0 PUSH2 0x1E9E DUP3 PUSH2 0x268E JUMP JUMPDEST PUSH2 0x1EA8 DUP2 DUP6 PUSH2 0x26BC JUMP JUMPDEST SWAP4 POP DUP4 PUSH1 0x20 DUP3 MUL DUP6 ADD PUSH2 0x1EBA DUP6 PUSH2 0x267E JUMP JUMPDEST DUP1 PUSH1 0x0 JUMPDEST DUP6 DUP2 LT ISZERO PUSH2 0x1EF6 JUMPI DUP5 DUP5 SUB DUP10 MSTORE DUP2 MLOAD PUSH2 0x1ED7 DUP6 DUP3 PUSH2 0x1E59 JUMP JUMPDEST SWAP5 POP PUSH2 0x1EE2 DUP4 PUSH2 0x26AF JUMP JUMPDEST SWAP3 POP PUSH1 0x20 DUP11 ADD SWAP10 POP POP PUSH1 0x1 DUP2 ADD SWAP1 POP PUSH2 0x1EBE JUMP JUMPDEST POP DUP3 SWAP8 POP DUP8 SWAP6 POP POP POP POP POP POP SWAP3 SWAP2 POP POP JUMP JUMPDEST PUSH2 0x1F11 DUP2 PUSH2 0x27FB JUMP JUMPDEST DUP3 MSTORE POP POP JUMP JUMPDEST PUSH2 0x1F20 DUP2 PUSH2 0x2807 JUMP JUMPDEST DUP3 MSTORE POP POP JUMP JUMPDEST PUSH2 0x1F37 PUSH2 0x1F32 DUP3 PUSH2 0x2807 JUMP JUMPDEST PUSH2 0x2916 JUMP JUMPDEST DUP3 MSTORE POP POP JUMP JUMPDEST PUSH1 0x0 PUSH2 0x1F48 DUP3 PUSH2 0x2699 JUMP JUMPDEST PUSH2 0x1F52 DUP2 DUP6 PUSH2 0x26CD JUMP JUMPDEST SWAP4 POP PUSH2 0x1F62 DUP2 DUP6 PUSH1 0x20 DUP7 ADD PUSH2 0x2857 JUMP JUMPDEST DUP1 DUP5 ADD SWAP2 POP POP SWAP3 SWAP2 POP POP JUMP JUMPDEST PUSH1 0x0 PUSH2 0x1F79 DUP3 PUSH2 0x26A4 JUMP JUMPDEST PUSH2 0x1F83 DUP2 DUP6 PUSH2 0x26D8 JUMP JUMPDEST SWAP4 POP PUSH2 0x1F93 DUP2 DUP6 PUSH1 0x20 DUP7 ADD PUSH2 0x2857 JUMP JUMPDEST PUSH2 0x1F9C DUP2 PUSH2 0x29E2 JUMP JUMPDEST DUP5 ADD SWAP2 POP POP SWAP3 SWAP2 POP POP JUMP JUMPDEST PUSH1 0x0 PUSH2 0x1FB2 DUP3 PUSH2 0x26A4 JUMP JUMPDEST PUSH2 0x1FBC DUP2 DUP6 PUSH2 0x26FA JUMP JUMPDEST SWAP4 POP PUSH2 0x1FCC DUP2 DUP6 PUSH1 0x20 DUP7 ADD PUSH2 0x2857 JUMP JUMPDEST DUP1 DUP5 ADD SWAP2 POP POP SWAP3 SWAP2 POP POP JUMP JUMPDEST PUSH1 0x0 PUSH2 0x1FE5 PUSH1 0x14 DUP4 PUSH2 0x26E9 JUMP JUMPDEST SWAP2 POP PUSH2 0x1FF0 DUP3 PUSH2 0x2A00 JUMP JUMPDEST PUSH1 0x20 DUP3 ADD SWAP1 POP SWAP2 SWAP1 POP JUMP JUMPDEST PUSH1 0x0 PUSH2 0x2008 PUSH1 0x2E DUP4 PUSH2 0x26E9 JUMP JUMPDEST SWAP2 POP PUSH2 0x2013 DUP3 PUSH2 0x2A29 JUMP JUMPDEST PUSH1 0x40 DUP3 ADD SWAP1 POP SWAP2 SWAP1 POP JUMP JUMPDEST PUSH1 0x0 PUSH2 0x202B PUSH1 0x1C DUP4 PUSH2 0x26FA JUMP JUMPDEST SWAP2 POP PUSH2 0x2036 DUP3 PUSH2 0x2A78 JUMP JUMPDEST PUSH1 0x1C DUP3 ADD SWAP1 POP SWAP2 SWAP1 POP JUMP JUMPDEST PUSH1 0x0 PUSH2 0x204E PUSH1 0x25 DUP4 PUSH2 0x26E9 JUMP JUMPDEST SWAP2 POP PUSH2 0x2059 DUP3 PUSH2 0x2AA1 JUMP JUMPDEST PUSH1 0x40 DUP3 ADD SWAP1 POP SWAP2 SWAP1 POP JUMP JUMPDEST PUSH1 0x0 PUSH2 0x2071 PUSH1 0x26 DUP4 PUSH2 0x26E9 JUMP JUMPDEST SWAP2 POP PUSH2 0x207C DUP3 PUSH2 0x2AF0 JUMP JUMPDEST PUSH1 0x40 DUP3 ADD SWAP1 POP SWAP2 SWAP1 POP JUMP JUMPDEST PUSH1 0x0 PUSH2 0x2094 PUSH1 0x16 DUP4 PUSH2 0x26E9 JUMP JUMPDEST SWAP2 POP PUSH2 0x209F DUP3 PUSH2 0x2B3F JUMP JUMPDEST PUSH1 0x20 DUP3 ADD SWAP1 POP SWAP2 SWAP1 POP JUMP JUMPDEST PUSH1 0x0 PUSH2 0x20B7 PUSH1 0x11 DUP4 PUSH2 0x26E9 JUMP JUMPDEST SWAP2 POP PUSH2 0x20C2 DUP3 PUSH2 0x2B68 JUMP JUMPDEST PUSH1 0x20 DUP3 ADD SWAP1 POP SWAP2 SWAP1 POP JUMP JUMPDEST PUSH1 0x0 PUSH2 0x20DA PUSH1 0x30 DUP4 PUSH2 0x26E9 JUMP JUMPDEST SWAP2 POP PUSH2 0x20E5 DUP3 PUSH2 0x2B91 JUMP JUMPDEST PUSH1 0x40 DUP3 ADD SWAP1 POP SWAP2 SWAP1 POP JUMP JUMPDEST PUSH1 0x0 PUSH2 0x20FD PUSH1 0x15 DUP4 PUSH2 0x26E9 JUMP JUMPDEST SWAP2 POP PUSH2 0x2108 DUP3 PUSH2 0x2BE0 JUMP JUMPDEST PUSH1 0x20 DUP3 ADD SWAP1 POP SWAP2 SWAP1 POP JUMP JUMPDEST PUSH1 0x0 PUSH2 0x2120 PUSH1 0x11 DUP4 PUSH2 0x26E9 JUMP JUMPDEST SWAP2 POP PUSH2 0x212B DUP3 PUSH2 0x2C09 JUMP JUMPDEST PUSH1 0x20 DUP3 ADD SWAP1 POP SWAP2 SWAP1 POP JUMP JUMPDEST PUSH1 0x0 PUSH2 0x2143 PUSH1 0x20 DUP4 PUSH2 0x26E9 JUMP JUMPDEST SWAP2 POP PUSH2 0x214E DUP3 PUSH2 0x2C32 JUMP JUMPDEST PUSH1 0x20 DUP3 ADD SWAP1 POP SWAP2 SWAP1 POP JUMP JUMPDEST PUSH1 0x0 PUSH2 0x2166 PUSH1 0x21 DUP4 PUSH2 0x26E9 JUMP JUMPDEST SWAP2 POP PUSH2 0x2171 DUP3 PUSH2 0x2C5B JUMP JUMPDEST PUSH1 0x40 DUP3 ADD SWAP1 POP SWAP2 SWAP1 POP JUMP JUMPDEST PUSH1 0x0 PUSH2 0x2189 PUSH1 0x29 DUP4 PUSH2 0x26E9 JUMP JUMPDEST SWAP2 POP PUSH2 0x2194 DUP3 PUSH2 0x2CAA JUMP JUMPDEST PUSH1 0x40 DUP3 ADD SWAP1 POP SWAP2 SWAP1 POP JUMP JUMPDEST PUSH1 0x0 PUSH2 0x21AC PUSH1 0x1F DUP4 PUSH2 0x26E9 JUMP JUMPDEST SWAP2 POP PUSH2 0x21B7 DUP3 PUSH2 0x2CF9 JUMP JUMPDEST PUSH1 0x20 DUP3 ADD SWAP1 POP SWAP2 SWAP1 POP JUMP JUMPDEST PUSH2 0x21CB DUP2 PUSH2 0x2831 JUMP JUMPDEST DUP3 MSTORE POP POP JUMP JUMPDEST PUSH2 0x21E2 PUSH2 0x21DD DUP3 PUSH2 0x2831 JUMP JUMPDEST PUSH2 0x2932 JUMP JUMPDEST DUP3 MSTORE POP POP JUMP JUMPDEST PUSH2 0x21F1 DUP2 PUSH2 0x283B JUMP JUMPDEST DUP3 MSTORE POP POP JUMP JUMPDEST PUSH1 0x0 PUSH2 0x2203 DUP3 DUP7 PUSH2 0x1E7C JUMP JUMPDEST PUSH1 0x14 DUP3 ADD SWAP2 POP PUSH2 0x2213 DUP3 DUP6 PUSH2 0x21D1 JUMP JUMPDEST PUSH1 0x20 DUP3 ADD SWAP2 POP PUSH2 0x2223 DUP3 DUP5 PUSH2 0x1FA7 JUMP JUMPDEST SWAP2 POP DUP2 SWAP1 POP SWAP5 SWAP4 POP POP POP POP JUMP JUMPDEST PUSH1 0x0 PUSH2 0x223C DUP3 DUP5 PUSH2 0x1F3D JUMP JUMPDEST SWAP2 POP DUP2 SWAP1 POP SWAP3 SWAP2 POP POP JUMP JUMPDEST PUSH1 0x0 PUSH2 0x2253 DUP3 DUP5 PUSH2 0x1FA7 JUMP JUMPDEST SWAP2 POP DUP2 SWAP1 POP SWAP3 SWAP2 POP POP JUMP JUMPDEST PUSH1 0x0 PUSH2 0x2269 DUP3 PUSH2 0x201E JUMP JUMPDEST SWAP2 POP PUSH2 0x2275 DUP3 DUP5 PUSH2 0x1F26 JUMP JUMPDEST PUSH1 0x20 DUP3 ADD SWAP2 POP DUP2 SWAP1 POP SWAP3 SWAP2 POP POP JUMP JUMPDEST PUSH1 0x0 PUSH1 0x20 DUP3 ADD SWAP1 POP PUSH2 0x2299 PUSH1 0x0 DUP4 ADD DUP5 PUSH2 0x1E6D JUMP JUMPDEST SWAP3 SWAP2 POP POP JUMP JUMPDEST PUSH1 0x0 PUSH1 0x60 DUP3 ADD SWAP1 POP PUSH2 0x22B4 PUSH1 0x0 DUP4 ADD DUP7 PUSH2 0x1E6D JUMP JUMPDEST PUSH2 0x22C1 PUSH1 0x20 DUP4 ADD DUP6 PUSH2 0x1E6D JUMP JUMPDEST PUSH2 0x22CE PUSH1 0x40 DUP4 ADD DUP5 PUSH2 0x21C2 JUMP JUMPDEST SWAP5 SWAP4 POP POP POP POP JUMP JUMPDEST PUSH1 0x0 PUSH1 0x40 DUP3 ADD SWAP1 POP PUSH2 0x22EB PUSH1 0x0 DUP4 ADD DUP6 PUSH2 0x1E6D JUMP JUMPDEST DUP2 DUP2 SUB PUSH1 0x20 DUP4 ADD MSTORE PUSH2 0x22FD DUP2 DUP5 PUSH2 0x1E93 JUMP JUMPDEST SWAP1 POP SWAP4 SWAP3 POP POP POP JUMP JUMPDEST PUSH1 0x0 PUSH1 0x60 DUP3 ADD SWAP1 POP PUSH2 0x231B PUSH1 0x0 DUP4 ADD DUP7 PUSH2 0x1E6D JUMP JUMPDEST PUSH2 0x2328 PUSH1 0x20 DUP4 ADD DUP6 PUSH2 0x1F17 JUMP JUMPDEST PUSH2 0x2335 PUSH1 0x40 DUP4 ADD DUP5 PUSH2 0x21C2 JUMP JUMPDEST SWAP5 SWAP4 POP POP POP POP JUMP JUMPDEST PUSH1 0x0 PUSH1 0x20 DUP3 ADD SWAP1 POP PUSH2 0x2352 PUSH1 0x0 DUP4 ADD DUP5 PUSH2 0x1F08 JUMP JUMPDEST SWAP3 SWAP2 POP POP JUMP JUMPDEST PUSH1 0x0 PUSH1 0x20 DUP3 ADD SWAP1 POP PUSH2 0x236D PUSH1 0x0 DUP4 ADD DUP5 PUSH2 0x1F17 JUMP JUMPDEST SWAP3 SWAP2 POP POP JUMP JUMPDEST PUSH1 0x0 PUSH1 0x80 DUP3 ADD SWAP1 POP PUSH2 0x2388 PUSH1 0x0 DUP4 ADD DUP8 PUSH2 0x1F17 JUMP JUMPDEST PUSH2 0x2395 PUSH1 0x20 DUP4 ADD DUP7 PUSH2 0x21E8 JUMP JUMPDEST PUSH2 0x23A2 PUSH1 0x40 DUP4 ADD DUP6 PUSH2 0x1F17 JUMP JUMPDEST PUSH2 0x23AF PUSH1 0x60 DUP4 ADD DUP5 PUSH2 0x1F17 JUMP JUMPDEST SWAP6 SWAP5 POP POP POP POP POP JUMP JUMPDEST PUSH1 0x0 PUSH1 0x20 DUP3 ADD SWAP1 POP DUP2 DUP2 SUB PUSH1 0x0 DUP4 ADD MSTORE PUSH2 0x23D1 DUP2 PUSH2 0x1FD8 JUMP JUMPDEST SWAP1 POP SWAP2 SWAP1 POP JUMP JUMPDEST PUSH1 0x0 PUSH1 0x20 DUP3 ADD SWAP1 POP DUP2 DUP2 SUB PUSH1 0x0 DUP4 ADD MSTORE PUSH2 0x23F1 DUP2 PUSH2 0x1FFB JUMP JUMPDEST SWAP1 POP SWAP2 SWAP1 POP JUMP JUMPDEST PUSH1 0x0 PUSH1 0x20 DUP3 ADD SWAP1 POP DUP2 DUP2 SUB PUSH1 0x0 DUP4 ADD MSTORE PUSH2 0x2411 DUP2 PUSH2 0x2041 JUMP JUMPDEST SWAP1 POP SWAP2 SWAP1 POP JUMP JUMPDEST PUSH1 0x0 PUSH1 0x20 DUP3 ADD SWAP1 POP DUP2 DUP2 SUB PUSH1 0x0 DUP4 ADD MSTORE PUSH2 0x2431 DUP2 PUSH2 0x2064 JUMP JUMPDEST SWAP1 POP SWAP2 SWAP1 POP JUMP JUMPDEST PUSH1 0x0 PUSH1 0x20 DUP3 ADD SWAP1 POP DUP2 DUP2 SUB PUSH1 0x0 DUP4 ADD MSTORE PUSH2 0x2451 DUP2 PUSH2 0x2087 JUMP JUMPDEST SWAP1 POP SWAP2 SWAP1 POP JUMP JUMPDEST PUSH1 0x0 PUSH1 0x20 DUP3 ADD SWAP1 POP DUP2 DUP2 SUB PUSH1 0x0 DUP4 ADD MSTORE PUSH2 0x2471 DUP2 PUSH2 0x20AA JUMP JUMPDEST SWAP1 POP SWAP2 SWAP1 POP JUMP JUMPDEST PUSH1 0x0 PUSH1 0x20 DUP3 ADD SWAP1 POP DUP2 DUP2 SUB PUSH1 0x0 DUP4 ADD MSTORE PUSH2 0x2491 DUP2 PUSH2 0x20CD JUMP JUMPDEST SWAP1 POP SWAP2 SWAP1 POP JUMP JUMPDEST PUSH1 0x0 PUSH1 0x20 DUP3 ADD SWAP1 POP DUP2 DUP2 SUB PUSH1 0x0 DUP4 ADD MSTORE PUSH2 0x24B1 DUP2 PUSH2 0x20F0 JUMP JUMPDEST SWAP1 POP SWAP2 SWAP1 POP JUMP JUMPDEST PUSH1 0x0 PUSH1 0x20 DUP3 ADD SWAP1 POP DUP2 DUP2 SUB PUSH1 0x0 DUP4 ADD MSTORE PUSH2 0x24D1 DUP2 PUSH2 0x2113 JUMP JUMPDEST SWAP1 POP SWAP2 SWAP1 POP JUMP JUMPDEST PUSH1 0x0 PUSH1 0x20 DUP3 ADD SWAP1 POP DUP2 DUP2 SUB PUSH1 0x0 DUP4 ADD MSTORE PUSH2 0x24F1 DUP2 PUSH2 0x2136 JUMP JUMPDEST SWAP1 POP SWAP2 SWAP1 POP JUMP JUMPDEST PUSH1 0x0 PUSH1 0x20 DUP3 ADD SWAP1 POP DUP2 DUP2 SUB PUSH1 0x0 DUP4 ADD MSTORE PUSH2 0x2511 DUP2 PUSH2 0x2159 JUMP JUMPDEST SWAP1 POP SWAP2 SWAP1 POP JUMP JUMPDEST PUSH1 0x0 PUSH1 0x20 DUP3 ADD SWAP1 POP DUP2 DUP2 SUB PUSH1 0x0 DUP4 ADD MSTORE PUSH2 0x2531 DUP2 PUSH2 0x217C JUMP JUMPDEST SWAP1 POP SWAP2 SWAP1 POP JUMP JUMPDEST PUSH1 0x0 PUSH1 0x20 DUP3 ADD SWAP1 POP DUP2 DUP2 SUB PUSH1 0x0 DUP4 ADD MSTORE PUSH2 0x2551 DUP2 PUSH2 0x219F JUMP JUMPDEST SWAP1 POP SWAP2 SWAP1 POP JUMP JUMPDEST PUSH1 0x0 PUSH1 0x20 DUP3 ADD SWAP1 POP PUSH2 0x256D PUSH1 0x0 DUP4 ADD DUP5 PUSH2 0x21C2 JUMP JUMPDEST SWAP3 SWAP2 POP POP JUMP JUMPDEST PUSH1 0x0 PUSH2 0x257D PUSH2 0x258E JUMP JUMPDEST SWAP1 POP PUSH2 0x2589 DUP3 DUP3 PUSH2 0x288A JUMP JUMPDEST SWAP2 SWAP1 POP JUMP JUMPDEST PUSH1 0x0 PUSH1 0x40 MLOAD SWAP1 POP SWAP1 JUMP JUMPDEST PUSH1 0x0 PUSH8 0xFFFFFFFFFFFFFFFF DUP3 GT ISZERO PUSH2 0x25B3 JUMPI PUSH2 0x25B2 PUSH2 0x299A JUMP JUMPDEST JUMPDEST PUSH1 0x20 DUP3 MUL SWAP1 POP PUSH1 0x20 DUP2 ADD SWAP1 POP SWAP2 SWAP1 POP JUMP JUMPDEST PUSH1 0x0 PUSH8 0xFFFFFFFFFFFFFFFF DUP3 GT ISZERO PUSH2 0x25DF JUMPI PUSH2 0x25DE PUSH2 0x299A JUMP JUMPDEST JUMPDEST PUSH1 0x20 DUP3 MUL SWAP1 POP PUSH1 0x20 DUP2 ADD SWAP1 POP SWAP2 SWAP1 POP JUMP JUMPDEST PUSH1 0x0 PUSH8 0xFFFFFFFFFFFFFFFF DUP3 GT ISZERO PUSH2 0x260B JUMPI PUSH2 0x260A PUSH2 0x299A JUMP JUMPDEST JUMPDEST PUSH1 0x20 DUP3 MUL SWAP1 POP PUSH1 0x20 DUP2 ADD SWAP1 POP SWAP2 SWAP1 POP JUMP JUMPDEST PUSH1 0x0 PUSH8 0xFFFFFFFFFFFFFFFF DUP3 GT ISZERO PUSH2 0x2637 JUMPI PUSH2 0x2636 PUSH2 0x299A JUMP JUMPDEST JUMPDEST PUSH2 0x2640 DUP3 PUSH2 0x29E2 JUMP JUMPDEST SWAP1 POP PUSH1 0x20 DUP2 ADD SWAP1 POP SWAP2 SWAP1 POP JUMP JUMPDEST PUSH1 0x0 PUSH8 0xFFFFFFFFFFFFFFFF DUP3 GT ISZERO PUSH2 0x2668 JUMPI PUSH2 0x2667 PUSH2 0x299A JUMP JUMPDEST JUMPDEST PUSH2 0x2671 DUP3 PUSH2 0x29E2 JUMP JUMPDEST SWAP1 POP PUSH1 0x20 DUP2 ADD SWAP1 POP SWAP2 SWAP1 POP JUMP JUMPDEST PUSH1 0x0 DUP2 SWAP1 POP PUSH1 0x20 DUP3 ADD SWAP1 POP SWAP2 SWAP1 POP JUMP JUMPDEST PUSH1 0x0 DUP2 MLOAD SWAP1 POP SWAP2 SWAP1 POP JUMP JUMPDEST PUSH1 0x0 DUP2 MLOAD SWAP1 POP SWAP2 SWAP1 POP JUMP JUMPDEST PUSH1 0x0 DUP2 MLOAD SWAP1 POP SWAP2 SWAP1 POP JUMP JUMPDEST PUSH1 0x0 PUSH1 0x20 DUP3 ADD SWAP1 POP SWAP2 SWAP1 POP JUMP JUMPDEST PUSH1 0x0 DUP3 DUP3 MSTORE PUSH1 0x20 DUP3 ADD SWAP1 POP SWAP3 SWAP2 POP POP JUMP JUMPDEST PUSH1 0x0 DUP2 SWAP1 POP SWAP3 SWAP2 POP POP JUMP JUMPDEST PUSH1 0x0 DUP3 DUP3 MSTORE PUSH1 0x20 DUP3 ADD SWAP1 POP SWAP3 SWAP2 POP POP JUMP JUMPDEST PUSH1 0x0 DUP3 DUP3 MSTORE PUSH1 0x20 DUP3 ADD SWAP1 POP SWAP3 SWAP2 POP POP JUMP JUMPDEST PUSH1 0x0 DUP2 SWAP1 POP SWAP3 SWAP2 POP POP JUMP JUMPDEST PUSH1 0x0 PUSH2 0x2710 DUP3 PUSH2 0x2831 JUMP JUMPDEST SWAP2 POP PUSH2 0x271B DUP4 PUSH2 0x2831 JUMP JUMPDEST SWAP3 POP DUP3 PUSH32 0xFFFFFFFFFFFFFFFFFFFFFFFFFFFFFFFFFFFFFFFFFFFFFFFFFFFFFFFFFFFFFFFF SUB DUP3 GT ISZERO PUSH2 0x2750 JUMPI PUSH2 0x274F PUSH2 0x293C JUMP JUMPDEST JUMPDEST DUP3 DUP3 ADD SWAP1 POP SWAP3 SWAP2 POP POP JUMP JUMPDEST PUSH1 0x0 PUSH2 0x2766 DUP3 PUSH2 0x2831 JUMP JUMPDEST SWAP2 POP PUSH2 0x2771 DUP4 PUSH2 0x2831 JUMP JUMPDEST SWAP3 POP DUP2 PUSH32 0xFFFFFFFFFFFFFFFFFFFFFFFFFFFFFFFFFFFFFFFFFFFFFFFFFFFFFFFFFFFFFFFF DIV DUP4 GT DUP3 ISZERO ISZERO AND ISZERO PUSH2 0x27AA JUMPI PUSH2 0x27A9 PUSH2 0x293C JUMP JUMPDEST JUMPDEST DUP3 DUP3 MUL SWAP1 POP SWAP3 SWAP2 POP POP JUMP JUMPDEST PUSH1 0x0 PUSH2 0x27C0 DUP3 PUSH2 0x2831 JUMP JUMPDEST SWAP2 POP PUSH2 0x27CB DUP4 PUSH2 0x2831 JUMP JUMPDEST SWAP3 POP DUP3 DUP3 LT ISZERO PUSH2 0x27DE JUMPI PUSH2 0x27DD PUSH2 0x293C JUMP JUMPDEST JUMPDEST DUP3 DUP3 SUB SWAP1 POP SWAP3 SWAP2 POP POP JUMP JUMPDEST PUSH1 0x0 PUSH2 0x27F4 DUP3 PUSH2 0x2811 JUMP JUMPDEST SWAP1 POP SWAP2 SWAP1 POP JUMP JUMPDEST PUSH1 0x0 DUP2 ISZERO ISZERO SWAP1 POP SWAP2 SWAP1 POP JUMP JUMPDEST PUSH1 0x0 DUP2 SWAP1 POP SWAP2 SWAP1 POP JUMP JUMPDEST PUSH1 0x0 PUSH20 0xFFFFFFFFFFFFFFFFFFFFFFFFFFFFFFFFFFFFFFFF DUP3 AND SWAP1 POP SWAP2 SWAP1 POP JUMP JUMPDEST PUSH1 0x0 DUP2 SWAP1 POP SWAP2 SWAP1 POP JUMP JUMPDEST PUSH1 0x0 PUSH1 0xFF DUP3 AND SWAP1 POP SWAP2 SWAP1 POP JUMP JUMPDEST DUP3 DUP2 DUP4 CALLDATACOPY PUSH1 0x0 DUP4 DUP4 ADD MSTORE POP POP POP JUMP JUMPDEST PUSH1 0x0 JUMPDEST DUP4 DUP2 LT ISZERO PUSH2 0x2875 JUMPI DUP1 DUP3 ADD MLOAD DUP2 DUP5 ADD MSTORE PUSH1 0x20 DUP2 ADD SWAP1 POP PUSH2 0x285A JUMP JUMPDEST DUP4 DUP2 GT ISZERO PUSH2 0x2884 JUMPI PUSH1 0x0 DUP5 DUP5 ADD MSTORE JUMPDEST POP POP POP POP JUMP JUMPDEST PUSH2 0x2893 DUP3 PUSH2 0x29E2 JUMP JUMPDEST DUP2 ADD DUP2 DUP2 LT PUSH8 0xFFFFFFFFFFFFFFFF DUP3 GT OR ISZERO PUSH2 0x28B2 JUMPI PUSH2 0x28B1 PUSH2 0x299A JUMP JUMPDEST JUMPDEST DUP1 PUSH1 0x40 MSTORE POP POP POP JUMP JUMPDEST PUSH1 0x0 PUSH2 0x28C6 DUP3 PUSH2 0x2831 JUMP JUMPDEST SWAP2 POP PUSH32 0xFFFFFFFFFFFFFFFFFFFFFFFFFFFFFFFFFFFFFFFFFFFFFFFFFFFFFFFFFFFFFFFF DUP3 EQ ISZERO PUSH2 0x28F9 JUMPI PUSH2 0x28F8 PUSH2 0x293C JUMP JUMPDEST JUMPDEST PUSH1 0x1 DUP3 ADD SWAP1 POP SWAP2 SWAP1 POP JUMP JUMPDEST PUSH1 0x0 PUSH2 0x290F DUP3 PUSH2 0x2920 JUMP JUMPDEST SWAP1 POP SWAP2 SWAP1 POP JUMP JUMPDEST PUSH1 0x0 DUP2 SWAP1 POP SWAP2 SWAP1 POP JUMP JUMPDEST PUSH1 0x0 PUSH2 0x292B DUP3 PUSH2 0x29F3 JUMP JUMPDEST SWAP1 POP SWAP2 SWAP1 POP JUMP JUMPDEST PUSH1 0x0 DUP2 SWAP1 POP SWAP2 SWAP1 POP JUMP JUMPDEST PUSH32 0x4E487B7100000000000000000000000000000000000000000000000000000000 PUSH1 0x0 MSTORE PUSH1 0x11 PUSH1 0x4 MSTORE PUSH1 0x24 PUSH1 0x0 REVERT JUMPDEST PUSH32 0x4E487B7100000000000000000000000000000000000000000000000000000000 PUSH1 0x0 MSTORE PUSH1 0x32 PUSH1 0x4 MSTORE PUSH1 0x24 PUSH1 0x0 REVERT JUMPDEST PUSH32 0x4E487B7100000000000000000000000000000000000000000000000000000000 PUSH1 0x0 MSTORE PUSH1 0x41 PUSH1 0x4 MSTORE PUSH1 0x24 PUSH1 0x0 REVERT JUMPDEST PUSH1 0x0 DUP1 REVERT JUMPDEST PUSH1 0x0 DUP1 REVERT JUMPDEST PUSH1 0x0 DUP1 REVERT JUMPDEST PUSH1 0x0 DUP1 REVERT JUMPDEST PUSH1 0x0 DUP1 REVERT JUMPDEST PUSH1 0x0 PUSH1 0x1F NOT PUSH1 0x1F DUP4 ADD AND SWAP1 POP SWAP2 SWAP1 POP JUMP JUMPDEST PUSH1 0x0 DUP2 PUSH1 0x60 SHL SWAP1 POP SWAP2 SWAP1 POP JUMP JUMPDEST PUSH32 0x496E76616C6964206172726179206C656E677468000000000000000000000000 PUSH1 0x0 DUP3 ADD MSTORE POP JUMP JUMPDEST PUSH32 0x5261706964204661726D206C696D6974207265616368656420666F722070726F PUSH1 0x0 DUP3 ADD MSTORE PUSH32 0x76696465642063617465676F7279000000000000000000000000000000000000 PUSH1 0x20 DUP3 ADD MSTORE POP JUMP JUMPDEST PUSH32 0x19457468657265756D205369676E6564204D6573736167653A0A333200000000 PUSH1 0x0 DUP3 ADD MSTORE POP JUMP JUMPDEST PUSH32 0x43616E206E6F74206861727665737420647572696E67206661726D696E672070 PUSH1 0x0 DUP3 ADD MSTORE PUSH32 0x6572696F64000000000000000000000000000000000000000000000000000000 PUSH1 0x20 DUP3 ADD MSTORE POP JUMP JUMPDEST PUSH32 0x4F776E61626C653A206E6577206F776E657220697320746865207A65726F2061 PUSH1 0x0 DUP3 ADD MSTORE PUSH32 0x6464726573730000000000000000000000000000000000000000000000000000 PUSH1 0x20 DUP3 ADD MSTORE POP JUMP JUMPDEST PUSH32 0x5369676E617475726520616C7265616479207573656400000000000000000000 PUSH1 0x0 DUP3 ADD MSTORE POP JUMP JUMPDEST PUSH32 0x496E76616C6964207369676E6174757265000000000000000000000000000000 PUSH1 0x0 DUP3 ADD MSTORE POP JUMP JUMPDEST PUSH32 0x47656E6572616C204661726D206C696D6974207265616368656420666F722070 PUSH1 0x0 DUP3 ADD MSTORE PUSH32 0x726F76696465642063617465676F727900000000000000000000000000000000 PUSH1 0x20 DUP3 ADD MSTORE POP JUMP JUMPDEST PUSH32 0x546F6B656E207472616E73666572206661696C65640000000000000000000000 PUSH1 0x0 DUP3 ADD MSTORE POP JUMP JUMPDEST PUSH32 0x496E76616C6964206661726D2074797065000000000000000000000000000000 PUSH1 0x0 DUP3 ADD MSTORE POP JUMP JUMPDEST PUSH32 0x4F776E61626C653A2063616C6C6572206973206E6F7420746865206F776E6572 PUSH1 0x0 DUP3 ADD MSTORE POP JUMP JUMPDEST PUSH32 0x5369676E6572204164647265737320636F756C64206E6F7420626520656D7074 PUSH1 0x0 DUP3 ADD MSTORE PUSH32 0x7900000000000000000000000000000000000000000000000000000000000000 PUSH1 0x20 DUP3 ADD MSTORE POP JUMP JUMPDEST PUSH32 0x43616E206E6F74204661726D206D6F7265207468616E2075736572204661726D PUSH1 0x0 DUP3 ADD MSTORE PUSH32 0x696E67204C696D69740000000000000000000000000000000000000000000000 PUSH1 0x20 DUP3 ADD MSTORE POP JUMP JUMPDEST PUSH32 0x4F6E6C79206F776E65722063616E206861727665737420746865206661726D00 PUSH1 0x0 DUP3 ADD MSTORE POP JUMP JUMPDEST PUSH2 0x2D2B DUP2 PUSH2 0x27E9 JUMP JUMPDEST DUP2 EQ PUSH2 0x2D36 JUMPI PUSH1 0x0 DUP1 REVERT JUMPDEST POP JUMP JUMPDEST PUSH2 0x2D42 DUP2 PUSH2 0x27FB JUMP JUMPDEST DUP2 EQ PUSH2 0x2D4D JUMPI PUSH1 0x0 DUP1 REVERT JUMPDEST POP JUMP JUMPDEST PUSH2 0x2D59 DUP2 PUSH2 0x2807 JUMP JUMPDEST DUP2 EQ PUSH2 0x2D64 JUMPI PUSH1 0x0 DUP1 REVERT JUMPDEST POP JUMP JUMPDEST PUSH2 0x2D70 DUP2 PUSH2 0x2831 JUMP JUMPDEST DUP2 EQ PUSH2 0x2D7B JUMPI PUSH1 0x0 DUP1 REVERT JUMPDEST POP JUMP INVALID LOG2 PUSH5 0x6970667358 0x22 SLT KECCAK256 0xBF 0x1E GAS 0xAC PUSH23 0xE13F1039DB39B44A5977A6D93D27F2F1A233F945EFE38A SWAP11 0x4E 0x22 0x5D PUSH5 0x736F6C6343 STOP ADDMOD SMOD STOP CALLER "
        },
        "methodIdentifiers": {
          "farmCategory(uint256)": "11b0cee7",
          "farmHarvested(uint256)": "b7db778c",
          "farmId()": "278de000",
          "farmNFT(bytes32,uint256,bool)": "6a0d35d6",
          "farmOwner(uint256)": "ca7a37f8",
          "farmTimestamp(uint256)": "53abe232",
          "farmType(uint256)": "50e232a3",
          "generalFarm()": "7aa2ddc0",
          "generalFarmTime(bytes32)": "e8cfde5f",
          "generalFarmsLeft(bytes32)": "9f8ded41",
          "generalTokensRequired(bytes32)": "f261619a",
          "harvestNFT(uint256[],string[],bytes[],bool)": "4b06e803",
          "owner()": "8da5cb5b",
          "rapidFarm()": "eee5beaa",
          "rapidFarmTime(bytes32)": "4bb7b136",
          "rapidFarmsLeft(bytes32)": "7dde70d1",
          "rapidTokensRequired(bytes32)": "02ef512c",
          "signerAddress()": "5b7633d0",
          "totalLayers(bytes32)": "e0b0b92d",
          "transferOwnership(address)": "f2fde38b",
          "updateFarmConfig(string[],uint256[],uint256[],uint256[],uint256[],uint256[],uint256[])": "533d953d",
          "updateSignerAddress(address)": "8fa2a9f0",
          "userFarmLimit()": "226fd904"
        }
      }
    }
  }
}