{
  "_format": "hh-sol-artifact-1",
  "contractName": "ShoefyFarm",
  "sourceName": "contracts/Farming.sol",
  "abi": [
    {
      "inputs": [
        {
          "internalType": "address",
          "name": "shoefyContract_",
          "type": "address"
        },
        {
          "internalType": "address",
          "name": "nftContract_",
          "type": "address"
        },
        {
          "internalType": "string[]",
          "name": "categories_",
          "type": "string[]"
        },
        {
          "internalType": "uint256[]",
          "name": "totalGeneralNFTs",
          "type": "uint256[]"
        },
        {
          "internalType": "uint256[]",
          "name": "totalRapidNFTs",
          "type": "uint256[]"
        },
        {
          "internalType": "uint256[]",
          "name": "generalFarmTimes_",
          "type": "uint256[]"
        },
        {
          "internalType": "uint256[]",
          "name": "rapidFarmtimes_",
          "type": "uint256[]"
        },
        {
          "internalType": "uint256[]",
          "name": "generalTokensRequired_",
          "type": "uint256[]"
        },
        {
          "internalType": "uint256[]",
          "name": "rapidTokensRequired_",
          "type": "uint256[]"
        },
        {
          "internalType": "address",
          "name": "_signerAddress",
          "type": "address"
        }
      ],
      "stateMutability": "nonpayable",
      "type": "constructor"
    },
    {
      "anonymous": false,
      "inputs": [
        {
          "indexed": false,
          "internalType": "address",
          "name": "userAddress",
          "type": "address"
        },
        {
          "indexed": false,
          "internalType": "bytes32",
          "name": "category",
          "type": "bytes32"
        },
        {
          "indexed": false,
          "internalType": "uint256",
          "name": "farmId",
          "type": "uint256"
        }
      ],
      "name": "GeneralNFTFarmed",
      "type": "event"
    },
    {
      "anonymous": false,
      "inputs": [
        {
          "indexed": false,
          "internalType": "address",
          "name": "userAddress",
          "type": "address"
        },
        {
          "indexed": false,
          "internalType": "bytes32",
          "name": "category",
          "type": "bytes32"
        },
        {
          "indexed": false,
          "internalType": "uint256",
          "name": "farmId",
          "type": "uint256"
        }
      ],
      "name": "GeneralNFTMinted",
      "type": "event"
    },
    {
      "anonymous": false,
      "inputs": [
        {
          "indexed": true,
          "internalType": "address",
          "name": "previousOwner",
          "type": "address"
        },
        {
          "indexed": true,
          "internalType": "address",
          "name": "newOwner",
          "type": "address"
        }
      ],
      "name": "OwnershipTransferred",
      "type": "event"
    },
    {
      "anonymous": false,
      "inputs": [
        {
          "indexed": false,
          "internalType": "address",
          "name": "userAddress",
          "type": "address"
        },
        {
          "indexed": false,
          "internalType": "bytes32",
          "name": "category",
          "type": "bytes32"
        },
        {
          "indexed": false,
          "internalType": "uint256",
          "name": "farmId",
          "type": "uint256"
        }
      ],
      "name": "RapidNFTFarmed",
      "type": "event"
    },
    {
      "anonymous": false,
      "inputs": [
        {
          "indexed": false,
          "internalType": "address",
          "name": "userAddress",
          "type": "address"
        },
        {
          "indexed": false,
          "internalType": "bytes32",
          "name": "category",
          "type": "bytes32"
        },
        {
          "indexed": false,
          "internalType": "uint256",
          "name": "farmId",
          "type": "uint256"
        }
      ],
      "name": "RapidNFTMinted",
      "type": "event"
    },
    {
      "inputs": [
        {
          "internalType": "uint256",
          "name": "",
          "type": "uint256"
        }
      ],
      "name": "farmCategory",
      "outputs": [
        {
          "internalType": "bytes32",
          "name": "",
          "type": "bytes32"
        }
      ],
      "stateMutability": "view",
      "type": "function"
    },
    {
      "inputs": [
        {
          "internalType": "uint256",
          "name": "",
          "type": "uint256"
        }
      ],
      "name": "farmHarvested",
      "outputs": [
        {
          "internalType": "bool",
          "name": "",
          "type": "bool"
        }
      ],
      "stateMutability": "view",
      "type": "function"
    },
    {
      "inputs": [],
      "name": "farmId",
      "outputs": [
        {
          "internalType": "uint256",
          "name": "",
          "type": "uint256"
        }
      ],
      "stateMutability": "view",
      "type": "function"
    },
    {
      "inputs": [
        {
          "internalType": "bytes32",
          "name": "category_",
          "type": "bytes32"
        },
        {
          "internalType": "uint256",
          "name": "farmAmount_",
          "type": "uint256"
        },
        {
          "internalType": "bool",
          "name": "generalFarm_",
          "type": "bool"
        }
      ],
      "name": "farmNFT",
      "outputs": [],
      "stateMutability": "nonpayable",
      "type": "function"
    },
    {
      "inputs": [
        {
          "internalType": "uint256",
          "name": "",
          "type": "uint256"
        }
      ],
      "name": "farmOwner",
      "outputs": [
        {
          "internalType": "address",
          "name": "",
          "type": "address"
        }
      ],
      "stateMutability": "view",
      "type": "function"
    },
    {
      "inputs": [
        {
          "internalType": "uint256",
          "name": "",
          "type": "uint256"
        }
      ],
      "name": "farmTimestamp",
      "outputs": [
        {
          "internalType": "uint256",
          "name": "",
          "type": "uint256"
        }
      ],
      "stateMutability": "view",
      "type": "function"
    },
    {
      "inputs": [
        {
          "internalType": "uint256",
          "name": "",
          "type": "uint256"
        }
      ],
      "name": "farmType",
      "outputs": [
        {
          "internalType": "bytes32",
          "name": "",
          "type": "bytes32"
        }
      ],
      "stateMutability": "view",
      "type": "function"
    },
    {
      "inputs": [],
      "name": "generalFarm",
      "outputs": [
        {
          "internalType": "bytes32",
          "name": "",
          "type": "bytes32"
        }
      ],
      "stateMutability": "view",
      "type": "function"
    },
    {
      "inputs": [
        {
          "internalType": "bytes32",
          "name": "",
          "type": "bytes32"
        }
      ],
      "name": "generalFarmTime",
      "outputs": [
        {
          "internalType": "uint256",
          "name": "",
          "type": "uint256"
        }
      ],
      "stateMutability": "view",
      "type": "function"
    },
    {
      "inputs": [
        {
          "internalType": "bytes32",
          "name": "",
          "type": "bytes32"
        }
      ],
      "name": "generalFarmsLeft",
      "outputs": [
        {
          "internalType": "uint256",
          "name": "",
          "type": "uint256"
        }
      ],
      "stateMutability": "view",
      "type": "function"
    },
    {
      "inputs": [
        {
          "internalType": "bytes32",
          "name": "",
          "type": "bytes32"
        }
      ],
      "name": "generalTokensRequired",
      "outputs": [
        {
          "internalType": "uint256",
          "name": "",
          "type": "uint256"
        }
      ],
      "stateMutability": "view",
      "type": "function"
    },
    {
      "inputs": [
        {
          "internalType": "uint256[]",
          "name": "farmIds_",
          "type": "uint256[]"
        },
        {
          "internalType": "string[]",
          "name": "tokenURIs_",
          "type": "string[]"
        },
        {
          "internalType": "bytes[]",
          "name": "signatures_",
          "type": "bytes[]"
        },
        {
          "internalType": "bool",
          "name": "generalFarm_",
          "type": "bool"
        }
      ],
      "name": "harvestNFT",
      "outputs": [],
      "stateMutability": "nonpayable",
      "type": "function"
    },
    {
      "inputs": [],
      "name": "owner",
      "outputs": [
        {
          "internalType": "address",
          "name": "",
          "type": "address"
        }
      ],
      "stateMutability": "view",
      "type": "function"
    },
    {
      "inputs": [],
      "name": "rapidFarm",
      "outputs": [
        {
          "internalType": "bytes32",
          "name": "",
          "type": "bytes32"
        }
      ],
      "stateMutability": "view",
      "type": "function"
    },
    {
      "inputs": [
        {
          "internalType": "bytes32",
          "name": "",
          "type": "bytes32"
        }
      ],
      "name": "rapidFarmTime",
      "outputs": [
        {
          "internalType": "uint256",
          "name": "",
          "type": "uint256"
        }
      ],
      "stateMutability": "view",
      "type": "function"
    },
    {
      "inputs": [
        {
          "internalType": "bytes32",
          "name": "",
          "type": "bytes32"
        }
      ],
      "name": "rapidFarmsLeft",
      "outputs": [
        {
          "internalType": "uint256",
          "name": "",
          "type": "uint256"
        }
      ],
      "stateMutability": "view",
      "type": "function"
    },
    {
      "inputs": [
        {
          "internalType": "bytes32",
          "name": "",
          "type": "bytes32"
        }
      ],
      "name": "rapidTokensRequired",
      "outputs": [
        {
          "internalType": "uint256",
          "name": "",
          "type": "uint256"
        }
      ],
      "stateMutability": "view",
      "type": "function"
    },
    {
      "inputs": [],
      "name": "signerAddress",
      "outputs": [
        {
          "internalType": "address",
          "name": "",
          "type": "address"
        }
      ],
      "stateMutability": "view",
      "type": "function"
    },
    {
      "inputs": [
        {
          "internalType": "bytes32",
          "name": "",
          "type": "bytes32"
        }
      ],
      "name": "totalLayers",
      "outputs": [
        {
          "internalType": "uint256",
          "name": "",
          "type": "uint256"
        }
      ],
      "stateMutability": "view",
      "type": "function"
    },
    {
      "inputs": [
        {
          "internalType": "address",
          "name": "newOwner",
          "type": "address"
        }
      ],
      "name": "transferOwnership",
      "outputs": [],
      "stateMutability": "nonpayable",
      "type": "function"
    },
    {
      "inputs": [
        {
          "internalType": "string[]",
          "name": "categories_",
          "type": "string[]"
        },
        {
          "internalType": "uint256[]",
          "name": "totalGeneralNFTs",
          "type": "uint256[]"
        },
        {
          "internalType": "uint256[]",
          "name": "totalRapidNFTs",
          "type": "uint256[]"
        },
        {
          "internalType": "uint256[]",
          "name": "generalFarmTimes_",
          "type": "uint256[]"
        },
        {
          "internalType": "uint256[]",
          "name": "rapidFarmtimes_",
          "type": "uint256[]"
        },
        {
          "internalType": "uint256[]",
          "name": "generalTokensRequired_",
          "type": "uint256[]"
        },
        {
          "internalType": "uint256[]",
          "name": "rapidTokensRequired_",
          "type": "uint256[]"
        }
      ],
      "name": "updateFarmConfig",
      "outputs": [],
      "stateMutability": "nonpayable",
      "type": "function"
    },
    {
      "inputs": [
        {
          "internalType": "address",
          "name": "_signerAddress",
          "type": "address"
        }
      ],
      "name": "updateSignerAddress",
      "outputs": [],
      "stateMutability": "nonpayable",
      "type": "function"
    },
    {
      "inputs": [],
      "name": "userFarmLimit",
      "outputs": [
        {
          "internalType": "uint256",
          "name": "",
          "type": "uint256"
        }
      ],
      "stateMutability": "view",
      "type": "function"
    }
  ],
  "bytecode": "0x60806040523480156200001157600080fd5b50604051620039603803806200396083398181016040528101906200003791906200061e565b600062000049620003ed60201b60201c565b9050806000806101000a81548173ffffffffffffffffffffffffffffffffffffffff021916908373ffffffffffffffffffffffffffffffffffffffff1602179055508073ffffffffffffffffffffffffffffffffffffffff16600073ffffffffffffffffffffffffffffffffffffffff167f8be0079c531659141344cd1fd0a4f28419497f9722a3daafe3b4186f6b6457e060405160405180910390a350600073ffffffffffffffffffffffffffffffffffffffff168173ffffffffffffffffffffffffffffffffffffffff1614156200015a576040517f08c379a0000000000000000000000000000000000000000000000000000000008152600401620001519062000864565b60405180910390fd5b600a600181905550600160028190555089601160006101000a81548173ffffffffffffffffffffffffffffffffffffffff021916908373ffffffffffffffffffffffffffffffffffffffff16021790555088601260006101000a81548173ffffffffffffffffffffffffffffffffffffffff021916908373ffffffffffffffffffffffffffffffffffffffff16021790555080601060006101000a81548173ffffffffffffffffffffffffffffffffffffffff021916908373ffffffffffffffffffffffffffffffffffffffff160217905550600080600090505b8951811015620003db5789818151811062000255576200025462000a91565b5b60200260200101516040516020016200026f91906200084b565b6040516020818303038152906040528051906020012091508881815181106200029d576200029c62000a91565b5b60200260200101516003600084815260200190815260200160002081905550878181518110620002d257620002d162000a91565b5b6020026020010151600460008481526020019081526020016000208190555086818151811062000307576200030662000a91565b5b602002602001015160086000848152602001908152602001600020819055508581815181106200033c576200033b62000a91565b5b6020026020010151600960008481526020019081526020016000208190555084818151811062000371576200037062000a91565b5b60200260200101516006600084815260200190815260200160002081905550838181518110620003a657620003a562000a91565b5b602002602001015160076000848152602001908152602001600020819055508080620003d29062000a14565b91505062000235565b50505050505050505050505062000b9c565b600033905090565b60006200040c6200040684620008af565b62000886565b9050808382526020820190508285602086028201111562000432576200043162000af4565b5b60005b858110156200048757815167ffffffffffffffff8111156200045c576200045b62000aef565b5b8086016200046b8982620005d4565b8552602085019450602084019350505060018101905062000435565b5050509392505050565b6000620004a8620004a284620008de565b62000886565b90508083825260208201905082856020860282011115620004ce57620004cd62000af4565b5b60005b85811015620005025781620004e7888262000607565b845260208401935060208301925050600181019050620004d1565b5050509392505050565b6000620005236200051d846200090d565b62000886565b90508281526020810184848401111562000542576200054162000af9565b5b6200054f848285620009a8565b509392505050565b600081519050620005688162000b68565b92915050565b600082601f83011262000586576200058562000aef565b5b815162000598848260208601620003f5565b91505092915050565b600082601f830112620005b957620005b862000aef565b5b8151620005cb84826020860162000491565b91505092915050565b600082601f830112620005ec57620005eb62000aef565b5b8151620005fe8482602086016200050c565b91505092915050565b600081519050620006188162000b82565b92915050565b6000806000806000806000806000806101408b8d03121562000645576200064462000b03565b5b6000620006558d828e0162000557565b9a50506020620006688d828e0162000557565b99505060408b015167ffffffffffffffff8111156200068c576200068b62000afe565b5b6200069a8d828e016200056e565b98505060608b015167ffffffffffffffff811115620006be57620006bd62000afe565b5b620006cc8d828e01620005a1565b97505060808b015167ffffffffffffffff811115620006f057620006ef62000afe565b5b620006fe8d828e01620005a1565b96505060a08b015167ffffffffffffffff81111562000722576200072162000afe565b5b620007308d828e01620005a1565b95505060c08b015167ffffffffffffffff81111562000754576200075362000afe565b5b620007628d828e01620005a1565b94505060e08b015167ffffffffffffffff81111562000786576200078562000afe565b5b620007948d828e01620005a1565b9350506101008b015167ffffffffffffffff811115620007b957620007b862000afe565b5b620007c78d828e01620005a1565b925050610120620007db8d828e0162000557565b9150509295989b9194979a5092959850565b6000620007fa8262000943565b6200080681856200095f565b935062000818818560208601620009a8565b80840191505092915050565b6000620008336021836200094e565b9150620008408262000b19565b604082019050919050565b6000620008598284620007ed565b915081905092915050565b600060208201905081810360008301526200087f8162000824565b9050919050565b600062000892620008a5565b9050620008a08282620009de565b919050565b6000604051905090565b600067ffffffffffffffff821115620008cd57620008cc62000ac0565b5b602082029050602081019050919050565b600067ffffffffffffffff821115620008fc57620008fb62000ac0565b5b602082029050602081019050919050565b600067ffffffffffffffff8211156200092b576200092a62000ac0565b5b620009368262000b08565b9050602081019050919050565b600081519050919050565b600082825260208201905092915050565b600081905092915050565b600062000977826200097e565b9050919050565b600073ffffffffffffffffffffffffffffffffffffffff82169050919050565b6000819050919050565b60005b83811015620009c8578082015181840152602081019050620009ab565b83811115620009d8576000848401525b50505050565b620009e98262000b08565b810181811067ffffffffffffffff8211171562000a0b5762000a0a62000ac0565b5b80604052505050565b600062000a21826200099e565b91507fffffffffffffffffffffffffffffffffffffffffffffffffffffffffffffffff82141562000a575762000a5662000a62565b5b600182019050919050565b7f4e487b7100000000000000000000000000000000000000000000000000000000600052601160045260246000fd5b7f4e487b7100000000000000000000000000000000000000000000000000000000600052603260045260246000fd5b7f4e487b7100000000000000000000000000000000000000000000000000000000600052604160045260246000fd5b600080fd5b600080fd5b600080fd5b600080fd5b600080fd5b6000601f19601f8301169050919050565b7f5369676e6572204164647265737320636f756c64206e6f7420626520656d707460008201527f7900000000000000000000000000000000000000000000000000000000000000602082015250565b62000b73816200096a565b811462000b7f57600080fd5b50565b62000b8d816200099e565b811462000b9957600080fd5b50565b612db48062000bac6000396000f3fe608060405234801561001057600080fd5b506004361061014d5760003560e01c80637aa2ddc0116100c3578063ca7a37f81161007c578063ca7a37f8146103d8578063e0b0b92d14610408578063e8cfde5f14610438578063eee5beaa14610468578063f261619a14610486578063f2fde38b146104b65761014d565b80637aa2ddc0146102f05780637dde70d11461030e5780638da5cb5b1461033e5780638fa2a9f01461035c5780639f8ded4114610378578063b7db778c146103a85761014d565b80634bb7b136116101155780634bb7b1361461020a57806350e232a31461023a578063533d953d1461026a57806353abe232146102865780635b7633d0146102b65780636a0d35d6146102d45761014d565b806302ef512c1461015257806311b0cee714610182578063226fd904146101b2578063278de000146101d05780634b06e803146101ee575b600080fd5b61016c60048036038101906101679190611dac565b6104d2565b6040516101799190612558565b60405180910390f35b61019c60048036038101906101979190611e2c565b6104ea565b6040516101a99190612358565b60405180910390f35b6101ba610502565b6040516101c79190612558565b60405180910390f35b6101d8610508565b6040516101e59190612558565b60405180910390f35b61020860048036038101906102039190611cc4565b61050e565b005b610224600480360381019061021f9190611dac565b61086d565b6040516102319190612558565b60405180910390f35b610254600480360381019061024f9190611e2c565b610885565b6040516102619190612358565b60405180910390f35b610284600480360381019061027f9190611b5e565b61089d565b005b6102a0600480360381019061029b9190611e2c565b610ab7565b6040516102ad9190612558565b60405180910390f35b6102be610acf565b6040516102cb9190612284565b60405180910390f35b6102ee60048036038101906102e99190611dd9565b610af5565b005b6102f8610dcc565b6040516103059190612358565b60405180910390f35b61032860048036038101906103239190611dac565b610df0565b6040516103359190612558565b60405180910390f35b610346610e08565b6040516103539190612284565b60405180910390f35b61037660048036038101906103719190611b31565b610e31565b005b610392600480360381019061038d9190611dac565b610f61565b60405161039f9190612558565b60405180910390f35b6103c260048036038101906103bd9190611e2c565b610f79565b6040516103cf919061233d565b60405180910390f35b6103f260048036038101906103ed9190611e2c565b610f99565b6040516103ff9190612284565b60405180910390f35b610422600480360381019061041d9190611dac565b610fcc565b60405161042f9190612558565b60405180910390f35b610452600480360381019061044d9190611dac565b610fe4565b60405161045f9190612558565b60405180910390f35b610470610ffc565b60405161047d9190612358565b60405180910390f35b6104a0600480360381019061049b9190611dac565b611020565b6040516104ad9190612558565b60405180910390f35b6104d060048036038101906104cb9190611b31565b611038565b005b60076020528060005260406000206000915090505481565b600c6020528060005260406000206000915090505481565b60015481565b60025481565b82518451148015610520575081518351145b61055f576040517f08c379a0000000000000000000000000000000000000000000000000000000008152600401610556906123b8565b60405180910390fd5b60008161058f577fbe2ccfe29593baf3c1f9dd7eff5442e53b447007014b036622cab0f830ebfeec9050806105b4565b7f85f6017c7f3635f3e21f932bfcec61f314ced22845f0e0e3813bdc644b86d4159050805b5060005b85518110156107d65761061c338783815181106105d8576105d761296b565b5b6020026020010151848885815181106105f4576105f361296b565b5b602002602001015188868151811061060f5761060e61296b565b5b60200260200101516111e1565b6001600e60008884815181106106355761063461296b565b5b6020026020010151815260200190815260200160002060006101000a81548160ff0219169083151502179055506001600f8583815181106106795761067861296b565b5b602002602001015160405161068e9190612230565b908152602001604051809103902060006101000a81548160ff0219169083151502179055508215610740577f91edb6a80ed361634644a0fb53fdab770f8cc92ff141c42cd3bed1b4cb1fa83933600c60008985815181106106f2576106f161296b565b5b602002602001015181526020019081526020016000205488848151811061071c5761071b61296b565b5b602002602001015160405161073393929190612306565b60405180910390a16107c3565b7ff450fde163b563062eb7a92e0560f32610721e68970d97a1338b45821042553f33600c60008985815181106107795761077861296b565b5b60200260200101518152602001908152602001600020548884815181106107a3576107a261296b565b5b60200260200101516040516107ba93929190612306565b60405180910390a15b80806107ce906128bb565b9150506105b8565b50601260009054906101000a900473ffffffffffffffffffffffffffffffffffffffff1673ffffffffffffffffffffffffffffffffffffffff1663ed0e31de33866040518363ffffffff1660e01b81526004016108349291906122d6565b600060405180830381600087803b15801561084e57600080fd5b505af1158015610862573d6000803e3d6000fd5b505050505050505050565b60096020528060005260406000206000915090505481565b600d6020528060005260406000206000915090505481565b6108a56114aa565b73ffffffffffffffffffffffffffffffffffffffff166108c3610e08565b73ffffffffffffffffffffffffffffffffffffffff1614610919576040517f08c379a0000000000000000000000000000000000000000000000000000000008152600401610910906124d8565b60405180910390fd5b600080600090505b8851811015610aac5788818151811061093d5761093c61296b565b5b60200260200101516040516020016109559190612247565b6040516020818303038152906040528051906020012091508781815181106109805761097f61296b565b5b602002602001015160036000848152602001908152602001600020819055508681815181106109b2576109b161296b565b5b602002602001015160046000848152602001908152602001600020819055508581815181106109e4576109e361296b565b5b60200260200101516008600084815260200190815260200160002081905550848181518110610a1657610a1561296b565b5b60200260200101516009600084815260200190815260200160002081905550838181518110610a4857610a4761296b565b5b60200260200101516006600084815260200190815260200160002081905550828181518110610a7a57610a7961296b565b5b602002602001015160076000848152602001908152602001600020819055508080610aa4906128bb565b915050610921565b505050505050505050565b600b6020528060005260406000206000915090505481565b601060009054906101000a900473ffffffffffffffffffffffffffffffffffffffff1681565b610b008383836114b2565b600081610b30577fbe2ccfe29593baf3c1f9dd7eff5442e53b447007014b036622cab0f830ebfeec905080610b55565b7f85f6017c7f3635f3e21f932bfcec61f314ced22845f0e0e3813bdc644b86d4159050805b5060005b83811015610cb7576000610b6b6115b4565b905042600b60008381526020019081526020016000208190555033600a600083815260200190815260200160002060006101000a81548173ffffffffffffffffffffffffffffffffffffffff021916908373ffffffffffffffffffffffffffffffffffffffff16021790555085600c60008381526020019081526020016000208190555082600d600083815260200190815260200160002081905550610c0f6115be565b8315610c5e57610c1e866115da565b7f7c28f056e92cc6cfdc4ad70fdb5aed119371f9d8dae92615d30188fa3662b70a338783604051610c5193929190612306565b60405180910390a1610ca3565b610c6786611608565b7f95b55de57397263725854bdbeda07824086698230d85f38dc061160e34512085338783604051610c9a93929190612306565b60405180910390a15b508080610caf906128bb565b915050610b59565b50601160009054906101000a900473ffffffffffffffffffffffffffffffffffffffff1673ffffffffffffffffffffffffffffffffffffffff166323b872dd3330600660008981526020019081526020016000205487610d17919061275b565b6040518463ffffffff1660e01b8152600401610d359392919061229f565b602060405180830381600087803b158015610d4f57600080fd5b505af1158015610d63573d6000803e3d6000fd5b505050506040513d601f19601f82011682018060405250810190610d879190611d7f565b610dc6576040517f08c379a0000000000000000000000000000000000000000000000000000000008152600401610dbd90612498565b60405180910390fd5b50505050565b7f85f6017c7f3635f3e21f932bfcec61f314ced22845f0e0e3813bdc644b86d41581565b60046020528060005260406000206000915090505481565b60008060009054906101000a900473ffffffffffffffffffffffffffffffffffffffff16905090565b610e396114aa565b73ffffffffffffffffffffffffffffffffffffffff16610e57610e08565b73ffffffffffffffffffffffffffffffffffffffff1614610ead576040517f08c379a0000000000000000000000000000000000000000000000000000000008152600401610ea4906124d8565b60405180910390fd5b600073ffffffffffffffffffffffffffffffffffffffff168173ffffffffffffffffffffffffffffffffffffffff161415610f1d576040517f08c379a0000000000000000000000000000000000000000000000000000000008152600401610f14906124f8565b60405180910390fd5b80601060006101000a81548173ffffffffffffffffffffffffffffffffffffffff021916908373ffffffffffffffffffffffffffffffffffffffff16021790555050565b60036020528060005260406000206000915090505481565b600e6020528060005260406000206000915054906101000a900460ff1681565b600a6020528060005260406000206000915054906101000a900473ffffffffffffffffffffffffffffffffffffffff1681565b60056020528060005260406000206000915090505481565b60086020528060005260406000206000915090505481565b7fbe2ccfe29593baf3c1f9dd7eff5442e53b447007014b036622cab0f830ebfeec81565b60066020528060005260406000206000915090505481565b6110406114aa565b73ffffffffffffffffffffffffffffffffffffffff1661105e610e08565b73ffffffffffffffffffffffffffffffffffffffff16146110b4576040517f08c379a00000000000000000000000000000000000000000000000000000000081526004016110ab906124d8565b60405180910390fd5b600073ffffffffffffffffffffffffffffffffffffffff168173ffffffffffffffffffffffffffffffffffffffff161415611124576040517f08c379a000000000000000000000000000000000000000000000000000000000815260040161111b90612418565b60405180910390fd5b8073ffffffffffffffffffffffffffffffffffffffff1660008054906101000a900473ffffffffffffffffffffffffffffffffffffffff1673ffffffffffffffffffffffffffffffffffffffff167f8be0079c531659141344cd1fd0a4f28419497f9722a3daafe3b4186f6b6457e060405160405180910390a3806000806101000a81548173ffffffffffffffffffffffffffffffffffffffff021916908373ffffffffffffffffffffffffffffffffffffffff16021790555050565b8473ffffffffffffffffffffffffffffffffffffffff16600a600086815260200190815260200160002060009054906101000a900473ffffffffffffffffffffffffffffffffffffffff1673ffffffffffffffffffffffffffffffffffffffff1614611282576040517f08c379a000000000000000000000000000000000000000000000000000000000815260040161127990612538565b60405180910390fd5b82600d600086815260200190815260200160002054146112d7576040517f08c379a00000000000000000000000000000000000000000000000000000000081526004016112ce906124b8565b60405180910390fd5b600f816040516112e79190612230565b908152602001604051809103902060009054906101000a900460ff1615611343576040517f08c379a000000000000000000000000000000000000000000000000000000000815260040161133a90612438565b60405180910390fd5b6000600b6000868152602001908152602001600020544261136491906127b5565b90506000600c60008781526020019081526020016000205490507f85f6017c7f3635f3e21f932bfcec61f314ced22845f0e0e3813bdc644b86d41585141561140057600860008281526020019081526020016000205482116113fb576040517f08c379a00000000000000000000000000000000000000000000000000000000081526004016113f2906123f8565b60405180910390fd5b611456565b60096000828152602001908152602001600020548211611455576040517f08c379a000000000000000000000000000000000000000000000000000000000815260040161144c906123f8565b60405180910390fd5b5b61146287878686611636565b6114a1576040517f08c379a000000000000000000000000000000000000000000000000000000000815260040161149890612458565b60405180910390fd5b50505050505050565b600033905090565b6001548211156114f7576040517f08c379a00000000000000000000000000000000000000000000000000000000081526004016114ee90612518565b60405180910390fd5b8015611558576000600360008581526020019081526020016000205411611553576040517f08c379a000000000000000000000000000000000000000000000000000000000815260040161154a90612478565b60405180910390fd5b6115af565b60006004600085815260200190815260200160002054116115ae576040517f08c379a00000000000000000000000000000000000000000000000000000000081526004016115a5906123d8565b60405180910390fd5b5b505050565b6000600254905090565b6001600260008282546115d19190612705565b92505081905550565b60016003600083815260200190815260200160002060008282546115fe91906127b5565b9250508190555050565b600160046000838152602001908152602001600020600082825461162c91906127b5565b9250508190555050565b60008061166d868686604051602001611651939291906121f7565b60405160208183030381529060405280519060200120846116de565b9050601060009054906101000a900473ffffffffffffffffffffffffffffffffffffffff1673ffffffffffffffffffffffffffffffffffffffff168173ffffffffffffffffffffffffffffffffffffffff16146116ce5760009150816116d4565b60019150815b5050949350505050565b60006116e98361175f565b925060008060006116f98561178f565b809350819450829550505050600186848484604051600081526020016040526040516117289493929190612373565b6020604051602081039080840390855afa15801561174a573d6000803e3d6000fd5b50505060206040510351935050505092915050565b600081604051602001611772919061225e565b604051602081830303815290604052805190602001209050919050565b600080600060418451146117a257600080fd5b60008060006020870151925060408701519150606087015160001a90508083839550955095505050509193909250565b60006117e56117e084612598565b612573565b90508083825260208201905082856020860282011115611808576118076129ce565b5b60005b8581101561185657813567ffffffffffffffff81111561182e5761182d6129c9565b5b80860161183b8982611ac0565b8552602085019450602084019350505060018101905061180b565b5050509392505050565b600061187361186e846125c4565b612573565b90508083825260208201905082856020860282011115611896576118956129ce565b5b60005b858110156118e457813567ffffffffffffffff8111156118bc576118bb6129c9565b5b8086016118c98982611aee565b85526020850194506020840193505050600181019050611899565b5050509392505050565b60006119016118fc846125f0565b612573565b90508083825260208201905082856020860282011115611924576119236129ce565b5b60005b85811015611954578161193a8882611b1c565b845260208401935060208301925050600181019050611927565b5050509392505050565b600061197161196c8461261c565b612573565b90508281526020810184848401111561198d5761198c6129d3565b5b611998848285612848565b509392505050565b60006119b36119ae8461264d565b612573565b9050828152602081018484840111156119cf576119ce6129d3565b5b6119da848285612848565b509392505050565b6000813590506119f181612d22565b92915050565b600082601f830112611a0c57611a0b6129c9565b5b8135611a1c8482602086016117d2565b91505092915050565b600082601f830112611a3a57611a396129c9565b5b8135611a4a848260208601611860565b91505092915050565b600082601f830112611a6857611a676129c9565b5b8135611a788482602086016118ee565b91505092915050565b600081359050611a9081612d39565b92915050565b600081519050611aa581612d39565b92915050565b600081359050611aba81612d50565b92915050565b600082601f830112611ad557611ad46129c9565b5b8135611ae584826020860161195e565b91505092915050565b600082601f830112611b0357611b026129c9565b5b8135611b138482602086016119a0565b91505092915050565b600081359050611b2b81612d67565b92915050565b600060208284031215611b4757611b466129dd565b5b6000611b55848285016119e2565b91505092915050565b600080600080600080600060e0888a031215611b7d57611b7c6129dd565b5b600088013567ffffffffffffffff811115611b9b57611b9a6129d8565b5b611ba78a828b01611a25565b975050602088013567ffffffffffffffff811115611bc857611bc76129d8565b5b611bd48a828b01611a53565b965050604088013567ffffffffffffffff811115611bf557611bf46129d8565b5b611c018a828b01611a53565b955050606088013567ffffffffffffffff811115611c2257611c216129d8565b5b611c2e8a828b01611a53565b945050608088013567ffffffffffffffff811115611c4f57611c4e6129d8565b5b611c5b8a828b01611a53565b93505060a088013567ffffffffffffffff811115611c7c57611c7b6129d8565b5b611c888a828b01611a53565b92505060c088013567ffffffffffffffff811115611ca957611ca86129d8565b5b611cb58a828b01611a53565b91505092959891949750929550565b60008060008060808587031215611cde57611cdd6129dd565b5b600085013567ffffffffffffffff811115611cfc57611cfb6129d8565b5b611d0887828801611a53565b945050602085013567ffffffffffffffff811115611d2957611d286129d8565b5b611d3587828801611a25565b935050604085013567ffffffffffffffff811115611d5657611d556129d8565b5b611d62878288016119f7565b9250506060611d7387828801611a81565b91505092959194509250565b600060208284031215611d9557611d946129dd565b5b6000611da384828501611a96565b91505092915050565b600060208284031215611dc257611dc16129dd565b5b6000611dd084828501611aab565b91505092915050565b600080600060608486031215611df257611df16129dd565b5b6000611e0086828701611aab565b9350506020611e1186828701611b1c565b9250506040611e2286828701611a81565b9150509250925092565b600060208284031215611e4257611e416129dd565b5b6000611e5084828501611b1c565b91505092915050565b6000611e658383611f6e565b905092915050565b611e76816127e9565b82525050565b611e8d611e88826127e9565b612904565b82525050565b6000611e9e8261268e565b611ea881856126bc565b935083602082028501611eba8561267e565b8060005b85811015611ef65784840389528151611ed78582611e59565b9450611ee2836126af565b925060208a01995050600181019050611ebe565b50829750879550505050505092915050565b611f11816127fb565b82525050565b611f2081612807565b82525050565b611f37611f3282612807565b612916565b82525050565b6000611f4882612699565b611f5281856126cd565b9350611f62818560208601612857565b80840191505092915050565b6000611f79826126a4565b611f8381856126d8565b9350611f93818560208601612857565b611f9c816129e2565b840191505092915050565b6000611fb2826126a4565b611fbc81856126fa565b9350611fcc818560208601612857565b80840191505092915050565b6000611fe56014836126e9565b9150611ff082612a00565b602082019050919050565b6000612008602e836126e9565b915061201382612a29565b604082019050919050565b600061202b601c836126fa565b915061203682612a78565b601c82019050919050565b600061204e6025836126e9565b915061205982612aa1565b604082019050919050565b60006120716026836126e9565b915061207c82612af0565b604082019050919050565b60006120946016836126e9565b915061209f82612b3f565b602082019050919050565b60006120b76011836126e9565b91506120c282612b68565b602082019050919050565b60006120da6030836126e9565b91506120e582612b91565b604082019050919050565b60006120fd6015836126e9565b915061210882612be0565b602082019050919050565b60006121206011836126e9565b915061212b82612c09565b602082019050919050565b60006121436020836126e9565b915061214e82612c32565b602082019050919050565b60006121666021836126e9565b915061217182612c5b565b604082019050919050565b60006121896029836126e9565b915061219482612caa565b604082019050919050565b60006121ac601f836126e9565b91506121b782612cf9565b602082019050919050565b6121cb81612831565b82525050565b6121e26121dd82612831565b612932565b82525050565b6121f18161283b565b82525050565b60006122038286611e7c565b60148201915061221382856121d1565b6020820191506122238284611fa7565b9150819050949350505050565b600061223c8284611f3d565b915081905092915050565b60006122538284611fa7565b915081905092915050565b60006122698261201e565b91506122758284611f26565b60208201915081905092915050565b60006020820190506122996000830184611e6d565b92915050565b60006060820190506122b46000830186611e6d565b6122c16020830185611e6d565b6122ce60408301846121c2565b949350505050565b60006040820190506122eb6000830185611e6d565b81810360208301526122fd8184611e93565b90509392505050565b600060608201905061231b6000830186611e6d565b6123286020830185611f17565b61233560408301846121c2565b949350505050565b60006020820190506123526000830184611f08565b92915050565b600060208201905061236d6000830184611f17565b92915050565b60006080820190506123886000830187611f17565b61239560208301866121e8565b6123a26040830185611f17565b6123af6060830184611f17565b95945050505050565b600060208201905081810360008301526123d181611fd8565b9050919050565b600060208201905081810360008301526123f181611ffb565b9050919050565b6000602082019050818103600083015261241181612041565b9050919050565b6000602082019050818103600083015261243181612064565b9050919050565b6000602082019050818103600083015261245181612087565b9050919050565b60006020820190508181036000830152612471816120aa565b9050919050565b60006020820190508181036000830152612491816120cd565b9050919050565b600060208201905081810360008301526124b1816120f0565b9050919050565b600060208201905081810360008301526124d181612113565b9050919050565b600060208201905081810360008301526124f181612136565b9050919050565b6000602082019050818103600083015261251181612159565b9050919050565b600060208201905081810360008301526125318161217c565b9050919050565b600060208201905081810360008301526125518161219f565b9050919050565b600060208201905061256d60008301846121c2565b92915050565b600061257d61258e565b9050612589828261288a565b919050565b6000604051905090565b600067ffffffffffffffff8211156125b3576125b261299a565b5b602082029050602081019050919050565b600067ffffffffffffffff8211156125df576125de61299a565b5b602082029050602081019050919050565b600067ffffffffffffffff82111561260b5761260a61299a565b5b602082029050602081019050919050565b600067ffffffffffffffff8211156126375761263661299a565b5b612640826129e2565b9050602081019050919050565b600067ffffffffffffffff8211156126685761266761299a565b5b612671826129e2565b9050602081019050919050565b6000819050602082019050919050565b600081519050919050565b600081519050919050565b600081519050919050565b6000602082019050919050565b600082825260208201905092915050565b600081905092915050565b600082825260208201905092915050565b600082825260208201905092915050565b600081905092915050565b600061271082612831565b915061271b83612831565b9250827fffffffffffffffffffffffffffffffffffffffffffffffffffffffffffffffff038211156127505761274f61293c565b5b828201905092915050565b600061276682612831565b915061277183612831565b9250817fffffffffffffffffffffffffffffffffffffffffffffffffffffffffffffffff04831182151516156127aa576127a961293c565b5b828202905092915050565b60006127c082612831565b91506127cb83612831565b9250828210156127de576127dd61293c565b5b828203905092915050565b60006127f482612811565b9050919050565b60008115159050919050565b6000819050919050565b600073ffffffffffffffffffffffffffffffffffffffff82169050919050565b6000819050919050565b600060ff82169050919050565b82818337600083830152505050565b60005b8381101561287557808201518184015260208101905061285a565b83811115612884576000848401525b50505050565b612893826129e2565b810181811067ffffffffffffffff821117156128b2576128b161299a565b5b80604052505050565b60006128c682612831565b91507fffffffffffffffffffffffffffffffffffffffffffffffffffffffffffffffff8214156128f9576128f861293c565b5b600182019050919050565b600061290f82612920565b9050919050565b6000819050919050565b600061292b826129f3565b9050919050565b6000819050919050565b7f4e487b7100000000000000000000000000000000000000000000000000000000600052601160045260246000fd5b7f4e487b7100000000000000000000000000000000000000000000000000000000600052603260045260246000fd5b7f4e487b7100000000000000000000000000000000000000000000000000000000600052604160045260246000fd5b600080fd5b600080fd5b600080fd5b600080fd5b600080fd5b6000601f19601f8301169050919050565b60008160601b9050919050565b7f496e76616c6964206172726179206c656e677468000000000000000000000000600082015250565b7f5261706964204661726d206c696d6974207265616368656420666f722070726f60008201527f76696465642063617465676f7279000000000000000000000000000000000000602082015250565b7f19457468657265756d205369676e6564204d6573736167653a0a333200000000600082015250565b7f43616e206e6f74206861727665737420647572696e67206661726d696e67207060008201527f6572696f64000000000000000000000000000000000000000000000000000000602082015250565b7f4f776e61626c653a206e6577206f776e657220697320746865207a65726f206160008201527f6464726573730000000000000000000000000000000000000000000000000000602082015250565b7f5369676e617475726520616c7265616479207573656400000000000000000000600082015250565b7f496e76616c6964207369676e6174757265000000000000000000000000000000600082015250565b7f47656e6572616c204661726d206c696d6974207265616368656420666f72207060008201527f726f76696465642063617465676f727900000000000000000000000000000000602082015250565b7f546f6b656e207472616e73666572206661696c65640000000000000000000000600082015250565b7f496e76616c6964206661726d2074797065000000000000000000000000000000600082015250565b7f4f776e61626c653a2063616c6c6572206973206e6f7420746865206f776e6572600082015250565b7f5369676e6572204164647265737320636f756c64206e6f7420626520656d707460008201527f7900000000000000000000000000000000000000000000000000000000000000602082015250565b7f43616e206e6f74204661726d206d6f7265207468616e2075736572204661726d60008201527f696e67204c696d69740000000000000000000000000000000000000000000000602082015250565b7f4f6e6c79206f776e65722063616e206861727665737420746865206661726d00600082015250565b612d2b816127e9565b8114612d3657600080fd5b50565b612d42816127fb565b8114612d4d57600080fd5b50565b612d5981612807565b8114612d6457600080fd5b50565b612d7081612831565b8114612d7b57600080fd5b5056fea2646970667358221220bf1e5aac76e13f1039db39b44a5977a6d93d27f2f1a233f945efe38a9a4e225d64736f6c63430008070033",
  "linkReferences": {},
  "deployedLinkReferences": {}
}